:020000040000FA
:0600000062EF18F012008F
:020006001200E6
:06000800F3EF17F01200F7
:02000E0010F4EC
:03001000141003C6
:04001300100E1003B8
:0600180091EF14F012004C
:02001E000500DB
:100020003F3100008A0C00002F0000003931000031
:10003000C90C000006000000FC3000004D0C000060
:100040003D00000013000000D40C0000040000007C
:0C0050000E000000CF0C000005000000B6
:04005C00D9CFE6FF13
:10006000E1CFD9FF240EE126090EDB6A0A0EDB6A16
:100070000B0EDB6A0C0EDB6A0D0EDB6A0E0EDB6A02
:100080000F0EDB6A100EDB6A110EDB6A120EDB6AE2
:10009000130EDB6A140EDB6A150EDB6A160EDB6AC2
:1000A000170EDB6A180EDB6A190EDB6A1A0EDB6AA2
:1000B0001B0EDB6A010E01C1DBFF010EDBCFE6FF89
:1000C000010EDB40E840E8401F0BE552E7240F0B30
:1000D000DF6E030EDB6A040EDB6A030EDBCF10F06B
:1000E000040EDBCF11F0D890115004E6200E105C06
:1000F000000E115811E2030EDBCFE9FF040EDBCF37
:10010000EAFF140EE926010EEA22EF6A030EDB2A4B
:10011000040E01E3DB2AE1D7010EDB040CE1000E43
:10012000DB88DB8ADFCF14F154CC15F155CC10F00D
:10013000116A10C016F1010EDB5007080CE1000E29
:10014000DB88DB8ADFCF14F152CC15F153CC10F0F1
:10015000116A10C016F1010EDB5055081AE1000EAD
:10016000DB88DB8ADFCF14F156CC15F157CC10F0C9
:10017000116A10C016F158CC17F159CC10F0116A61
:1001800010C018F15ACC19F15BCC10F0116A10C0F4
:100190001AF1010EDB50060842E1000EDB88DB8A13
:1001A000DFCF14F151CC15F150CC16F14FCC17F133
:1001B0004ECC18F14E0EE66E0C0EE66E70EC18F09A
:1001C000E552E552F3CF10F0F4CF11F0010E1026F6
:1001D000000E1122030E10C0DBFF040E11C0DBFF66
:1001E000030EDBCF10F0040EDBCF11F0D8901150CE
:1001F00004E6060E105C000E115811E2030EDBCF70
:10020000E9FF040EDBCFEAFF140EE926010EEA2215
:10021000EF6A030EDB2A040E01E3DB2AE1D7010EAD
:10022000DB50880805E1000EDFCF14F102C165FC48
:10023000010EDB508A0864E13BEC0CF0060EF36E15
:10024000220EF3CFDBFF230EDB6A220EDBCF10F092
:10025000230EDBCF11F0D890115004E60B0E105C8A
:10026000020E115832E2220EDBCFE9FF230EDBCF64
:10027000EAFF3D0EE9260A0EEA22EF500101025D77
:100280001AE1010EE76E220EDBCFE9FF230EDBCF72
:10029000EAFFE750E926000EEA223D0EE9260A0EA3
:1002A000EA22EF500101035D06E1010EF36E090E33
:1002B000F3CFDBFF0AD0D950220FE96EDACFEAFF85
:1002C000060EEE26000EED22C0D7090EDB5010E11F
:1002D000000E02C1C3FC03C1C4FC0C016D5104E05B
:1002E0000C01010E706F03D00C01010E6E6F06D071
:1002F000000EDB8ADB8CDB8E090EDB6ADFCF14F1AC
:10030000010EDB508B0809E1000EDFCF14F10C0168
:100310006D5103E00C01010E6F6F010EDB501008F0
:1003200001E0ACD0000EDB88DB8ADFCF14F1020ED7
:10033000DB6A0C01745102E0020EDB80A0EC0DF0D0
:10034000106E116AD89010361136020EDBCFE7FF1F
:100350001050E712020EE7CFDBFF3BEC0CF00C0174
:100360004E510A013D5D11E10C014F510A013E5D04
:100370000CE10C0150510A013F5D07E10C015151A4
:100380000A01405D02E1020EDB840C01765102E1BC
:10039000020EDB86030EDB6A040EDB6A030EDBCF84
:1003A00010F0040EDBCF11F0D890115004E6040ECB
:1003B000105C000E115814E2D9501E0F106EDACFE7
:1003C00011F0030EDB501024E96E040EDB501120F7
:1003D000EA6EEF6A030EDB2A040E01E3DB2ADED7A6
:1003E0008B949F0EC96EC7A0FED7030EDB6A040E66
:1003F000DB6A030EDBCF10F0040EDBCF11F0D890D8
:10040000115004E6040E105C000E115818E2C96A7F
:10041000C7A0FED7D9501E0F106EDACF11F0030E11
:10042000DB501024E96E040EDB501120EA6EC9CFB8
:10043000EFFF030EDB2A040E01E3DB2ADAD78B84FD
:100440001E0EDB501F0809E11F0EDB50270805E1D7
:10045000200EDB0402E1020EDB880C01755103E083
:10046000020EDB8A01D0020E0C01715103E0020E74
:10047000DB8C01D0020E020EDBCF15F1010EDB503A
:100480008C0806E1000EDFCF14F10C01010E736F32
:10049000010EDB50900806E1000EDFCF14F10C01D5
:1004A000010E896F010EDB500D0801E0B8D002C1CA
:1004B000C3FC03C1C4FC3BEC0CF0030EDB6A040E6E
:1004C000DB6A030EDBCF10F0040EDBCF11F0D89007
:1004D000115004E60B0E105C020E115844E2030E9C
:1004E000DBCFE9FF040EDBCFEAFF3D0EE9260A0E63
:1004F000EA22EF500C01C35D2CE1010EE76E030E02
:10050000DBCFE9FF040EDBCFEAFFE750E926000E60
:10051000EA223D0EE9260A0EEA22EF500C01C45DE4
:1005200018E1010EF36E0C0EF3CFDBFF030EDBCFF1
:10053000E6FFEEEC0CF0E5520D0E04C0DBFF0E0EF4
:1005400005C0DBFF0F0E06C0DBFF100E07C0DBFF90
:100550000AD0D950030FE96EDACFEAFF060EEE2675
:10056000000EED22AED70C0EDB5049E0000EDB880A
:10057000DB8A0D0EDBCF10F00E0EDBCF11F00F0E6D
:10058000DBCF12F0100EDBCF13F0180ED890133221
:10059000123211321032E806F9E110C018F10D0ED6
:1005A000DBCF10F00E0EDBCF11F00F0EDBCF12F011
:1005B000100EDBCF13F0100ED8901332123211321E
:1005C0001032E806F9E110C017F10D0EDBCF10F084
:1005D0000E0EDBCF11F00F0EDBCF12F0100EDBCFC3
:1005E00013F0080ED8901332123211321032E8068E
:1005F000F9E110C016F10D0EDBCF15F10CD0000E95
:10060000DB8ADB8CDB8E0101156B0101166B0101AE
:10061000176B0101186BDFCF14F10C0EDB6A010EB2
:10062000DB50110801E069D2000002C1C3FC03C124
:10063000C4FC000007C110F0116A126A136A180E98
:100640001F0B07E0D8901036113612361336E80625
:10065000F9E106C114F0156A166A176A100E1F0B2D
:1006600007E0D8901436153616361736E806F9E145
:100670001450101215501112165012121750131256
:1006800005C118F0196A1A6A1B6A080E1F0B07E0E9
:10069000D890183619361A361B36E806F9E1185084
:1006A0001012195011121A5012121B50131204C1B9
:1006B0001CF01D6A1E6A1F6A1C5010121D50111278
:1006C0001E5012121F501312120E10C0DBFF130E19
:1006D00011C0DBFF140E12C0DBFF150E13C0DBFFD1
:1006E00000003BEC0CF00000060EF36E030EF3CF9F
:1006F000DBFF040EDB6A030EDBCF10F0040EDBCF52
:1007000011F0D890115004E60B0E105C020E115837
:1007100001E3BBD00000030EDBCFE9FF040EDBCF0B
:10072000EAFF3D0EE9260A0EEA22EF500C01C35DF6
:1007300001E0A1D0010EE76E030EDBCFE9FF040E4E
:10074000DBCFEAFFE750E926000EEA223D0EE9265C
:100750000A0EEA22EF500C01C45D01E08CD00000CB
:10076000030EDBCFE6FFEEEC0CF0E5520D0E04C0FD
:10077000DBFF0E0E05C0DBFF0F0E06C0DBFF100E09
:1007800007C0DBFF0D0EDBCF10F00E0EDBCF11F03C
:100790000F0EDBCF12F0100EDBCF13F0180E096E28
:1007A0000A6A0B6A0C6A10C004F011C005F012C08E
:1007B00006F013C007F022EC18F004C010F005C0DA
:1007C00011F006C012F007C013F0D950120FE96EF5
:1007D000DACFEAFFEE50105CEE501158EE5012588E
:1007E000EE50135847E3D950120FE96EDACFEAFF03
:1007F000D880000EEE54000EEE54000EEE54000EA3
:10080000EE5438E20000010EF36E110EF3CFDBFF61
:10081000020EE76E030EDBCFE9FF040EDBCFEAFF2B
:10082000E750E926000EEA223D0EE9260A0EEA22EA
:10083000EFCF12F012C013F0126A030EE76E030E30
:10084000DBCFE9FF040EDBCFEAFFE750E926000E1D
:10085000EA223D0EE9260A0EEA22EF5000011210AC
:10086000106E13C011F00A0E10C0DBFF0B0E11C08A
:10087000DBFF00000AD0D950030FE96EDACFEAFFA0
:10088000060EEE26000EED2236D7110EDB5001E1EA
:1008900004D10000000EDB88DB8AD950120FE96E0C
:1008A000DACFEAFFD880160EEE54000EEE54000E9A
:1008B000EE54000EEE546EE20000120EDBCF10F08C
:1008C000130EDBCF11F0140EDBCF12F0150EDBCFC1
:1008D00013F01006000E115A000E125A000E135A91
:1008E000160E096E0A6A0B6A0C6A10C004F011C079
:1008F00005F012C006F013C007F022EC18F004C097
:1009000010F005C011F006C012F007C013F0D95066
:100910000A0FE96EDACFEAFF1050EE261150ED22F1
:100920000000120EDBCF10F0130EDBCF11F0140E0F
:10093000DBCF12F0150EDBCF13F01006000E115AAC
:10094000000E125A000E135A160E096E0A6A0B6A2E
:100950000C6A10C004F011C005F012C006F013C0FC
:1009600007F022EC18F000C010F001C011F002C036
:1009700012F003C013F0102A000E1122000E1222F2
:10098000000E1322160E10C0DBFF170E11C0DBFF86
:1009900000000DD0120EDBCF06F0130EDBCF07F0F8
:1009A000160E06C0DBFF170E07C0DBFF000004C1F8
:1009B00015F105C116F106C117F107C118F10000C4
:1009C0000A0EDBCFE6FF0B0EDBCFE6FFC0EC0BF031
:1009D000E552E5520000160EDBCF10F0170EDBCF0C
:1009E00011F01006000E115A180E1102F3CF11F07B
:1009F000180E1002F3CF10F0F4501126020E105E04
:100A0000000E115A070E10C0DBFF080E11C0DBFFED
:100A10000000020EF36E030EF3CFDBFF040EDB6A61
:100A2000030EDBCF10F0040EDBCF11F0D890115085
:100A300004E61B0E105C000E11582DE2030EDBCFF6
:100A400010F0040EDBCF11F0070EDB501024E96E1E
:100A5000080EDB501120EA6E2D0EE926080EEA2260
:100A6000EF50E66E030EE76E030EDBCFE9FF040ED8
:100A7000DBCFEAFFE750E926000EEA22140EE92652
:100A8000010EEA22E552E750EF6E030EDB2A040E58
:100A900001E3DB2AC5D700002CD0000EDB8ADB8CFB
:100AA000DB8EDFCF14F1010EF36E030EF3CFDBFF0D
:100AB000040EDB6A030EDBCF10F0040EDBCF11F067
:100AC000D890115004E61A0E105C000E115811E275
:100AD000030EDBCFE9FF040EDBCFEAFF140EE9269D
:100AE000010EEA22EF6A030EDB2A040E01E3DB2A81
:100AF000E1D7DFCF14F1110EDB6A010EDB500E08D7
:100B000001E0F8D0000EDB88DB8A05C110F0116A25
:100B1000126A136A180E1F0B07E0D89010361136B0
:100B200012361336E806F9E104C114F0156A166AA4
:100B3000176A100E1F0B07E0D890143615361636BC
:100B40001736E806F9E1145010121550111216501C
:100B500012121750131203C118F0196A1A6A1B6A8D
:100B6000080E1F0B07E0D890183619361A361B36B8
:100B7000E806F9E118501012195011121A50121209
:100B80001B50131202C11CF01D6A1E6A1F6A1C5002
:100B900010121D5011121E5012121F501312120E5D
:100BA00010C0DBFF130E11C0DBFF140E12C0DBFF01
:100BB000150E13C0DBFF120EDBCF04F0130EDBCFDC
:100BC00005F0140EDBCF06F0150EDBCF07F0160E86
:100BD000096E0A6A0B6A0C6A22EC18F00A0E04C04D
:100BE000DBFF0B0E05C0DBFF120EDBCF04F0130E94
:100BF000DBCF05F0140EDBCF06F0150EDBCF07F0D0
:100C0000160E096E0A6A0B6A0C6A22EC18F0160EB0
:100C100000C0DBFF170E01C0DBFFDFCF14F102C104
:100C200015F103C116F104C117F105C118F10A0E3F
:100C3000DBCFE6FF0B0EDBCFE6FFC0EC0BF0E5529F
:100C4000E552160EDBCF10F0170EDBCF11F01006B9
:100C5000000E115A180E1102F3CF11F0180E1002E7
:100C6000F3CF10F0F4501126050E105E000E115A4D
:100C7000070E10C0DBFF080E11C0DBFF050EF36E80
:100C8000030EF3CFDBFF040EDB6A030EDBCF10F0A5
:100C9000040EDBCF11F0D890115004E61E0E105C4C
:100CA000000E115827E2030EDBCF10F0040EDBCF4D
:100CB00011F0070EDB501024E96E080EDB501120F6
:100CC000EA6E2D0EE926080EEA22EF50E66E030EBC
:100CD000DBCFE9FF040EDBCFEAFF140EE926010E9D
:100CE000EA22E552E750EF6E030EDB2A040E01E321
:100CF000DB2ACBD7010EDB500F0801E011D1000E2B
:100D0000DB88DB8ADFCF14F13BEC0CF0060EF36ED0
:100D1000030EF3CFDBFF040EDB6A030EDBCF10F014
:100D2000040EDBCF11F0D890115004E60B0E105CCE
:100D3000020E115801E3AFD0030EDBCFE9FF040E22
:100D4000DBCFEAFF3D0EE9260A0EEA22EF5001E072
:100D500098D0010EE76E030EDBCFE9FF040EDBCF68
:100D6000EAFFE750E926000EEA223D0EE9260A0EC8
:100D7000EA22EF5001E085D0E66AE66A7BEC0CF0EF
:100D8000E552E552180E04C0DBFF190E05C0DBFF6B
:100D90001A0E06C0DBFF1B0E07C0DBFF030EDBCF06
:100DA00010F0040EDBCF11F0113404E210500608ED
:100DB000000E115465E2030EDBCF10F0040EDBCF02
:100DC00011F0020E105E000E115A050E10C0DBFF6E
:100DD000060E11C0DBFF050EDBCF10F0060EDBCFD9
:100DE00011F0113404E210500908000E115448E2C9
:100DF000050EDBCFE9FF060EDBCFEAFF3D0EE9264D
:100E00000A0EEA22EF50FF0831E00000010EE76E03
:100E1000050EDBCFE9FF060EDBCFEAFFE750E92640
:100E2000000EEA223D0EE9260A0EEA22EF50E66E97
:100E3000050EDBCFE9FF060EDBCFEAFF3D0EE9260C
:100E40000A0EEA22EF50E66E7BEC0CF0E552E5521A
:100E5000180E04C0DBFF190E05C0DBFF1A0E06C01A
:100E6000DBFF1B0E07C0DBFF00000AD0D950050FC7
:100E7000E96EDACFEAFF060EEE5E000EED5AABD752
:100E80000AD0D950030FE96EDACFEAFF060EEE263C
:100E9000000EED2242D7180EDBCF10F0190EDBCF7B
:100EA00011F01A0EDBCF12F01B0EDBCF13F0180E71
:100EB000D8901332123211321032E806F9E110C024
:100EC00018F1180EDBCF10F0190EDBCF11F01A0E4F
:100ED000DBCF12F01B0EDBCF13F0100ED8901332C5
:100EE000123211321032E806F9E110C017F1180E73
:100EF000DBCF10F0190EDBCF11F01A0EDBCF12F0A2
:100F00001B0EDBCF13F0080ED890133212321132C1
:100F10001032E806F9E110C016F1180EDBCF15F11A
:100F2000010EDB50020801E089D002C112F012C0AC
:100F300013F0126A0101035100011210106E13C068
:100F400011F00A0E10C0DBFF0B0E11C0DBFF010118
:100F50000451E66ED950160FE96EDACFEAFFE5527A
:100F6000E750EE6EED6A000EDB88DB8A160EDBCFF3
:100F700015F10A0EDBCFE6FF0B0EDBCFE6FFC0EC70
:100F80000BF0E552E552160EDBCF10F0170EDBCF5B
:100F900011F01006000E115A180E1102F3CF11F0C5
:100FA000180E1002F3CF10F0F4501126020E105E4E
:100FB000000E115A070E10C0DBFF080E11C0DBFF38
:100FC000020EF36E030EF3CFDBFF040EDB6A030E9B
:100FD000DBCF10F0040EDBCF11F0D890115004E6F7
:100FE0001B0E105C000E115827E2030EDBCF10F031
:100FF000040EDBCF11F0070EDB501024E96E080E53
:10100000DB501120EA6E2D0EE926080EEA22EF5081
:10101000E66E030EDBCFE9FF040EDBCFEAFF140E12
:10102000E926010EEA22E552E750EF6E030EDB2AB5
:10103000040E01E3DB2ACBD7DFCF14F1010EDB5026
:10104000840806E1000EDFCF14F10C01010E676F7A
:10105000010EDB50850806E1000EDFCF14F10C0114
:10106000010E666F010EDB50030801E0D3D003C10F
:1010700012F012C013F0126A0101025100011210A5
:10108000106E13C011F01C0E10C0DBFF1D0E11C03E
:10109000DBFF1C0EDBCF10F01D0EDBCF11F0040EBA
:1010A000105C000E115801E3AFD0D9501C0FE96E4F
:1010B000DACFEAFF000ED880EE54000EED5401E3C3
:1010C000A3D0000EDB88DB8A02C115F103C116F143
:1010D0001C0EDBCF10F01D0EDBCF11F01006000E42
:1010E000115A180E1102F3CF11F0180E1002F3CF9F
:1010F00010F0F4501126070E10C0DBFF080E11C0CF
:10110000DBFF0C01885140E1030EDB6A040EDB6A51
:10111000030EDBCF10F0040EDBCF11F0D89011508E
:1011200004E61A0E105C000E11582DE2030EDBCF00
:1011300010F0040EDBCF11F0070EDB501024E96E27
:10114000080EDB501120EA6EB50EE926010EEA22E8
:10115000EF50E66E030EE76E030EDBCFE9FF040EE1
:10116000DBCFEAFFE750E926000EEA22140EE9265B
:10117000010EEA22E552E750EF6E030EDB2A040E61
:1011800001E3DB2AC5D73FD0030EDB6A040EDB6A1E
:10119000030EDBCF10F0040EDBCF11F0D89011500E
:1011A00004E61A0E105C000E11582DE2030EDBCF80
:1011B00010F0040EDBCF11F0070EDB501024E96EA7
:1011C000080EDB501120EA6E6D0EE926010EEA22B0
:1011D000EF50E66E030EE76E030EDBCFE9FF040E61
:1011E000DBCFEAFFE750E926000EEA22140EE926DB
:1011F000010EEA22E552E750EF6E030EDB2A040EE1
:1012000001E3DB2AC5D704D0000EDB88DB8CDB8E44
:10121000DFCF14F1010EDB50090801E077D0000E9A
:10122000DB88DB8A0C01885138E1030EDB6A040E8F
:10123000DB6A030EDBCF10F0040EDBCF11F0D89089
:10124000115004E6480E105C000E115825E2030E02
:10125000DBCFE9FF040EDBCFEAFFB50EE926010E76
:10126000EA22EF50E66E010EE76E030EDBCFE9FFD8
:10127000040EDBCFEAFFE750E926000EEA22140E47
:10128000E926010EEA22E552E750EF6E030EDB2A53
:10129000040E01E3DB2ACDD737D0030EDB6A040E40
:1012A000DB6A030EDBCF10F0040EDBCF11F0D89019
:1012B000115004E6480E105C000E115825E2030E92
:1012C000DBCFE9FF040EDBCFEAFF6D0EE926010E4E
:1012D000EA22EF50E66E010EE76E030EDBCFE9FF68
:1012E000040EDBCFEAFFE750E926000EEA22140ED7
:1012F000E926010EEA22E552E750EF6E030EDB2AE3
:10130000040E01E3DB2ACDD7DFCF14F1C8D86B98E8
:101310008986030EDB6A040EDB6A030EDBCF10F056
:10132000040EDBCF11F00C0111508319E8AE02D08E
:10133000833504D08251105C8351115815E2030E9D
:10134000DBCFE9FF040EDBCFEAFF140EE926010E26
:10135000EA22EF506D6E00006CA2FED7030EDB2A6E
:10136000040E01E3DB2AD9D789966B880C016A6BDE
:101370000C016B6B0C017B6B030EDB6A040EDB6AEA
:10138000030EDBCF10F0040EDBCF11F0D89011501C
:1013900004E6140E105C000E115811E2030EDBCFB0
:1013A000E9FF040EDBCFEAFF000EE926010EEA2278
:1013B000EF6A030EDB2A040E01E3DB2AE1D7240ED9
:1013C000E15C02E2E16AE552E16EE552E7CFD9FF66
:1013D00012000C017E6B7F6B0C017C6B7D6B12002D
:1013E000D9CFE6FFE1CFD9FF040EE126020E00C1FE
:1013F000DBFF010EDE6EDD6ADECF10F0DDCF11F017
:101400007ECC12F07FCC13F01206000E135A11504E
:101410001318E8AE02D0133404D01250105C1350ED
:10142000115817E2020EDBCFE6FFDECFE9FFDDCF7A
:10143000EAFF000EE926010EEA22EF50E552E71816
:10144000E76E020EE7CFDBFFDF2A010E01E3DB2AA6
:10145000D3D77ECCE9FF7FCCEAFFE906000EEA5A3B
:10146000000EE926010EEA22030EEFCFDBFF020E8B
:10147000DB50F36E030EDB50F35C03E1010E03D08F
:1014800002D0000E00D0106E040EE15C02E2E16AB0
:10149000E552E16E1050E552E7CFD9FF1200D9CFE7
:1014A000E6FFE1CFD9FF030EE1260C0183AF02D0A6
:1014B000D89003D0825D000E835901E241D0020E24
:1014C00014C1DBFF010EDE6EDD6ADECF10F0DDCF72
:1014D00011F082CC12F083CC13F01206000E135AD6
:1014E00011501318E8AE02D0133404D01250105C1F
:1014F0001350115817E2020EDBCFE6FFDECFE9FFF3
:10150000DDCFEAFF140EE926010EEA22EF50E55284
:10151000E718E76E020EE7CFDBFFDF2A010E01E3DB
:10152000DB2AD3D782CCE9FF83CCEAFFE906000EA1
:10153000EA5A140EE926010EEA22020EDBCFEFFF73
:10154000030EE15C02E2E16AE552E16EE552E7CFAB
:04155000D9FF1200AD
:0C155400C79EC78CC698C696C694C69267
:10156000C6908B84C68A1200D9CFE6FFE1CFD9FF9F
:10157000060EE126DE6ADD6AFD0EDBCF10F0FE0E00
:10158000DBCF11F0D89010361136D89010361136C6
:10159000FF0E1016000E1116020E10C0DBFF030E18
:1015A00011C0DBFFFD0EDBCF10F0FE0EDBCF11F024
:1015B000060ED89011321032E804FBE1FF0E10162F
:1015C000000E1116040E10C0DBFF050E11C0DBFF6C
:1015D0008B94830EC96EC7A0FED7040EDB50C96E74
:1015E000C7A0FED7020EDB50C96EC7A0FED7DF50E2
:1015F000C96EC7A0FED78B84A3DA000901E1FCD72E
:10160000060EE15C02E2E16AE552E16EE552E7CFE7
:10161000D9FF1200D9CFE6FFE1CFD9FF080EE126AE
:10162000020EDB6A030EDB6AFD0EDBCF10F0FE0E4E
:10163000DBCF11F0D89010361136D8901036113615
:10164000FF0E1016000E1116040E10C0DBFF050E63
:1016500011C0DBFFFD0EDBCF10F0FE0EDBCF11F073
:10166000060ED89011321032E804FBE1FF0E10167E
:10167000000E1116060E10C0DBFF070E11C0DBFFB7
:101680008B94820EC96EC7A0FED7060EDB50C96EC2
:10169000C7A0FED7040EDB50C96EC7A0FED7020E4E
:1016A000DB50C96EC7A0FED7DE6ADD6ADECF10F060
:1016B000DDCF11F0D890115004E6100E105C020E30
:1016C000115811E2DECFE9FFDDCFEAFF1D0EE9265A
:1016D000060EEA22EF50C96EC7A0FED7DF2A010E20
:1016E00001E3DB2AE3D78B84080EE15C02E2E16AC6
:1016F000E552E16EE552E7CFD9FF1200D9CFE6FF00
:10170000E1CFD9FF020EE1268B94850EC96EC7A0EA
:10171000FED7C96AC7A0FED7C96AC7A0FED7C96AE3
:10172000C7A0FED7DE6ADD6ADECF10F0DDCF11F094
:10173000D890115004E6100E105C020E115811E200
:10174000DECFE9FFDDCFEAFF3D0EE9260A0EEA22F1
:10175000EF50C96EC7A0FED7DF2A010E01E3DB2AD6
:10176000E3D78B84EDD9000901E1FCD7020EE15CDF
:1017700002E2E16AE552E16EE552E7CFD9FF1200DD
:10178000D9CFE6FFE1CFD9FF080EE126020EDB6AD2
:10179000030EDB6AFD0EDBCF10F0FE0EDBCF11F087
:1017A000D89010361136D89010361136FF0E10161C
:1017B000000E1116040E10C0DBFF050E11C0DBFF7A
:1017C000FD0EDBCF10F0FE0EDBCF11F0060ED89031
:1017D00011321032E804FBE1FF0E1016000E111654
:1017E000060E10C0DBFF070E11C0DBFF8B94D20E7C
:1017F000C96EC7A0FED7060EDB50C96EC7A0FED7C4
:10180000040EDB50C96EC7A0FED7020EDB50C96EB6
:10181000C7A0FED7040EE66EE66AE0DBE552E552AD
:10182000DE6ADD6ADECF10F0DDCF11F0D890115006
:1018300004E6100E105C020E115812E2C96AC7A02D
:10184000FED7DECFE9FFDDCFEAFF2D0EE926080E39
:10185000EA22C9CFEFFFDF2A010E01E3DB2AE2D73C
:101860008B84080EE15C02E2E16AE552E16EE5522A
:10187000E7CFD9FF1200D9CFE6FFE1CFD9FF020EA3
:10188000E126000EE66EE66A7BDFE552E552DE6A8F
:10189000DD6ADECF10F0DDCF11F0D890115004E6F4
:1018A000100E105C020E11581AE2DECFE9FFDDCFF8
:1018B000EAFF2D0EE926080EEA22EF50E66EDECF93
:1018C000E9FFDDCFEAFF3D0EE9260A0EEA22E552E6
:1018D000E750EF6EDF2A010E01E3DB2ADAD7020EB2
:1018E000E15C02E2E16AE552E16EE552E7CFD9FF41
:1018F00012007EEF0BF0D9CFE6FFE1CFD9FF080E43
:10190000E126DE681F0EDE6EDE6ADD6ADD52DD5224
:10191000FE0EDBCF14F014C015F0146AFD0EDB5080
:1019200000011410106E15C011F0126A136A11AE86
:1019300002D012681368040E10C0DBFF050E11C040
:10194000DBFF060E12C0DBFF070E13C0DBFF040E29
:10195000DBCF14F0050EDBCF15F0060EDBCF16F053
:10196000070EDBCF17F0D9CFE9FFDACFEAFF14502B
:10197000EE5C106E1550EE58116E1650EE58126E49
:101980001750EE58136E100E096E020E0A6E0B6A97
:101990000C6A10C004F011C005F012C006F013C0AC
:1019A00007F0BBEC17F000C010F001C011F002C04E
:1019B00012F003C013F010C004F011C005F012C003
:1019C00006F013C007F0080EE15C03E200D0E16A04
:1019D000E552E16EE552E7CFD9FF1200D9CFE6FF1D
:1019E000E1CFD9FF0C0EE126FE0EDB50020FEA6AB2
:1019F0003D0FE96E0A0EEA22EFCF14F014C015F085
:101A0000146AFE0EDB50030FEA6A3D0FE96E0A0E00
:101A1000EA22EF5000011410106E15C011F0126A86
:101A2000136A11AE02D01268136810C0DFFF010EF6
:101A300011C0DBFF020E12C0DBFF030E13C0DBFF81
:101A4000FE0EDB50040FEA6A3D0FE96E0A0EEA2231
:101A5000EFCF14F014C015F0146AFE0EDB50050F22
:101A6000EA6A3D0FE96E0A0EEA22EF501410106E7A
:101A700015C011F0126A136A11AE02D01268136811
:101A8000040E10C0DBFF050E11C0DBFF060E12C0F6
:101A9000DBFF070E13C0DBFF040EDBCF10F0050EDB
:101AA000DBCF11F0060EDBCF12F0070EDBCF13F009
:101AB000D9CFE9FFDACFEAFFEE50105C046EEE50AA
:101AC0001158056EEE501258066EEE501358076E00
:101AD000042A000E052206220722100E096E020EAD
:101AE0000A6E0B6A0C6ABBEC17F0080E00C0DBFF35
:101AF000090E01C0DBFF0A0E02C0DBFF0B0E03C0A4
:101B0000DBFF080EDBCF10F0090EDBCF11F00A0E61
:101B1000DBCF12F00B0EDBCF13F010C004F011C0BE
:101B200005F012C006F013C007F00C0EE15C03E2F2
:101B300000D0E16AE552E16EE552E7CFD9FF12002D
:101B4000D9CFE6FFE1CFD9FFE6528B94D70EC96E0D
:101B5000C7A0FED7C96AC7A0FED7C950DF6E8B8465
:101B6000DF50106E116A070ED89011321032E8045F
:101B7000FBE11050DF6EDF5000D0E552E552E7CFB9
:101B8000D9FF120078DE60CC10F0116A10C0C5FCDD
:101B90005FCCC6FC63CC56FC64CC57FC3D0E0C01FC
:101BA0006325E96E0A0E6421EA6EC3CCEFFF010ED5
:101BB000EA6A6325E96E6451EA223D0EE9260A0EBF
:101BC000EA22C4CCEFFF020EEA6A6325E96E645193
:101BD000EA223D0EE9260A0EEA22C5CCEFFF030EEB
:101BE000EA6A6325E96E6451EA223D0EE9260A0E8F
:101BF000EA22C6CCEFFF7DDE0C01886B0C01866B00
:101C00000C01010E6D6F050EE66EE66ACF0EE66EF4
:101C10000C0EE66E4DEC16F0E552E552E552E5523B
:101C2000E80EE66E030EE66EE66AE66A82EC17F0F0
:101C3000E552E552E552E5520C01010E716F1200BA
:101C4000D9CFE6FFE1CFD9FF020EE1260C01716B7F
:101C50000C016D6B63CC58FC64CC59FC0C018651B3
:101C600053E18B94840EC96EC7A0FED7C96AC7A082
:101C7000FED762CC10F0116A1050C96EC7A0FED713
:101C800061CCC9FFC7A0FED761CCDEFF62CCDDFF0F
:101C9000DECF10F0DDCF11F0D890115004E6100E19
:101CA000105C020E115806E2C96ADF2A010E01E338
:101CB000DB2AEED7C7A0FED78B8400008B94830E5F
:101CC000C96EC7A0FED75FCC10F060CC11F0060E35
:101CD000D89011321032E804FBE11050C96EC7A051
:101CE000FED75FCC10F060CC11F0D89010361136D2
:101CF000D890103611361050C96EC7A0FED7C96AE9
:101D0000C7A0FED78B8452D08B94870EC96EC7A014
:101D1000FED7C96AC7A0FED762CC10F0116A105076
:101D2000C96EC7A0FED761CCC9FFC7A0FED761CCE2
:101D3000DEFF62CCDDFFDECF10F0DDCF11F0D890FA
:101D4000115004E6100E105C020E115806E2C96A2A
:101D5000DF2A010E01E3DB2AEED7C7A0FED78B8472
:101D600000008B94860EC96EC7A0FED75FCC10F022
:101D700060CC11F0060ED89011321032E804FBE16D
:101D80001050C96EC7A0FED75FCC10F060CC11F028
:101D9000D89010361136D890103611361050C96EC2
:101DA000C7A0FED7C96AC7A0FED78B84C9DE0009C9
:101DB00001E1FCD760DD60CC10F0116A10C0C7FCF7
:101DC0005FCCC8FC040E0C01EA6A6325E96E64511D
:101DD000EA223D0EE9260A0EEA22C7CCEFFF050EE5
:101DE0000C01EA6A6325E96E6451EA223D0EE92698
:101DF0000A0EEA22C8CCEFFFDE6ADD6ADECF10F001
:101E0000DDCF11F0D890115004E6880E105C130E4F
:101E1000115806E20000DF2A010E01E3DB2AEED7AB
:101E200068DD060E0C016327000E0C01642363CCF1
:101E30005AFC64CC5BFC0C015F2B000E6023020E8D
:101E4000E15C02E2E16AE552E16EE552E7CFD9FFDB
:101E50001200F6DEE80EE66E030EE66EE66AE66A4D
:101E600082EC17F0E552E552E552E552C2EF0DF073
:101E70008B94C70EC96EC7A0FED7940EC96EC7A0BB
:101E8000FED7800EC96EC7A0FED79A0EC96EC7A036
:101E9000FED78B840C01776B0C01766B1200D9CFC7
:101EA000E6FFE1CFD9FF020EE126DE6ADD6ADECF72
:101EB00010F0DDCF11F0D890115004E6100E105C38
:101EC000020E11580EE2DECFE9FFDDCFEAFF1D0E54
:101ED000E926060EEA22EF68DF2A010E01E3DB2A7B
:101EE000E6D7DE6ADD6ADECF10F0DDCF11F0D890E4
:101EF000115004E6040E105C000E11581AE2DECFF9
:101F0000E9FFDDCFEAFF4E0EE9260C0EEA22EF5084
:101F1000E66EDECFE9FFDDCFEAFF1D0EE926060EF5
:101F2000EA22E552E750EF6EDF2A010E01E3DB2AD9
:101F3000DAD755CC10F0116A10C021F654CC22F635
:101F4000060EDE6EDD6ADECF10F0DDCF11F0D89028
:101F5000115004E60B0E105C020E11581BE2DECF8E
:101F6000E9FFDDCFEAFF1D0EE926060EEA22EF6A41
:101F7000DECFE9FFDDCFEAFF010EE926000EEA22FF
:101F80001D0EE926060EEA22EF6A060EDE26000E78
:101F9000DD22D9D7000EE66EE66A0AEC0BF0E552B8
:101FA000E552060E0C01636F646B010E0C015F6F4E
:101FB000606B0C01616B626B0C01866F0C01886BAE
:101FC0000C01766B0C01776F020EE15C02E2E16AB4
:101FD000E552E16EE552E7CFD9FF1200D9CFE6FF17
:101FE000E1CFD9FF030EE126010EDB6A020EDB6AA8
:101FF000010EDBCF10F0020EDBCF11F0FD0EDBCFB8
:1020000012F0FE0EDBCF13F011501318E8AE02D021
:10201000133404D01250105C135011580BE2C96AEB
:10202000C7A0FED7C950DF6E010EDB2A020E01E306
:10203000DB2ADED7030EE15C02E2E16AE552E16EE3
:10204000E552E7CFD9FF1200D9CFE6FFE1CFD9FFA4
:10205000020EE12610DC060EDE6EDD6ADECF10F029
:10206000DDCF11F0D890115004E60B0E105C020E7B
:10207000115850E2DECFE9FFDDCFEAFF3D0EE92641
:102080000A0EEA22EF5041E1DECFE9FFDDCFEAFFA1
:10209000010EE926000EEA223D0EE9260A0EEA228A
:1020A000EF5033E1DECF63FCDDCF64FCDECF10F018
:1020B000DDCF11F0113404E210500608000E115467
:1020C00023E263CCE9FF64CCEAFF020EE95E000E76
:1020D000EA5A3D0EE9260A0EEA22EF50000EF3CF2F
:1020E00010F063CCE9FF64CCEAFFE906EA5A3D0E42
:1020F000E9260A0EEA22EF5010100C015F6F606BA8
:10210000010E5F27000E602305D0060EDE26000EAE
:10211000DD22A4D7020EE15C02E2E16AE552E16E43
:08212000E552E7CFD9FF1200E0
:08212800D9CFE6FFE1CFD9FF9A
:10213000040EE126DE6ADD6ADECF10F0DDCF11F09D
:10214000D890115004E6140E105C000E11580EE2E7
:10215000DECFE9FFDDCFEAFF000EE926010EEA221D
:10216000EF6ADF2A010E01E3DB2AE6D7DE6ADD6AC9
:10217000DECF10F0DDCF11F0D890115004E6480EFC
:10218000105C000E115817E2DECFE9FFDDCFEAFF49
:102190006D0EE926010EEA22EF6ADECFE9FFDDCF00
:1021A000EAFFB50EE926010EEA22EF6ADF2A010EE8
:1021B00001E3DB2ADDD7DE6ADD6ADECF10F0DDCF9A
:1021C00011F0D890115004E6100E105C020E115858
:1021D00029E2DECFE9FFDDCFEAFFFD0EE926010EA1
:1021E000EA22EF6ADECFE9FFDDCFEAFF0D0EE92636
:1021F000040EEA22EF6ADECFE9FFDDCFEAFF1D0E13
:10220000E926060EEA22EF6ADECFE9FFDDCFEAFF1C
:102210002D0EE926080EEA22EF6ADF2A010E01E3FD
:10222000DB2ACBD70F0EC16E8B68949C948E8F687F
:1022300098929884010E896E926A2A0EAF6E7F6A18
:10224000080E7E6E640EAC6ED00EAB6E030E6F6E1B
:102250007D6A080E7C6E640E6C6ED00E6B6ED08E36
:10226000F28EF28C9D8A9F9AA38AA58AF28AF194B3
:10227000949494969488949AAAEC0AF0040EE66ECC
:10228000E66AD40EE66E0C0EE66E4DEC16F0E552E4
:10229000E552E552E5520C01010E866F0C01886B88
:1022A0003BEC0CF00C014E510A013D5D13E10C01B9
:1022B0004F510A013E5D0EE10C0150510A013F5D94
:1022C00009E10C0151510A01405D04E10C01010ECC
:1022D000776F02D00C01776B010E0C015F6F606BA2
:1022E0000C01775101E1C3D0060EDE6EDD6ADECF50
:1022F00010F0DDCF11F0D890115004E60B0E105CF9
:10230000020E115801E3B3D0DECFE9FFDDCFEAFFC3
:102310003D0EE9260A0EEA22EF5001E0A3D0DECFFF
:10232000E9FFDDCFEAFF010EE926000EEA223D0EAD
:10233000E9260A0EEA22EF5001E094D0D9CFE9FF56
:10234000DACFEAFF0C0EEE1801E1ED5018E1DECF16
:10235000E9FFDDCFEAFF020EE95E000EEA5A3D0E0C
:10236000E9260A0EEA22EF50FF0808E1060E0C01EA
:10237000636F646B010E0C015F6F606B72D0DECF18
:1023800010F0DDCF11F0113404E210500608000EF9
:10239000115467E2DECF10F0DDCF11F0020E105EB7
:1023A000000E115A020E10C0DBFF030E11C0DBFF3E
:1023B000020EDBCF10F0030EDBCF11F0113404E27C
:1023C00010500908000E11544CE2020EDBCFE9FF59
:1023D000030EDBCFEAFF3D0EE9260A0EEA22EF509C
:1023E000FF0835E0020EDBCF63FC030EDBCF64FC9D
:1023F000020E0C016327000E0C01642363CCE9FF7D
:1024000064CCEAFF020EE95E000EEA5A3D0EE926B0
:102410000A0EEA22EFCF10F010C011F0106A63CC60
:10242000E9FF64CCEAFFE906000EEA5A3D0EE92610
:102430000A0EEA22EF500C0110105F6F11C060FC11
:10244000010E0C015F27000E0C0160230AD0D95049
:10245000020FE96EDACFEAFF060EEE5E000EED5ACD
:10246000A7D705D0060EDE26000EDD2240D70000DD
:1024700085960C01735104E00C01736B38EC0FF07E
:102480000C01895104E00C01896B4FEC0FF00C0139
:102490006E5104E00C016E6BC2EC0DF00C016F513B
:1024A00004E00C016F6B20EC0EF00C01705104E0A5
:1024B0000C01706B29EC0FF00C0187515EE00C01F0
:1024C000876B0C01865126E18B94860EC96EC7A0DE
:1024D000FED75FCC10F060CC11F0060ED890113210
:1024E0001032E804FBE11050C96EC7A0FED75FCCE4
:1024F00010F060CC11F0D89010361136D89010360C
:1025000011361050C96EC7A0FED7C96AC7A0FED742
:102510008B8425D08B94830EC96EC7A0FED75FCC69
:1025200010F060CC11F0060ED89011321032E80491
:10253000FBE11050C96EC7A0FED75FCC10F060CC95
:1025400011F0D89010361136D89010361136105040
:10255000C96EC7A0FED7C96AC7A0FED78B840C017D
:102560005F2B000E6023E80E0C015F1902E11C0EC8
:10257000601903E10C01010E766F0C017B5115E02F
:102580000C016A5112E10C014D510C017B5D06E119
:102590000C01010E6A6F4DCC00F107D0E9EC09F097
:1025A0000C017B6B0C017C6B7D6B0C016C510CE0A6
:1025B0000C016C6BE9EC09F00C016A6B0C017B6B94
:1025C0000C016B6B6B986B880C017C517D1101E1E8
:1025D00059D1020E0C017DAF02D0D89003D07C5DA2
:1025E000000E7D5901E22CD10C016A5101E128D184
:1025F0000C016B5101E024D1010101510E0A01E1EE
:1026000006D10C0A01E1F7D0130A01E1E8D01C0A57
:1026100001E1D9D09D0A01E1CAD01C0A01E1BBD079
:10262000070A01E1ACD0010A01E19DD00F0A01E1E6
:102630008ED0010A01E17FD0940A71E01F0A63E0A5
:10264000870A55E0DD0A47E0520A39E0010A2BE02B
:102650000F0A1DE00A0A0FE0020A01E0E4D0030EAF
:102660000C017E6F7F6B040E0C01826F836B0C017B
:10267000806B816BDFD0050E0C017E6F7F6B1C0EB3
:102680000C01826F836B0C01806B816BD3D0030EC6
:102690000C017E6F7F6B4B0E0C01826F836B0C0104
:1026A000806B816BC7D0030E0C017E6F7F6B060EB3
:1026B0000C01826F836B0C01806B816BBBD0030EAE
:1026C0000C017E6F7F6B040E0C01826F836B0C011B
:1026D000806B816BAFD0030E0C017E6F7F6B080E99
:1026E0000C01826F836B0C01806B816BA3D0040E95
:1026F0000C017E6F7F6B010E0C01826F836B0C01EE
:10270000806B816B97D0030E0C017E6F7F6B060E82
:102710000C01826F836B0C01806B816B8BD0030E7D
:102720000C017E6F7F6B030E0C01826F836B0C01BB
:10273000806B816B7FD0030E0C017E6F7F6B010E6F
:102740000C01826F836B0C01806B816B73D0030E65
:102750000C017E6F7F6B010E0C01826F836B0C018D
:10276000806B816B67D0050E0C017E6F7F6B010E55
:102770000C01826F836B0C01806B816B5BD0030E4D
:102780000C017E6F7F6B010E0C01826F836B0C015D
:10279000806B816B4FD0030E0C017E6F7F6B010E3F
:1027A0000C01826F836B0C01806B816B43D0030E35
:1027B0000C017E6F7F6B010E0C01826F836B0C012D
:1027C000806B816B37D0050E0C017E6F7F6B060E20
:1027D0000C01826F836B0C01806B816B2BD0090E17
:1027E0000C017E6F7F6B1E0E0C01826F836B0C01E0
:1027F000806B816B1FD0060E0C017E6F7F6B1B0EF2
:102800000C01826F836B0C01806B816B13D0070E00
:102810000C017E6F7F6B1E0E0C01826F836B0C01AF
:10282000806B816B07D0E9EC09F00C016A6B0C013D
:102830007B6B00D00C016A5103E00C01010E6B6F41
:102840000C016B511FE00C017E510C017C1904E15D
:102850000C017F510C017D1915E10C017C517D119A
:1028600011E0F0EC09F0000908E1E9EC09F00C01D5
:102870006A6B0C017B6B0C016B6B0C016B5102E002
:102880002EEC00F00C01675107E00C01676B0C01A6
:10289000010E756F8AEC16F00C01665111E00C0107
:1028A000666B0C01756B040EE66EE66AD40EE66E7E
:1028B0000C0EE66E4DEC16F0E552E552E552E5528F
:1028C0000C01655123E00C0165510D0A1AE0030A61
:1028D00015E01E0A10E0010A0BE0060A06E00E0AE7
:1028E00001E012D0030E6F6E0FD0040E6F6E0CD08D
:1028F0002A0E6F6E09D0560E6F6E06D0030E6F6EE5
:1029000003D0080E6F6E00D00C01656BB2D5040EBB
:10291000E15C02E2E16AE552E16EE552E7CFD9FF00
:022920001200A3
:0E292200DACFE4FFE2CFDAFFE9CFE4FFEACF3D
:10293000E4FFE652D9CFE6FFE1CFD9FF040EE1264E
:10294000F2A406D0F294D59E0C01746B0C01786B46
:102950009EAA42D19E9AAE50DF6EABA257D00C0118
:1029600069514FE06951880A01E04BD00C01885150
:1029700024E1010EDB6A020EDB6A010EDBCF20F0E0
:10298000020EDBCF21F0D890215004E65A0E205CD5
:10299000000E215811E2010EDBCFE9FF020EDBCF62
:1029A000EAFF6D0EE926010EEA22EF6A010EDB2A2C
:1029B000020E01E3DB2AE1D723D0010EDB6A020E0F
:1029C000DB6A010EDBCF20F0020EDBCF21F0D890C6
:1029D000215004E65A0E205C000E215811E2010E2F
:1029E000DBCFE9FF020EDBCFEAFFB50EE926010ED1
:1029F000EA22EF6A010EDB2A020E01E3DB2AE1D7AD
:102A000000D00C01696BAB98AB88E6D00C01CB2BE6
:102A1000000ECC230C016D514BE00C01865119E1E5
:102A20008B94840EC96EC7A0FED7C96AC7A0FED713
:102A300062CC20F0216A2050C96EC7A0FED761CCBD
:102A4000C9FFC7A0FED7DF50C96EC7A0FED78B84D1
:102A500018D08B94870EC96EC7A0FED7C96AC7A0CD
:102A6000FED762CC20F0216A2050C96EC7A0FED7E5
:102A700061CCC9FFC7A0FED7DF50C96EC7A0FED783
:102A80008B840C01612B000E6223100E611902E190
:102A9000020E62190DE10C01010E876F0C018651C7
:102AA00002E0866B02D0010E866F0C01616B626BD7
:102AB0000C01C95101E188D0880E0C01695D0CE15F
:102AC000100E0C01CA5D08E1100EDF5C05E1CB07BA
:102AD000000ECC5BCA6B80D00C01020ECB1901E159
:102AE000CC5102E1DFCF7AFC7ACC69FC0C017A513F
:102AF000880A01E029D00C01CC3504E2CB51020850
:102B0000000ECC5520E20C0188510FE1CBCCE9FF3F
:102B1000CCCCEAFF030EE95E000EEA5A6D0EE92600
:102B2000010EEA22DFCFEFFF0ED0CBCCE9FFCCCCF9
:102B3000EAFF030EE95E000EEA5AB50EE926010E21
:102B4000EA22DFCFEFFF00D0030EDF5C3AE1100E88
:102B50000C01CA5D36E10C01785109E00C01CD5140
:102B6000D66ECECC20F0216A2050D76E14D0010E44
:102B7000786F0C01746FD58ED59CD59AD588D59673
:102B8000D584D582D5800C01CD51D66ECECC20F027
:102B9000216A2050D76E880E0C017A5D07E10C0186
:102BA000885102E0886B02D0010E886F0C01C96B5E
:102BB000CB6BCC6B0C017A6B0C01CA6B0C01696B93
:102BC0008070DFCFCAFC08D0100EDF5C03E1010E7D
:102BD000C96F02D0CB6BCC6B040EE15C02E2E16A00
:102BE000E552E16EE552E7CFD9FFE552E5CFEAFFC6
:0A2BF000E5CFE9FFE5CFDAFF1100A1
:062BFA00D9CFE6FFE1CF98
:102C0000D9FFFE0EDBCFE6FFDB38F00B106EFE0EB9
:102C1000DB380F0B1010E552E718E76EFE0EE7CF1A
:102C2000DBFFDBCFE6FFFE0EDB40E8403F0BE5526B
:102C3000E718E76EFE0EE7CFDBFFDBCFE6FFDB40FA
:102C40007F0BE552E718E76EFE0EE7CFDBFFDB50A8
:102C5000010B02E0000E01D0010E00D0E552E7CFDB
:102C6000D9FF1200D9CFE6FFE1CFD9FFACAA11D02E
:102C70009EA8FED7FE0EDBCFE6FFBFDFE552E8B031
:102C8000AC80E8A0AC90FE0EDB50AD6E0000ACA2B4
:102C9000FED7E552E7CFD9FF1200D9CFE6FFE1CF4B
:102CA000D9FF020EE126DE6ADD6ADECF10F0DDCF4D
:102CB00011F0FB0EDBCF12F0FC0EDBCF13F0115046
:102CC0001318E8AE02D0133404D01250105C135025
:102CD000115815E2FD0EDBCF10F0FE0EDBCF11F028
:102CE000DE501024E96EDD501120EA6EEF50E66EE2
:102CF000B9DFE552DF2A010E01E3DB2AD6D7000057
:102D0000020EE15C02E2E16AE552E16EE552E7CFD4
:102D1000D9FF1200040EE66EE66A8F0EE66E0C0E08
:102D2000E66EBBDFE552E552E552E552E80EE66E8F
:102D3000030EE66EE66AE66A82EC17F0E552E552AB
:102D4000E552E552060EE66EE66A9C0EE66E0C0E45
:102D5000E66EA3DFE552E552E552E552E80EE66E77
:102D6000030EE66EE66AE66A82EC17F0E552E5527B
:102D7000E552E552070EE66EE66AA20EE66E0C0E0E
:102D8000E66E8BDFE552E552E552E552E80EE66E5F
:102D9000030EE66EE66AE66A82EC17F0E552E5524B
:102DA000E552E552060EE66EE66AA90EE66E0C0ED8
:102DB000E66E73DFE552E552E552E552E80EE66E47
:102DC000030EE66EE66AE66A82EC17F0E552E5521B
:102DD000E552E552050EE66EE66AAF0EE66E0C0EA3
:102DE000E66E5BDFE552E552E552E552E80EE66E2F
:102DF000030EE66EE66AE66A82EC17F0E552E552EB
:102E0000E552E552050EE66EE66AB40EE66E0C0E6D
:102E1000E66E43DFE552E552E552E552E80EE66E16
:102E2000030EE66EE66AE66A82EC17F0E552E552BA
:102E3000E552E552050EE66EE66A8A0EE66E0C0E67
:102E4000E66E2BDFE552E552E552E552E80EE66EFE
:102E5000030EE66EE66AE66A82EC17F0E552E5528A
:062E6000E552E5521200EC
:0A2E66001E0EF66E000EF76E000E51
:102E7000F86E0C010900F550BE6F0900F550BF6FE8
:102E800003E1BE6701D03DD00900F550B96F0900DC
:102E9000F550BA6F0900F550BB6F09000900F550F5
:102EA000E96E0900F550EA6E090009000900F550C5
:102EB000BC6F0900F550BD6F09000900F6CFC0FCDA
:102EC000F7CFC1FCF8CFC2FCB9CCF6FFBACCF7FF04
:102ED000BBCCF8FF0C01BC5302E1BD5307E0090075
:102EE000F550EE6EBC07F8E2BD07F9D7C0CCF6FF8F
:102EF000C1CCF7FFC2CCF8FF0C01BE07000EBF5BD0
:042F0000BFD7120025
:0C2F0400D9CFE6FFE1CFD9FF040EE12693
:102F1000DE6ADE6ADE6ADD6ADD52DD52FB0EDBCF81
:102F200010F0FC0EDBCF11F0FD0EDBCF12F0FE0E29
:102F3000DBCF13F0D9CFE9FFDACFEAFF1050EE5C18
:102F40001150EE581250EE581350EE580AE2D9CFF5
:102F5000E9FFDACFEAFFEE2A000EEE22EE22EE22A1
:102F6000DDD7040EE15C02E2E16AE552E16EE55272
:062F7000E7CFD9FF1200BB
:0A2F760004500902F3CF00F0F4CF7D
:102F800001F00A02F3500126000EF420026E0450F4
:102F90000B02F3500226000EF420036E04500C02C4
:102FA000F350032605500902F3500126F450022283
:102FB000000E032205500A02F3500226F4500322A9
:102FC00005500B02F350032606500902F350022667
:102FD000F450032206500A02F35003260750090258
:062FE000F350032612006D
:0A2FE600DACFE4FFE2CFDAFFE9CF13
:102FF000E4FFEACFE4FFE652A4AA1CD06BA008D0FD
:103000006B906ECF7BFC010E0C017C6F7D6B12D040
:103010006BA204D00C01010E6C6F0CD0000E0C01E1
:103020007C25E96E010E7D21EA6E6ECFEFFF7C2BD1
:10303000000E7D23E552E5CFEAFFE5CFE9FFE5CFBE
:04304000DAFF1100A2
:0C304400036A026A016A006A200EE76E4F
:10305000D890043605360636073600360136023675
:1030600003360950005C0A5001580B5002580C50AE
:10307000035809E30950005E0A50015A0B50025AE6
:0C3080000C50035A042AE72EE4D712007B
:04308C00000EF36ED1
:1030900000EE00F0020E0DD8000EF36E0AEE00F006
:1030A0000F0E07D8000EF36E02EE00F00A0E01D8E4
:1030B0001200EA6002D0EE6AFCD7F350E960120019
:0430C000EE6AFCD7E1
:0C30C4001EEE00F02EEE00F0F86A0F9CEB
:1030D00033EC17F003EC00F094EC10F0FBD7120087
:1030E000FE0EE3CFE9FFFF0EE3CFEAFFF36AF46AD7
:0C30F000EE5203E0F34AF42AFBD7120072
:0430FC00034D4750E9
:103100005381010D000000000000000000000100DC
:1031100000000600000000000000000000000000A9
:10312000000000000000000000000000000000009F
:0931300000000000000000000096
:06313900000000003075EB
:01313F00107F
:1031400027011003100E1003102101100310181096
:103150000310D70201100310D7030100100310A0C1
:0E3160000301100310D501100310F414100326
:020000040030CA
:0100010022DC
:010002000FEE
:010003001EDE
:010005008377
:010006008178
:010008000FE8
:01000900C036
:01000A000FE6
:01000B00E014
:01000C000FE4
:01000D0040B2
:00000001FF
