:020000040800F2
:10000000B82D002091010008990100089B0100080B
:100010009D0100089F010008A101000800000000E8
:10002000000000000000000000000000A301000824
:10003000A501000800000000A7010008A9010008B0
:10004000AB010008AB010008AB010008AB010008E0
:10005000AB010008AB010008AB010008AB010008D0
:10006000AB010008AB010008AB010008AB010008C0
:10007000AB010008AB010008AB010008AB010008B0
:10008000AB010008AB010008AB010008AB010008A0
:10009000AB010008AB010008AB010008AB01000890
:1000A000AB010008AB010008AB010008AB01000880
:1000B000AB010008AB010008AB010008AB01000870
:1000C000AB010008AB010008AB010008AB01000860
:1000D000AB01000829070008AB010008AB010008CC
:1000E000AB010008AB010008AB010008AB01000840
:1000F000AB01000800F002F800F03AF80AA090E81E
:10010000000C82448344AAF10107DA4501D100F0D2
:100110002FF8AFF2090EBAE80F0013F0010F18BF65
:10012000FB1A43F001031847100B0000300B0000CE
:10013000103A24BF78C878C1FAD8520724BF30C813
:1001400030C144BF04680C607047000000230024E5
:1001500000250026103A28BF78C1FBD8520728BFD7
:1001600030C148BF0B6070471FB51FBD10B510BD33
:1001700000F037F81146FFF7F7FF00F091FC00F0B0
:1001800055F803B4FFF7F2FF03BC00F059F8000084
:100190000948804709480047FEE7FEE7FEE7FEE71B
:1001A000FEE7FEE7FEE7FEE7FEE7FEE70448054957
:1001B000054A064B70470000C1060008F50000081C
:1001C000B8270020B82D0020B8290020B829002029
:1001D000704770477047000000487047582700205C
:1001E00070477546FFF7F8FFAE460500694653466F
:1001F00020F00700854618B020B5FFF7D7FFBDE80F
:1002000020404FF000064FF000074FF000084FF07D
:10021000000B21F00701AC46ACE8C009ACE8C0090E
:10022000ACE8C009ACE8C0098D46704710B504467B
:10023000AFF300802046BDE81040FFF7A2BF0000EA
:1002400001491820ABBEFEE726000200F0B50246C9
:100250000B46002100240025002000BF35E00126C8
:1002600006FA01F41E6806EA0405A5422CD11068BE
:100270004F000326BE40B0431E794F00BE403043BE
:1002800010601E79012E02D01E79022E12D19068C4
:100290004F000326BE40B0435E794F00BE4030435E
:1002A0009060908801268E40B0439E798E40B6B211
:1002B00030439080D0684F000326BE40B043DE79C3
:1002C0004F00BE403043D060491C1029C7D3F0BD59
:1002D000F0B5002300244D07ED0E02FA05F3CE1011
:1002E00000F1200555F826504E07F70E0F26BE40A8
:1002F000B543CF1000F1200646F82750CE1000F18C
:10030000200555F8265045EA0304CE1000F12005DB
:1003100045F82640F0BD02460020138A0B400BB181
:10032000012000E00020704741837047018370473F
:1003300010B50121022000F0A3F80121084600F0C9
:100340009FF80121880300F0ABF8012025490871CE
:10035000C0200860022048712348FFF777FF002083
:100360002049087101200860022048711F48FFF7EA
:100370006DFF072209211D48FFF7AAFF07220A2166
:100380001A48FFF7A5FF0220164908710120C8711D
:1003900040020860022048711448FFF757FF02200E
:1003A000104908710020C8714FF480600860022075
:1003B00048710E48FFF74AFF0D4800F048FB4FF424
:1003C000E1300B4908600B4800F0D2FA25200A49B9
:1003D00008700020487088700120C870084600F03E
:1003E0000DF810BD2C000020000402400000024067
:1003F00048270020003801403400002070B500215B
:1004000000230F22C4781CB3174C246804F4E06462
:10041000C4F5E064C4F30721C1F10404E3B20A4166
:1004200044789C40E1B28478144021430C07210EAB
:100430000E4C05786155047804F01F050124AC408A
:1004400005786D11AD0005F1E025C5F8004109E022
:10045000047804F01F050124AC40054D06787611A0
:1004600045F8264070BD00000CED00E000E400E01F
:1004700080E100E0002000E0401C0128FCDB704728
:1004800029B1064A12680243044B1A6004E0034A89
:1004900012688243014B1A60704700001C3802400A
:1004A00029B1064A12680243044B1A6004E0034A69
:1004B00012688243014B1A607047000020380240E6
:1004C000F0B5002100220023002600240025374F2C
:1004D0003F6807F00C0131B1042912D0082913D06C
:1004E0000C2934D113E0314F3F1F3F68C7F3423529
:1004F0006F1C4FF0010C0CFA07FC4FEACC37076079
:1005000033E02B4F076030E02A4F07602DE0274F84
:100510003F6807F47012254F3F6807F44003264FE9
:1005200007EB92473A78012707EB93531F4F3F6839
:1005300007F480362EB91E4F5743B7FBF3F7076019
:1005400004E01C4F5743B7FBF3F707600DE0174F6C
:100550003F1F3F68C7F342356F1C4FF0010C0CFA88
:1005600007FC4FEACC37076000BF00BF0F4F3F6862
:1005700007F0F0010909114F7C5C0768E74047600C
:100580000A4F3F6807F4E061090A0C4F7C5C47683A
:10059000E7408760054F3F6807F46051C90A074F7D
:1005A0007C5C4768E740C760F0BD00000838024047
:1005B0000024F40000127A0000000020090000204E
:1005C00070B505460E4600240BE0295D064800F094
:1005D0003AFA002001E000BF401CB0F5FA7FFADBD8
:1005E000641CB442F1DB70BD003801400CB5002042
:1005F000019000902F48006840F001002D490860EC
:1006000000BF2C48006800F002000090009818B964
:100610000198B0F5A04FF4D12648006800F0020020
:1006200010B10120009001E0002000900098012806
:100630003FD12148006820F001001F4908600846AA
:10064000006820F0020008600846006820F00400FE
:10065000086018482430006840F080501549243163
:100660000860C8141549086000BF1448406800F0CD
:1006700010000028F9D10F48083000680D490831F2
:100680000860084600680860084600680860084678
:10069000006820F0030008600846006840F0010090
:1006A000086000BF03480830006800F00C00042810
:1006B000F8D10CBD00380240003C02400070004000
:1006C00010B51548006840F480701349086012485E
:1006D00008300068114908400F49083108600E4889
:1006E00000680F4908400C4908600846006820F47B
:1006F0008020086008480830006820F47D00064922
:10070000083108600020091D0860FFF76FFF4FF0F7
:1007100000600449086010BD003802400CC0FF882A
:10072000FEFFFEEE08ED00E070B540F225515348A3
:1007300000F0CFF8002875D040F225514F4800F066
:10074000ADF84E4800F07AF9C4B24D480078002860
:1007500069D07E2C09D04B484B49096844544A481B
:100760000068401C4849086086E0FFF783FE00F0FF
:1007700029FA46490860FFF77DFEFFF77BFE4248F5
:10078000006802282DD10120414908703D480078B9
:10079000552804D0CC280ED0FF2821D114E0012008
:1007A00003E0EE213B4A1154401C38490968491EB8
:1007B0008142F6DC14E03848007836494870364803
:1007C0000088000A08700BE030480068401E2F497E
:1007D0000860002030490880FF202E49087000BFC3
:1007E0002CE02848057829480668012003E02549BF
:1007F000095C4D40401C711E8142F8DC701E21498D
:10080000085CA84202D1012021490870FFF732FE9E
:100810001F48007820B120480088401C1E490880ED
:10082000002006E029E022E01649095C194A11542B
:10083000401C164909688842F6DB00BF144800785E
:1008400038B100F065F9054629461248FFF7B8FEB1
:1008500000BF00200A4908700B4908600B49086076
:100860000B49087000F000F900F00CF904E07E2C50
:1008700002D101200249087000BF70BD003801405C
:1008800025000020380000201C000020200000204F
:1008900028000020C01300202600002010B50022F0
:1008A000002340F66A14A14200D100BF0A120124BD
:1008B0009440A3B2DC43048010BD21B1828942F48C
:1008C0000052828104E082894DF6FF731A408281D2
:1008D000704770B50246002400230025002040F632
:1008E0006A16B14200D100BFC1F3421501F01F03E7
:1008F000012606FA03F3012D02D19689334006E062
:10090000022D02D1168A334001E0968A33400C1240
:10091000012606FA04F41688344013B10CB1012004
:1009200000E0002070BDF0B503460024002600253D
:10093000002040F66A17B94200D100BF1846C1F343
:10094000421401F01F06012707FA06F5012C01D118
:100950000C3004E0022C01D1103000E014301AB148
:1009600007682F43076002E00768AF430760F0BDE8
:100970002DE9FF4705460E460024A14600BFA046CC
:10098000B08900B100BF2C8A24F44054F08804439D
:100990002C82AC8941F20C608443B08831890843D1
:1009A000718908430443AC81AC8A24F44074B08953
:1009B0000443AC826846FFF783FD1F48854202D19D
:1009C000DDF80C9001E0DDF80890A88900F4004003
:1009D00040B109EBC90000EB091031684900B0FBD8
:1009E000F1F707E009EBC90000EB09103168890055
:1009F000B0FBF1F76420B7FBF0F00401200964219B
:100A000001FB1078A88900F4004040B1322000EBCF
:100A1000C800B0FBF1F000F00700044308E032200A
:100A200000EB08106421B0FBF1F000F00F0004436C
:100A30002C81BDE8FF87000000380140014688880E
:100A4000C0F308007047C1F30802828070474FF47A
:100A50001651016000218180C18001810C214181FA
:100A60000021818170470000002003E00021044A3A
:100A70001154401C41F288318842F7DB7047000076
:100A800038000020002003E00021044A1154401CDB
:100A900041F288318842F7DB70470000C013002024
:100AA000FFF7E2FFFFF744FC012240F22551154811
:100AB000FFF739FF01211348FFF7FFFE802112489D
:100AC000FFF734FC01251BE001211048FFF723FC50
:100AD0000446012C0AD140210B48FFF727FC802156
:100AE0000948FFF721FC5DB1002509E08021064897
:100AF000FFF71CFC40210448FFF716FC05B901254F
:100B0000E2E700000038014000040240000002401B
:100B100000B5ADF59E5D002003E0FF210EAB19543A
:100B2000401C41F288318842F7DB002004E0234971
:100B3000095C0EAB1954401C214909688842F6DB58
:100B4000FFF798FC7E201D4908700122002023E059
:100B50000EA9095C7D2903D00EA9095C7E2915D157
:100B60007D21164B9954521C0EA9095C01F02001FD
:100B700029B10EA9095C21F0200199540AE00EA9BF
:100B8000095C41F020010D4B995403E00EA9095C6A
:100B90000A4B9954521C401C094909688842D7DB0A
:100BA000FFF768FC7E2005498854501C0449086002
:100BB000084600680DF59E5D00BD0000C0130020D2
:100BC0002000002010B51A480268FFF753FC0020EF
:100BD00029E01849095C7D2924D1164B411C595C38
:100BE00001F0200139B1411C595C21F02003114C66
:100BF000411C635407E00F4B411C595C41F020033A
:100C00000C4C411C6354014604E00A4C4B1CE35C51
:100C10006354491C531E8B42F7DC0023511E054CC4
:100C20006354521E401C9042D3DB104610BD00009E
:100C30001C00002038000020580C00080000002094
:100C40003800000030010008900C00083800002037
:100C5000802D00004C010008030406080C10182029
:100C6000300000000001020304010203040607082B
:100C7000090000000000000000000000FF0000006C
:100C80000000000000000000000000000000000064
:04000005080000F5FA
:00000001FF
