:020000040800F2
:10000000B806002091010008990100089B01000832
:100010009D0100089F010008A101000800000000E8
:10002000000000000000000000000000A301000824
:10003000A501000800000000A7010008A9010008B0
:10004000AB010008AB010008AB010008AB010008E0
:10005000AB010008AB010008AB010008AB010008D0
:10006000AB010008AB010008AB010008AB010008C0
:10007000AB010008AB010008AB010008AB010008B0
:10008000AB010008AB010008AB010008AB010008A0
:10009000AB010008AB010008AB010008AB01000890
:1000A000AB010008AB010008AB010008AB01000880
:1000B000AB010008AB010008AB010008AB01000870
:1000C000AB010008AB010008AB010008AB01000860
:1000D000AB01000829070008AB010008AB010008CC
:1000E000AB010008AB010008AB010008AB01000840
:1000F000AB01000800F002F800F03AF80AA090E81E
:10010000000C82448344AAF10107DA4501D100F0D2
:100110002FF8AFF2090EBAE80F0013F0010F18BF65
:10012000FB1A43F001031847C80A0000E80A000060
:10013000103A24BF78C878C1FAD8520724BF30C813
:1001400030C144BF04680C607047000000230024E5
:1001500000250026103A28BF78C1FBD8520728BFD7
:1001600030C148BF0B6070471FB51FBD10B510BD33
:1001700000F037F81146FFF7F7FF00F079FC00F0C8
:1001800055F803B4FFF7F2FF03BC00F059F8000084
:100190000948804709480047FEE7FEE7FEE7FEE71B
:1001A000FEE7FEE7FEE7FEE7FEE7FEE70448054957
:1001B000054A064B70470000C1060008F50000081C
:1001C000B8000020B8060020B8020020B8020020C5
:1001D0007047704770470000004870475800002083
:1001E00070477546FFF7F8FFAE460500694653466F
:1001F00020F00700854618B020B5FFF7D7FFBDE80F
:1002000020404FF000064FF000074FF000084FF07D
:10021000000B21F00701AC46ACE8C009ACE8C0090E
:10022000ACE8C009ACE8C0098D46704710B504467B
:10023000AFF300802046BDE81040FFF7A2BF0000EA
:1002400001491820ABBEFEE726000200F0B50246C9
:100250000B46002100240025002000BF35E00126C8
:1002600006FA01F41E6806EA0405A5422CD11068BE
:100270004F000326BE40B0431E794F00BE403043BE
:1002800010601E79012E02D01E79022E12D19068C4
:100290004F000326BE40B0435E794F00BE4030435E
:1002A0009060908801268E40B0439E798E40B6B211
:1002B00030439080D0684F000326BE40B043DE79C3
:1002C0004F00BE403043D060491C1029C7D3F0BD59
:1002D000F0B5002300244D07ED0E02FA05F3CE1011
:1002E00000F1200555F826504E07F70E0F26BE40A8
:1002F000B543CF1000F1200646F82750CE1000F18C
:10030000200555F8265045EA0304CE1000F12005DB
:1003100045F82640F0BD02460020138A0B400BB181
:10032000012000E00020704741837047018370473F
:1003300010B50121022000F0A3F80121084600F0C9
:100340009FF80121880300F0ABF8012025490871CE
:10035000C0200860022048712348FFF777FF002083
:100360002049087101200860022048711F48FFF7EA
:100370006DFF072209211D48FFF7AAFF07220A2166
:100380001A48FFF7A5FF0220164908710120C8711D
:1003900040020860022048711448FFF757FF02200E
:1003A000104908710020C8714FF480600860022075
:1003B00048710E48FFF74AFF0D4800F028FB4FF444
:1003C000E1300B4908600B4800F0B2FA25200A49D9
:1003D00008700020487088700120C870084600F03E
:1003E0000DF810BD2800002000040240000002406B
:1003F00048000020003801403000002070B5002186
:1004000000230F22C4781CB3174C246804F4E06462
:10041000C4F5E064C4F30721C1F10404E3B20A4166
:1004200044789C40E1B28478144021430C07210EAB
:100430000E4C05786155047804F01F050124AC408A
:1004400005786D11AD0005F1E025C5F8004109E022
:10045000047804F01F050124AC40054D06787611A0
:1004600045F8264070BD00000CED00E000E400E01F
:1004700080E100E0002000E0401C0128FCDB704728
:1004800029B1064A12680243044B1A6004E0034A89
:1004900012688243014B1A60704700001C3802400A
:1004A00029B1064A12680243044B1A6004E0034A69
:1004B00012688243014B1A607047000020380240E6
:1004C000F0B5002100220023002600240025374F2C
:1004D0003F6807F00C0131B1042912D0082913D06C
:1004E0000C2934D113E0314F3F1F3F68C7F3423529
:1004F0006F1C4FF0010C0CFA07FC4FEACC37076079
:1005000033E02B4F076030E02A4F07602DE0274F84
:100510003F6807F47012254F3F6807F44003264FE9
:1005200007EB92473A78012707EB93531F4F3F6839
:1005300007F480362EB91E4F5743B7FBF3F7076019
:1005400004E01C4F5743B7FBF3F707600DE0174F6C
:100550003F1F3F68C7F342356F1C4FF0010C0CFA88
:1005600007FC4FEACC37076000BF00BF0F4F3F6862
:1005700007F0F0010909114F7C5C0768E74047600C
:100580000A4F3F6807F4E061090A0C4F7C5C47683A
:10059000E7408760054F3F6807F46051C90A074F7D
:1005A0007C5C4768E740C760F0BD00000838024047
:1005B0000024F40000127A0000000020090000204E
:1005C00070B505460E4600240BE0295D064800F094
:1005D0001AFA002001E000BF401CB0F5FA7FFADBF8
:1005E000641CB442F1DB70BD003801400CB5002042
:1005F000019000902F48006840F001002D490860EC
:1006000000BF2C48006800F002000090009818B964
:100610000198B0F5A04FF4D12648006800F0020020
:1006200010B10120009001E0002000900098012806
:100630003FD12148006820F001001F4908600846AA
:10064000006820F0020008600846006820F00400FE
:10065000086018482430006840F080501549243163
:100660000860C8141549086000BF1448406800F0CD
:1006700010000028F9D10F48083000680D490831F2
:100680000860084600680860084600680860084678
:10069000006820F0030008600846006840F0010090
:1006A000086000BF03480830006800F00C00042810
:1006B000F8D10CBD00380240003C02400070004000
:1006C00010B51548006840F480701349086012485E
:1006D00008300068114908400F49083108600E4889
:1006E00000680F4908400C4908600846006820F47B
:1006F0008020086008480830006820F47D00064922
:10070000083108600020091D0860FFF76FFF4FF0F7
:1007100000600449086010BD003802400CC0FF882A
:10072000FEFFFEEE08ED00E070B540F225514448B2
:1007300000F0AFF8002879D040F22551404800F091
:100740008DF83F4800F05AF9C4B23E4800780028BE
:100750006ED07E2C09D03C483C49096844543B4843
:100760000068401C3949086067E0FFF783FE00F02D
:100770000BFA37490860FFF77DFEFFF77BFE334831
:10078000006801282FD130480078552804D0CC28A3
:1007900013D0FF2826D11EE02D480068401C2C49AC
:1007A0000860012003E0EE212A4A1154401C284928
:1007B0000968491E8142F6DC14E025480068401CA7
:1007C000234908602448007822490870224800889C
:1007D000000A487006E000201F490880FF201D49DC
:1007E000087000BF0FE01C480088401C1A490880B0
:1007F000002004E01449095C164A1154401C1449B5
:1008000009688842F6DB00F06BF905462946114875
:10081000FFF7D6FE00200B4908700C4908600C4910
:10082000086000F00DF900F017F906E006E0FFE7B8
:100830007E2C02D101200349087000BF70BD00006A
:100840000038014025000020340000201C0000205A
:10085000200000203E0000202600002010B50022CD
:10086000002340F66A14A14200D100BF0A120124FD
:100870009440A3B2DC43048010BD21B1828942F4CC
:100880000052828104E082894DF6FF731A40828112
:10089000704770B50246002400230025002040F672
:1008A0006A16B14200D100BFC1F3421501F01F0327
:1008B000012606FA03F3012D02D19689334006E0A2
:1008C000022D02D1168A334001E0968A33400C1281
:1008D000012606FA04F41688344013B10CB1012045
:1008E00000E0002070BDF0B503460024002600257E
:1008F000002040F66A17B94200D100BF1846C1F384
:10090000421401F01F06012707FA06F5012C01D158
:100910000C3004E0022C01D1103000E014301AB188
:1009200007682F43076002E00768AF430760F0BD28
:100930002DE9FF4705460E460024A14600BFA0460C
:10094000B08900B100BF2C8A24F44054F0880443DD
:100950002C82AC8941F20C608443B0883189084311
:10096000718908430443AC81AC8A24F44074B08993
:100970000443AC826846FFF7A3FD1F48854202D1BD
:10098000DDF80C9001E0DDF80890A88900F4004043
:1009900040B109EBC90000EB091031684900B0FB18
:1009A000F1F707E009EBC90000EB09103168890095
:1009B000B0FBF1F76420B7FBF0F0040120096421DB
:1009C00001FB1078A88900F4004040B1322000EB10
:1009D000C800B0FBF1F000F00700044308E032204B
:1009E00000EB08106421B0FBF1F000F00F000443AD
:1009F0002C81BDE8FF87000000380140014688884F
:100A0000C0F308007047C1F30802828070474FF4BA
:100A10001651016000218180C18001810C2141813A
:100A200000218181704701460022002000BF0B5C3D
:100A30000BB9024601E0401CF9E700BF10467047C1
:100A4000002003E00021034A1154401C0A28F9DB6E
:100A50007047000034000020002003E00021034A1A
:100A60001154401C0A28F9DB704700003E000020AA
:100A7000FFF7E6FFFFF75CFC012240F22551154825
:100A8000FFF731FF01211348FFF7F7FE80211248DD
:100A9000FFF74CFC01251BE001211048FFF73BFC50
:100AA0000446012C0AD140210B48FFF73FFC80216E
:100AB0000948FFF739FC5DB1002509E080210648AF
:100AC000FFF734FC40210448FFF72EFC05B901254F
:100AD000E2E700000038014000040240000002404C
:100AE0000EB5002003E0FF210DF80010401C0A287D
:100AF000F9DB002004E02249095C0DF80010401CDD
:100B0000204909688842F6DBFFF7B4FC7E201C49C7
:100B100008700122002023E01DF800107D2903D079
:100B20001DF800107E2915D17D21154B9954521CBA
:100B30001DF8001001F0200129B11DF8001021F06E
:100B4000200199540AE01DF8001041F020010C4BDF
:100B5000995403E01DF80010094B9954521C401C95
:100B6000084909688842D7DBFFF784FC7E200449E6
:100B70008854501C03490860084600680EBD0000F8
:100B80003E0000202000002010B51848FFF74BFF62
:100B90000446002025E01549095C7D2920D1134A2F
:100BA000411C515C01F0200139B1411C515C21F024
:100BB00020020E4B411C5A5407E00C4A411C515C68
:100BC00041F02002094B411C5A54014604E0074BF6
:100BD0004A1C9A5C5A54491C621E8A42F7DC641E05
:100BE000401CA042D7DB204610BD0000340000208E
:100BF000100C000800000020340000003001000844
:100C0000440C000834000020840600004C01000859
:100C1000030406080C101820300000000001020335
:100C20000401020304060708090000000000000098
:100C300000000000FF0000000000000000000000B5
:040C400000000000B0
:04000005080000F5FA
:00000001FF
