:020000040800F2
:10000000C82D002099010008A1010008A3010008E3
:10001000A5010008A7010008A901000800000000D0
:10002000000000000000000000000000AB0100081C
:10003000AD01000800000000AF010008B101000898
:10004000B3010008B3010008B3010008B3010008C0
:10005000B3010008B3010008B3010008B3010008B0
:10006000B3010008B3010008B3010008B3010008A0
:10007000B3010008B3010008B3010008B301000890
:10008000B3010008B3010008B3010008B301000880
:10009000B3010008B3010008B3010008B301000870
:1000A000B3010008B3010008B3010008B301000860
:1000B000B3010008B3010008B3010008B301000850
:1000C000B3010008B3010008B3010008B301000840
:1000D000B30100085D090008B3010008B30100087E
:1000E000B3010008B3010008B3010008B301000820
:1000F000B301000800F002F800F03EF80AA090E812
:10010000000C82448344AAF10107DA4501D100F0D2
:1001100033F8AFF2090EBAE80F0013F0010F18BF61
:10012000FB1A43F001031847800C0000A00C0000EC
:10013000103A24BF78C878C1FAD8520724BF30C813
:1001400030C144BF04680C607047000000230024E5
:1001500000250026103A28BF78C1FBD8520728BFD7
:1001600030C148BF0B6070471FB59DE8030000F029
:10017000A9F81FBD10B510BD00F000F91146FFF73A
:10018000F3FF00F0BDFD00F01EF903B4FFF7F2FF2E
:1001900003BC00F04FF900000948804709480047B8
:1001A000FEE7FEE7FEE7FEE7FEE7FEE7FEE7FEE727
:1001B000FEE7FEE704480549054A064B7047000084
:1001C000F5080008F5000008C8270020C82D002009
:1001D000C8290020C829002070B5064600F056F84E
:1001E000056806F10B0020F00704B4429CBF002014
:1001F00070BD2B466A68BAB11068A04210D304F1F2
:10020000080188423CBF5068586007D351681019F4
:1002100041601168091B016058601460101D70BDB9
:1002200013465268002AE7D12146284600F036F8E6
:100230000028DED170BD70B50446051F00F026F819
:100240000068002C14BF446870BD002C18BFAC427D
:100250003CBF20466468F8D301680A18AA4218BF58
:10026000456003D12A680546114401602868411998
:10027000A1421CBF6C6070BD616869602168084460
:10028000286070BD70477047704700000048704795
:1002900070270020704770477047704738B5044694
:1002A0000A4600206946AFF30080002808BF38BD29
:1002B00002460099204600F03FF8012038BD012099
:1002C00000F054B8F8B5AFF30080054600200C46A6
:1002D000102000BF0646A819A0420DD93246694633
:1002E0000020AFF30080070008BF00F03FF800983F
:1002F000A04218BF0546C419FFF7C8FF05600746AE
:10030000F01D20F007004619284600F00AF8B44214
:1003100008BFF8BDA21B31463868BDE8F84000F0C0
:100320000BB800210160C0E9011070471020704730
:100330000048704768270020034640688C46002824
:1003400018BF88423CBF03464068F8D31868184479
:10035000884207D00CF1030020F00700001D411A6D
:10036000521A0146081D0A60FFF765BF10B500F07C
:1003700039F8BDE8104000F02FB870477546FFF718
:10038000D7FFAE4605006946534620F00700854674
:1003900018B020B5FFF70EFFBDE820404FF0000673
:1003A0004FF000074FF000084FF0000B21F007015D
:1003B000AC46ACE8C009ACE8C009ACE8C009ACE8A0
:1003C000C0098D46704710B50446AFF30080204643
:1003D000BDE81040FFF7D9BE002801D000F02AB8D0
:1003E0007047000010B5012805D0002103A000F0DF
:1003F00027F8012010BD09A1F8E700005349475232
:10040000544D454D3A204F7574206F6620686561E4
:1004100070206D656D6F7279000000003A204865AC
:100420006170206D656D6F727920636F7272757087
:100430007465640001491820ABBEFEE72600020087
:1004400070B505460C460A2000E06D1C00F011F85E
:1004500035B128780028F8D102E0641C00F009F8D2
:1004600014B120780028F8D1BDE870400A20AFF31D
:10047000008008B569468DF800000320ABBE08BDBA
:10048000F0B502460B46002100240025002000BFE5
:1004900035E0012606FA01F41E6806EA0405A542C5
:1004A0002CD110684F000326BE40B0431E794F0088
:1004B000BE40304310601E79012E02D01E79022EFC
:1004C00012D190684F000326BE40B0435E794F00C2
:1004D000BE4030439060908801268E40B0439E79A4
:1004E0008E40B6B230439080D0684F000326BE40A5
:1004F000B043DE794F00BE403043D060491C102924
:10050000C7D3F0BDF0B5002300244D07ED0E02FA6D
:1005100005F3CE1000F1200555F826504E07F70ED2
:100520000F26BE40B543CF1000F1200646F82750F5
:10053000CE1000F1200555F8265045EA0304CE10F0
:1005400000F1200545F82640F0BD02460020138A40
:100550000B400BB1012000E0002070474183704741
:100560000183704710B50121022000F0A3F801219A
:10057000084600F09FF80121880300F0ABF8012045
:1005800025490871C0200860022048712348FFF700
:1005900077FF00202049087101200860022048717F
:1005A0001F48FFF76DFF072209211D48FFF7AAFF2B
:1005B00007220A211A48FFF7A5FF022016490871F1
:1005C0000120C87140020860022048711448FFF7FA
:1005D00057FF0220104908710020C8714FF4806055
:1005E0000860022048710E48FFF74AFF0D4800F0EE
:1005F0006CFB4FF4E1300B4908600B4800F0F6FA51
:1006000025200A4908700020487088700120C870B1
:10061000084600F00DF810BD340000200004024030
:100620000000024058270020003801403C00002014
:1006300070B5002100230F22C4781CB3174C246826
:1006400004F4E064C4F5E064C4F30721C1F10404D8
:10065000E3B20A4144789C40E1B2847814402143DB
:100660000C07210E0E4C05786155047804F01F0527
:100670000124AC4005786D11AD0005F1E025C5F809
:10068000004109E0047804F01F050124AC40054D49
:100690000678761145F8264070BD00000CED00E0AC
:1006A00000E400E080E100E0002000E0401C0128C0
:1006B000FCDB704729B1064A12680243044B1A60FA
:1006C00004E0034A12688243014B1A60704700003D
:1006D0001C38024029B1064A12680243044B1A60D2
:1006E00004E0034A12688243014B1A60704700001D
:1006F00020380240F0B5002100220023002600240B
:100700000025374F3F6807F00C0131B1042912D0A2
:10071000082913D00C2934D113E0314F3F1F3F6813
:10072000C7F342356F1C4FF0010C0CFA07FC4FEA7F
:10073000CC37076033E02B4F076030E02A4F07606B
:100740002DE0274F3F6807F47012254F3F6807F4EC
:100750004003264F07EB92473A78012707EB935364
:100760001F4F3F6807F480362EB91E4F5743B7FB23
:10077000F3F7076004E01C4F5743B7FBF3F707603C
:100780000DE0174F3F1F3F68C7F342356F1C4FF016
:10079000010C0CFA07FC4FEACC37076000BF00BF22
:1007A0000F4F3F6807F0F0010909114F7C5C0768A3
:1007B000E74047600A4F3F6807F4E061090A0C4FC1
:1007C0007C5C4768E7408760054F3F6807F46051ED
:1007D000C90A074F7C5C4768E740C760F0BD00006E
:1007E000083802400024F40000127A0000000020C3
:1007F0000900002070B505460E4600240BE0295D77
:10080000064800F05EFA002001E000BF401CB0F591
:10081000FA7FFADB641CB442F1DB70BD00380140A2
:100820000CB50020019000902F48006840F00100B6
:100830002D49086000BF2C48006800F002000090BD
:10084000009818B90198B0F5A04FF4D12648006877
:1008500000F0020010B10120009001E000200090A3
:10086000009801283FD12148006820F001001F496D
:1008700008600846006820F002000860084600682A
:1008800020F00400086018482430006840F08050D0
:10089000154924310860C8141549086000BF144880
:1008A000406800F010000028F9D10F4808300068B7
:1008B0000D4908310860084600680860084600686D
:1008C00008600846006820F00300086008460068D9
:1008D00040F00100086000BF03480830006800F0E5
:1008E0000C000428F8D10CBD00380240003C024046
:1008F0000070004010B51548006840F4807013493E
:100900000860124808300068114908400F49083152
:1009100008600E4800680F4908400C490860084606
:10092000006820F48020086008480830006820F43F
:100930007D000649083108600020091D0860FFF7A6
:100940006FFF4FF000600449086010BD003802409E
:100950000CC0FF88FEFFFEEE08ED00E02DE9F0413F
:1009600040F22551614800F0F2F800287ED040F2B4
:1009700025515E4800F0D0F85C4800F09DF9C5B202
:100980005B480078002872D05A485B490968455492
:1009900059480068401C5849086008460068022809
:1009A00008D1544840785349097840EA21205349F6
:1009B000088095E05048016850480088801C8142BA
:1009C000F7D14E4806883046FFF706FC04464B48F0
:1009D000008802282AD147480078552804D0CC281E
:1009E0000ED0FF2821D114E0012003E0EE21444A7B
:1009F0001154401C43490968491E8142F6DC14E049
:100A0000414800783E4948703F480088000A087015
:100A10000BE03C480068401E3A49086000203A4913
:100A20000880FF203649087000BF22E0002004E063
:100A3000304B821C9A5C2254401C304A12889042EF
:100A4000F6DB2178012002E0225C5140401C2B4A59
:100A50001288521E8242F7DC28480088401E205C23
:100A6000884202D10120294A107001E03BE022E0D7
:100A700000BF2648007878B123480088401C2249EE
:100A800008801E480188204600F072F90746394662
:100A90001B48FFF7AFFE00BFFFF706FE0020174917
:100AA00008801549086012490870194908602046F5
:100AB000FFF7C1FB14E0AA2D09D116480078AA2837
:100AC00008D113480068401C1149086002E000206A
:100AD0000F4908600E480068012801D104490870D8
:100AE0000C48057000BFBDE8F081000000380140EF
:100AF0002D000020400000202400002032000020B3
:100B0000CC130020280000202E0000203000002000
:100B1000200000202C00002010B50022002340F609
:100B20006A14A14200D100BF0A1201249440A3B26A
:100B3000DC43048010BD21B1828942F400528281DD
:100B400004E082894DF6FF731A408281704770B5C8
:100B50000246002400230025002040F66A16B14218
:100B600000D100BFC1F3421501F01F03012606FAB0
:100B700003F3012D02D19689334006E0022D02D104
:100B8000168A334001E0968A33400C12012606FA99
:100B900004F41688344013B10CB1012000E00020A9
:100BA00070BDF0B50346002400260025002040F665
:100BB0006A17B94200D100BF1846C1F3421401F0D0
:100BC0001F06012707FA06F5012C01D10C3004E0BD
:100BD000022C01D1103000E014301AB107682F4305
:100BE000076002E00768AF430760F0BD2DE9FF47EB
:100BF00005460E460024A14600BFA046B08900B1BC
:100C000000BF2C8A24F44054F08804432C82AC8921
:100C100041F20C608443B0883189084371890843EC
:100C20000443AC81AC8A24F44074B0890443AC82A0
:100C30006846FFF75FFD1F48854202D1DDF80C9042
:100C400001E0DDF80890A88900F4004040B109EB0C
:100C5000C90000EB091031684900B0FBF1F707E06B
:100C600009EBC90000EB091031688900B0FBF1F70E
:100C70006420B7FBF0F004012009642101FB107827
:100C8000A88900F4004040B1322000EBC800B0FB5E
:100C9000F1F000F00700044308E0322000EB0810F8
:100CA0006421B0FBF1F000F00F0004432C81BDE89B
:100CB000FF8700000038014001468888C0F3080023
:100CC0007047C1F30802828070474FF416510160EB
:100CD00000218180C18001810C214181002181811D
:100CE00070470000002003E00021044A1154401C1A
:100CF00041F288318842F7DB704700004000002055
:100D0000FFF7F0FFFFF72EFC012240F225511548B6
:100D1000FFF747FF01211348FFF70DFF802112481D
:100D2000FFF71EFC01251BE001211048FFF70DFC19
:100D30000446012C0AD140210B48FFF711FC802109
:100D40000948FFF70BFC5DB1002509E0802106484A
:100D5000FFF706FC40210448FFF700FC05B9012518
:100D6000E2E70000003801400004024000000240B9
:100D700030B50246002003E0AA230A4C2354401C4D
:100D80000228F9DB080A074B9870D970002004E0AC
:100D9000145C031D034DEC54401C8842F8DB081D15
:100DA00030BD0000CC130020C80D0008000000205A
:100DB0004000000030010008080E0008400000203C
:100DC000882D00004C010008030406080C101820B0
:100DD00030000000000102030401020304060708BA
:100DE00009000000000000000000000000000000FA
:100DF00000000000000000000000000000000000F3
:080E00000000000000000000EA
:04000005080000F5FA
:00000001FF
