:020000040000FA
:060000007DEF19F0120073
:020006001200E6
:060008000EEF19F01200DA
:02000E0010F4EC
:03001000141003C6
:04001300100E1003B8
:0600180040EF15F012009C
:02001E000500DB
:100020007C330000440D00002F00000076330000F8
:10003000830D00000600000032330000000D0000B8
:1000400044000000130000008E0D000004000000BA
:0C0050000E000000890D000005000000FB
:04005C00D9CFE6FF13
:10006000E1CFD9FF240EE126090EDB6A0A0EDB6A16
:100070000B0EDB6A0C0EDB6A0D0EDB6A0E0EDB6A02
:100080000F0EDB6A100EDB6A110EDB6A120EDB6AE2
:10009000130EDB6A140EDB6A150EDB6A160EDB6AC2
:1000A000170EDB6A180EDB6A190EDB6A1A0EDB6AA2
:1000B0001B0EDB6A010E01C1DBFF010EDBCFE6FF89
:1000C000010EDB40E840E8401F0BE552E7240F0B30
:1000D000DF6E030EDB6A040EDB6A030EDBCF10F06B
:1000E000040EDBCF11F0D890115004E6200E105C06
:1000F000000E115811E2030EDBCFE9FF040EDBCF37
:10010000EAFF140EE926010EEA22EF6A030EDB2A4B
:10011000040E01E3DB2AE1D7010EDB040CE1000E43
:10012000DB88DB8ADFCF14F107CD15F108CD10F0A5
:10013000116A10C016F1010EDB5007080CE1000E29
:10014000DB88DB8ADFCF14F105CD15F106CD10F089
:10015000116A10C016F1010EDB5055081AE1000EAD
:10016000DB88DB8ADFCF14F109CD15F10ACD10F061
:10017000116A10C016F10BCD17F10CCD10F0116AF9
:1001800010C018F10DCD19F10ECD10F0116A10C08C
:100190001AF1010EDB50060842E1000EDB88DB8A13
:1001A000DFCF14F104CD15F103CD16F102CD17F117
:1001B00001CD18F1010EE66E0D0EE66E8BEC19F016
:1001C000E552E552F3CF10F0F4CF11F0010E1026F6
:1001D000000E1122030E10C0DBFF040E11C0DBFF66
:1001E000030EDBCF10F0040EDBCF11F0D8901150CE
:1001F00004E6060E105C000E115811E2030EDBCF70
:10020000E9FF040EDBCFEAFF140EE926010EEA2215
:10021000EF6A030EDB2A040E01E3DB2AE1D7010EAD
:10022000DB50880805E1000EDFCF14F102C11BFD91
:10023000010EDB508A0862E1060EF36E220EF3CF48
:10024000DBFF230EDB6A220EDBCF10F0230EDBCFA9
:1002500011F0D890115004E60B0E105C020E1158EC
:1002600032E2220EDBCFE9FF230EDBCFEAFFA60E40
:10027000E926060EEA22EF500101025D1AE1010EA5
:10028000E76E220EDBCFE9FF230EDBCFEAFFE7505C
:10029000E926000EEA22A60EE926060EEA22EF5013
:1002A0000101035D06E1010EF36E090EF3CFDBFFE2
:1002B0000AD0D950220FE96EDACFEAFF060EEE26F9
:1002C000000EED22C0D7090EDB5010E1000E02C176
:1002D0007DFD03C17EFD0D01235104E00D01010EE2
:1002E000266F03D00D01010E246F06D0000EDB8AAD
:1002F000DB8CDB8E090EDB6ADFCF14F1010EDB50E5
:100300008B0809E1000EDFCF14F10D01235103E04A
:100310000D01010E256F010EDB50140801E0B0D075
:10032000000EDB88DB8ADFCF14F1020EDB6A0D01E1
:100330002A5102E0020EDB800D0127510FE1EDECA6
:100340000DF0106E116AD89010361136020EDBCF08
:10035000E7FF1050E712020EE7CFDBFF0D0101515E
:100360000601A65D11E10D0102510601A75D0CE138
:100370000D0103510601A85D07E10D0104510601BD
:10038000A95D02E1020EDB840D012C5102E1020E97
:10039000DB860D01275163E1030EDB6A040EDB6A85
:1003A000030EDBCF10F0040EDBCF11F0D89011500C
:1003B00004E6040E105C000E115814E2D9501E0F12
:1003C000106EDACF11F0030EDB501024E96E040E2C
:1003D000DB501120EA6EEF6A030EDB2A040E01E304
:1003E000DB2ADED78B949F0EC96EC7A0FED7030E03
:1003F000DB6A040EDB6A030EDBCF10F0040EDBCFEA
:1004000011F0D890115004E6040E105C000E115843
:1004100018E2C96AC7A0FED7D9501E0F106EDACFF6
:1004200011F0030EDB501024E96E040EDB50112096
:10043000EA6EC9CFEFFF030EDB2A040E01E3DB2ACD
:10044000DAD78B841E0EDB501F0809E11F0EDB502C
:10045000270805E1200EDB0402E1020EDB880D0116
:100460002B5103E0020EDB8A01D0020E0D01275151
:1004700003E0020EDB8C01D0020E020EDBCF15F181
:10048000010EDB508C0806E1000EDFCF14F10D01E8
:10049000010E296F010EDB50900806E1000EDFCF40
:1004A00014F10D01010E3F6F010EDB500D0801E04C
:1004B000BAD002C17DFD03C17EFD030EDB6A040ECE
:1004C000DB6A030EDBCF10F0040EDBCF11F0D89007
:1004D000115004E60B0E105C020E115848E2030E98
:1004E000DBCFE9FF040EDBCFEAFFA60EE926060EFE
:1004F000EA22EF500D017D5D30E1010EE76E030E43
:10050000DBCFE9FF040EDBCFEAFFE750E926000E60
:10051000EA22A60EE926060EEA22EF500D017E5DC4
:100520001CE1010EF36E0C0EF3CFDBFF030EDBCFED
:10053000E6FF040EDBCFE6FF01EC0DF0E552E552DD
:100540000D0E04C0DBFF0E0E05C0DBFF0F0E06C054
:10055000DBFF100E07C0DBFF0AD0D950030FE96E96
:10056000DACFEAFF060EEE26000EED22AAD70C0E19
:10057000DB5049E0000EDB88DB8A0D0EDBCF10F08C
:100580000E0EDBCF11F00F0EDBCF12F0100EDBCF13
:1005900013F0180ED8901332123211321032E806CE
:1005A000F9E110C018F10D0EDBCF10F00E0EDBCF0D
:1005B00011F00F0EDBCF12F0100EDBCF13F0100E88
:1005C000D8901332123211321032E806F9E110C01D
:1005D00017F10D0EDBCF10F00E0EDBCF11F00F0E6A
:1005E000DBCF12F0100EDBCF13F0080ED8901332D1
:1005F000123211321032E806F9E110C016F10D0E78
:10060000DBCF15F10CD0000EDB8ADB8CDB8E010119
:10061000156B0101166B0101176B0101186BDFCF20
:1006200014F10C0EDB6A010EDB50110801E06BD2F5
:10063000000002C17DFD03C17EFD000007C110F076
:10064000116A126A136A180E1F0B07E0D890103651
:10065000113612361336E806F9E106C114F0156AB0
:10066000166A176A100E1F0B07E0D890143615365D
:1006700016361736E806F9E114501012155011120B
:10068000165012121750131205C118F0196A1A6A7F
:100690001B6A080E1F0B07E0D890183619361A3659
:1006A0001B36E806F9E118501012195011121A50B1
:1006B00012121B50131204C11CF01D6A1E6A1F6A1D
:1006C0001C5010121D5011121E5012121F501312E6
:1006D000120E10C0DBFF130E11C0DBFF140E12C090
:1006E000DBFF150E13C0DBFF00000000060EF36EEB
:1006F000030EF3CFDBFF040EDB6A030EDBCF10F03B
:10070000040EDBCF11F0D890115004E60B0E105CF4
:10071000020E115801E3BFD00000030EDBCFE9FF4A
:10072000040EDBCFEAFFA60EE926060EEA22EF5002
:100730000D017D5D01E0A5D0010EE76E030EDBCF5C
:10074000E9FF040EDBCFEAFFE750E926000EEA22BC
:10075000A60EE926060EEA22EF500D017E5D01E0AD
:1007600090D00000030EDBCFE6FF040EDBCFE6FFE8
:1007700001EC0DF0E552E5520D0E04C0DBFF0E0E4C
:1007800005C0DBFF0F0E06C0DBFF100E07C0DBFF4E
:100790000D0EDBCF10F00E0EDBCF11F00F0EDBCF06
:1007A00012F0100EDBCF13F0180E096E0A6A0B6AF6
:1007B0000C6A10C004F011C005F012C006F013C09E
:1007C00007F03DEC19F004C010F005C011F006C0B0
:1007D00012F007C013F0D950120FE96EDACFEAFF1A
:1007E000EE50105CEE501158EE501258EE50135867
:1007F00047E3D950120FE96EDACFEAFFD880000E36
:10080000EE54000EEE54000EEE54000EEE5438E29C
:100810000000010EF36E110EF3CFDBFF020EE76E48
:10082000030EDBCFE9FF040EDBCFEAFFE750E9263A
:10083000000EEA22A60EE926060EEA22EFCF12F0FB
:1008400012C013F0126A030EE76E030EDBCFE9FF4E
:10085000040EDBCFEAFFE750E926000EEA22A60EDF
:10086000E926060EEA22EF5000011210106E13C0A6
:1008700011F00A0E10C0DBFF0B0E11C0DBFF0000F1
:100880000AD0D950030FE96EDACFEAFF060EEE2642
:10089000000EED2232D7110EDB5001E104D1000031
:1008A000000EDB88DB8AD950120FE96EDACFEAFF3F
:1008B000D880160EEE54000EEE54000EEE54000ECC
:1008C000EE546EE20000120EDBCF10F0130EDBCF01
:1008D00011F0140EDBCF12F0150EDBCF13F0100663
:1008E000000E115A000E125A000E135A160E096EFF
:1008F0000A6A0B6A0C6A10C004F011C005F012C03D
:1009000006F013C007F03DEC19F004C010F005C06C
:1009100011F006C012F007C013F0D9500A0FE96EAB
:10092000DACFEAFF1050EE261150ED220000120E31
:10093000DBCF10F0130EDBCF11F0140EDBCF12F073
:10094000150EDBCF13F01006000E115A000E125ACE
:10095000000E135A160E096E0A6A0B6A0C6A10C052
:1009600004F011C005F012C006F013C007F03DEC12
:1009700019F000C010F001C011F002C012F003C065
:1009800013F0102A000E1122000E1222000E132264
:10099000160E10C0DBFF170E11C0DBFF00000DD0DC
:1009A000120EDBCF06F0130EDBCF07F0160E06C0DB
:1009B000DBFF170E07C0DBFF000004C115F105C106
:1009C00016F106C117F107C118F100000A0EDBCFBE
:1009D000E6FF0B0EDBCFE6FFCFEC0BF0E552E55266
:1009E0000000160EDBCF10F0170EDBCF11F0100653
:1009F000000E115A180E1102F3CF11F0180E10024A
:100A0000F3CF10F0F4501126020E105E000E115AB2
:100A1000070E10C0DBFF080E11C0DBFF0000020E46
:100A2000F36E030EF3CFDBFF040EDB6A030EDBCFA6
:100A300010F0040EDBCF11F0D890115004E61B0E1D
:100A4000105C000E11582DE2030EDBCF10F0040EE7
:100A5000DBCF11F0070EDB501024E96E080EDB50DF
:100A60001120EA6E960EE926040EEA22EF50E66E99
:100A7000030EE76E030EDBCFE9FF040EDBCFEAFFC8
:100A8000E750E926000EEA22140EE926010EEA22BA
:100A9000E552E750EF6E030EDB2A040E01E3DB2A7A
:100AA000C5D700002CD0000EDB8ADB8CDB8EDFCFBD
:100AB00014F1010EF36E030EF3CFDBFF040EDB6ABD
:100AC000030EDBCF10F0040EDBCF11F0D8901150E5
:100AD00004E61A0E105C000E115811E2030EDBCF73
:100AE000E9FF040EDBCFEAFF140EE926010EEA222D
:100AF000EF6A030EDB2A040E01E3DB2AE1D7DFCF26
:100B000014F1110EDB6A010EDB500E0801E012D168
:100B1000000EDB88DB8A05C110F0116A126A136AC5
:100B2000180E1F0B07E0D890103611361236133608
:100B3000E806F9E104C114F0156A166A176A100E86
:100B40001F0B07E0D8901436153616361736E80610
:100B5000F9E11450101215501112165012121750BC
:100B6000131203C118F0196A1A6A1B6A080E1F0BC8
:100B700007E0D890183619361A361B36E806F9E120
:100B800018501012195011121A5012121B50131231
:100B900002C11CF01D6A1E6A1F6A1C5010121D50F3
:100BA00011121E5012121F501312120E10C0DBFF32
:100BB000130E11C0DBFF140E12C0DBFF150E13C0A5
:100BC000DBFFD950120FE96EDACFEAFF160EEE18EE
:100BD00005E1EE5003E1EE5001E1EE5033E0120E7C
:100BE000DBCF04F0130EDBCF05F0140EDBCF06F0E5
:100BF000150EDBCF07F0160E096E0A6A0B6A0C6A37
:100C00003DEC19F00A0E04C0DBFF0B0E05C0DBFF44
:100C1000120EDBCF04F0130EDBCF05F0140EDBCF8A
:100C200006F0150EDBCF07F0160E096E0A6A0B6A86
:100C30000C6A3DEC19F0160E00C0DBFF170E01C068
:100C4000DBFF0BD00A0EDB6A0B0EDB6A160EF36EAF
:100C5000160EF3CFDBFF170EDB6ADFCF14F102C1F4
:100C600015F103C116F104C117F105C118F10A0EFF
:100C7000DBCFE6FF0B0EDBCFE6FFCFEC0BF0E55250
:100C8000E552160EDBCF10F0170EDBCF11F0100679
:100C9000000E115A180E1102F3CF11F0180E1002A7
:100CA000F3CF10F0F4501126050E105E000E115A0D
:100CB000070E10C0DBFF080E11C0DBFF050EF36E40
:100CC000030EF3CFDBFF040EDB6A030EDBCF10F065
:100CD000040EDBCF11F0D890115004E61E0E105C0C
:100CE000000E115827E2030EDBCF10F0040EDBCF0D
:100CF00011F0070EDB501024E96E080EDB501120B6
:100D0000EA6E960EE926040EEA22EF50E66E030E16
:100D1000DBCFE9FF040EDBCFEAFF140EE926010E5C
:100D2000EA22E552E750EF6E030EDB2A040E01E3E0
:100D3000DB2ACBD7010EDB500F0801E00FD1000EEC
:100D4000DB88DB8ADFCF14F1060EF36E030EF3CFE0
:100D5000DBFF040EDB6A030EDBCF10F0040EDBCFEB
:100D600011F0D890115004E60B0E105C020E1158D1
:100D700001E3AFD0030EDBCFE9FF040EDBCFEAFFC8
:100D8000A60EE926060EEA22EF5001E098D0010EE9
:100D9000E76E030EDBCFE9FF040EDBCFEAFFE7507F
:100DA000E926000EEA22A60EE926060EEA22EF50F8
:100DB00001E085D0E66AE66A8EEC0CF0E552E55279
:100DC000180E04C0DBFF190E05C0DBFF1A0E06C0AB
:100DD000DBFF1B0E07C0DBFF030EDBCF10F0040EA2
:100DE000DBCF11F0113404E210500608000E11544C
:100DF00065E2030EDBCF10F0040EDBCF11F0020E24
:100E0000105E000E115A050E10C0DBFF060E11C059
:100E1000DBFF050EDBCF10F0060EDBCF11F0113437
:100E200004E210500908000E115448E2050EDBCF11
:100E3000E9FF060EDBCFEAFFA60EE926060EEA2240
:100E4000EF50FF0831E00000010EE76E050EDBCF2A
:100E5000E9FF060EDBCFEAFFE750E926000EEA22A3
:100E6000A60EE926060EEA22EF50E66E050EDBCF4F
:100E7000E9FF060EDBCFEAFFA60EE926060EEA2200
:100E8000EF50E66E8EEC0CF0E552E552180E04C001
:100E9000DBFF190E05C0DBFF1A0E06C0DBFF1B0EC1
:100EA00007C0DBFF00000AD0D950050FE96EDACF8A
:100EB000EAFF060EEE5E000EED5AABD70AD0D9500F
:100EC000030FE96EDACFEAFF060EEE26000EED22E2
:100ED00042D7180EDBCF10F0190EDBCF11F01A0E2F
:100EE000DBCF12F01B0EDBCF13F0180ED8901332AD
:100EF000123211321032E806F9E110C018F1180E62
:100F0000DBCF10F0190EDBCF11F01A0EDBCF12F091
:100F10001B0EDBCF13F0100ED890133212321132A9
:100F20001032E806F9E110C017F1180EDBCF10F00F
:100F3000190EDBCF11F01A0EDBCF12F01B0EDBCF38
:100F400013F0080ED8901332123211321032E80624
:100F5000F9E110C016F1180EDBCF15F1010EDB50D0
:100F6000020801E089D002C112F012C013F0126A27
:100F70000101035100011210106E13C011F00A0E8E
:100F800010C0DBFF0B0E11C0DBFF01010451E66E48
:100F9000D950160FE96EDACFEAFFE552E750EE6E50
:100FA000ED6A000EDB88DB8A160EDBCF15F10A0E28
:100FB000DBCFE6FF0B0EDBCFE6FFCFEC0BF0E5520D
:100FC000E552160EDBCF10F0170EDBCF11F0100636
:100FD000000E115A180E1102F3CF11F0180E100264
:100FE000F3CF10F0F4501126020E105E000E115ACD
:100FF000070E10C0DBFF080E11C0DBFF020EF36E00
:10100000030EF3CFDBFF040EDB6A030EDBCF10F021
:10101000040EDBCF11F0D890115004E61B0E105CCB
:10102000000E115827E2030EDBCF10F0040EDBCFC9
:1010300011F0070EDB501024E96E080EDB50112072
:10104000EA6E960EE926040EEA22EF50E66E030ED3
:10105000DBCFE9FF040EDBCFEAFF140EE926010E19
:10106000EA22E552E750EF6E030EDB2A040E01E39D
:10107000DB2ACBD7DFCF14F1010EDB50840806E169
:10108000000EDFCF14F10D01010E1D6F010EDB50BC
:10109000850806E1000EDFCF14F10D01010E1C6F73
:1010A000010EDB50030801E0D3D003C112F012C0DF
:1010B00013F0126A0101025100011210106E13C0E8
:1010C00011F01C0E10C0DBFF1D0E11C0DBFF1C0E4B
:1010D000DBCF10F01D0EDBCF11F0040E105C000E04
:1010E000115801E3AFD0D9501C0FE96EDACFEAFFF7
:1010F000000ED880EE54000EED5401E3A3D0000E94
:10110000DB88DB8A02C115F103C116F11C0EDBCFAF
:1011100010F01D0EDBCF11F01006000E115A180E44
:101120001102F3CF11F0180E1002F3CF10F0F450AB
:101130001126070E10C0DBFF080E11C0DBFF0D01EA
:101140003E5140E1030EDB6A040EDB6A030EDBCF87
:1011500010F0040EDBCF11F0D890115004E61A0EF7
:10116000105C000E11582DE2030EDBCF10F0040EC0
:10117000DBCF11F0070EDB501024E96E080EDB50B8
:101180001120EA6EC80EE926010EEA22EF50E66E43
:10119000030EE76E030EDBCFE9FF040EDBCFEAFFA1
:1011A000E750E926000EEA22140EE926010EEA2293
:1011B000E552E750EF6E030EDB2A040E01E3DB2A53
:1011C000C5D73FD0030EDB6A040EDB6A030EDBCF0C
:1011D00010F0040EDBCF11F0D890115004E61A0E77
:1011E000105C000E11582DE2030EDBCF10F0040E40
:1011F000DBCF11F0070EDB501024E96E080EDB5038
:101200001120EA6E6E0EE926010EEA22EF50E66E1C
:10121000030EE76E030EDBCFE9FF040EDBCFEAFF20
:10122000E750E926000EEA22140EE926010EEA2212
:10123000E552E750EF6E030EDB2A040E01E3DB2AD2
:10124000C5D704D0000EDB88DB8CDB8EDFCF14F13A
:10125000010EDB50090801E077D0000EDB88DB8A45
:101260000D013E5138E1030EDB6A040EDB6A030E0A
:10127000DBCF10F0040EDBCF11F0D890115004E654
:10128000480E105C000E115825E2030EDBCFE9FF7B
:10129000040EDBCFEAFFC80EE926010EEA22EF506A
:1012A000E66E010EE76E030EDBCFE9FF040EDBCF27
:1012B000EAFFE750E926000EEA22140EE926010EA5
:1012C000EA22E552E750EF6E030EDB2A040E01E33B
:1012D000DB2ACDD737D0030EDB6A040EDB6A030EA0
:1012E000DBCF10F0040EDBCF11F0D890115004E6E4
:1012F000480E105C000E115825E2030EDBCFE9FF0B
:10130000040EDBCFEAFF6E0EE926010EEA22EF5053
:10131000E66E010EE76E030EDBCFE9FF040EDBCFB6
:10132000EAFFE750E926000EEA22140EE926010E34
:10133000EA22E552E750EF6E030EDB2A040E01E3CA
:10134000DB2ACDD7DFCF14F1C8D86B988986030E7E
:10135000DB6A040EDB6A030EDBCF10F0040EDBCF7A
:1013600011F00D0111503919E8AE02D0393504D011
:101370003851105C3951115815E2030EDBCFE9FFEB
:10138000040EDBCFEAFF140EE926010EEA22EF502D
:101390006D6E00006CA2FED7030EDB2A040E01E383
:1013A000DB2AD9D789966B880D01206B0D01216B43
:1013B0000D01316B030EDB6A040EDB6A030EDBCF1B
:1013C00010F0040EDBCF11F0D890115004E6140E8B
:1013D000105C000E115811E2030EDBCFE9FF040E82
:1013E000DBCFEAFF000EE926010EEA22EF6A030EC8
:1013F000DB2A040E01E3DB2AE1D7240EE15C02E2E2
:10140000E16AE552E16EE552E7CFD9FF12000D0126
:10141000346B356B0D01326B336B1200D9CFE6FFA5
:10142000E1CFD9FF040EE126020E00C1DBFF010E61
:10143000DE6EDD6ADECF10F0DDCF11F034CD12F0BC
:1014400035CD13F01206000E135A11501318E8AEE2
:1014500002D0133404D01250105C1350115817E20C
:10146000020EDBCFE6FFDECFE9FFDDCFEAFF000EA5
:10147000E926010EEA22EF50E552E718E76E020E68
:10148000E7CFDBFFDF2A010E01E3DB2AD3D734CD20
:10149000E9FF35CDEAFFE906000EEA5A000EE9261B
:1014A000010EEA22030EEFCFDBFF020EDB50F36EDC
:1014B000030EDB50F35C03E1010E03D002D0000EFB
:1014C00000D0106E040EE15C02E2E16AE552E16ECA
:1014D0001050E552E7CFD9FF1200D9CFE6FFE1CF98
:1014E000D9FF030EE1260D0139AF02D0D89003D009
:1014F000385D000E395901E241D0020E14C1DBFF04
:10150000010EDE6EDD6ADECF10F0DDCF11F038CDDA
:1015100012F039CD13F01206000E135A11501318A1
:10152000E8AE02D0133404D01250105C135011589E
:1015300017E2020EDBCFE6FFDECFE9FFDDCFEAFFE9
:10154000140EE926010EEA22EF50E552E718E76E85
:10155000020EE7CFDBFFDF2A010E01E3DB2AD3D740
:1015600038CDE9FF39CDEAFFE906000EEA5A140E3C
:10157000E926010EEA22020EDBCFEFFF030EE15C4B
:1015800002E2E16AE552E16EE552E7CFD9FF1200CF
:10159000C79EC78CC698C696C694C692C6908B84C2
:1015A000C68A1200D9CFE6FFE1CFD9FF030EE126AC
:1015B000DF6AFD0EDBCF10F0FE0EDBCF11F0D8900E
:1015C00010361136D89010361136FF0E1016000E58
:1015D0001116010E10C0DBFFFD0EDBCF10F0FE0E6A
:1015E000DBCF11F0060ED89011321032E804FBE187
:1015F000FF0E1016000E1116020E10C0DBFF8B94AA
:10160000830EC96EC7A0FED7020EDB50C96EC7A0FD
:10161000FED7010EDB50C96EC7A0FED7DF50C96EE2
:10162000C7A0FED78B84D9DA000901E1FCD7030EED
:10163000E15C02E2E16AE552E16EE552E7CFD9FFF3
:101640001200D9CFE6FFE1CFD9FF050EE126020E49
:10165000DB6AFD0EDBCF10F0FE0EDBCF11F0D89071
:1016600010361136D89010361136FF0E1016000EB7
:101670001116030E10C0DBFFFD0EDBCF10F0FE0EC7
:10168000DBCF11F0060ED89011321032E804FBE1E6
:10169000FF0E1016000E1116040E10C0DBFF8B9407
:1016A000820EC96EC7A0FED7040EDB50C96EC7A05C
:1016B000FED7030EDB50C96EC7A0FED7020EDB506B
:1016C000C96EC7A0FED7DE6ADD6ADECF10F0DDCFBF
:1016D00011F0D890115004E6100E105C020E115853
:1016E00011E2DECFE9FFDDCFEAFF860EE926020E2A
:1016F000EA22EF50C96EC7A0FED7DF2A010E01E330
:10170000DB2AE3D78B84050EE15C02E2E16AE55255
:10171000E16EE552E7CFD9FF1200D9CFE6FFE1CF66
:10172000D9FF020EE1268B94850EC96EC7A0FED7A5
:10173000C96AC7A0FED7C96AC7A0FED7C96AC7A031
:10174000FED7DE6ADD6ADECF10F0DDCF11F0D89073
:10175000115004E6100E105C020E115811E2DECF9B
:10176000E9FFDDCFEAFFA60EE926060EEA22EF50DA
:10177000C96EC7A0FED7DF2A010E01E3DB2AE3D73B
:101780008B842BDA000901E1FCD7020EE15C02E256
:10179000E16AE552E16EE552E7CFD9FF1200D9CFF9
:1017A000E6FFE1CFD9FF050EE126020EDB6AFD0E52
:1017B000DBCF10F0FE0EDBCF11F0D89010361136D3
:1017C000D89010361136FF0E1016000E1116030EAB
:1017D00010C0DBFFFD0EDBCF10F0FE0EDBCF11F0F3
:1017E000060ED89011321032E804FBE1FF0E1016FD
:1017F000000E1116040E10C0DBFF8B94D20EC96EC2
:10180000C7A0FED7040EDB50C96EC7A0FED7030EDB
:10181000DB50C96EC7A0FED7020EDB50C96EC7A051
:10182000FED7040EE66EE66A9BEC10F0E552E55238
:10183000DE6ADD6ADECF10F0DDCF11F0D8901150F6
:1018400004E6100E105C020E115812E2C96AC7A01D
:10185000FED7DECFE9FFDDCFEAFF960EE926040EC4
:10186000EA22C9CFEFFFDF2A010E01E3DB2AE2D72C
:101870008B84050EE15C02E2E16AE552E16EE5521D
:10188000E7CFD9FF1200D9CFE6FFE1CFD9FF020E93
:10189000E126000EE66EE66A82DFE552E552DE6A78
:1018A000DD6ADECF10F0DDCF11F0D890115004E6E4
:1018B000100E105C020E11581AE2DECFE9FFDDCFE8
:1018C000EAFF960EE926040EEA22EF50E66EDECF1E
:1018D000E9FFDDCFEAFFA60EE926060EEA22E55271
:1018E000E750EF6EDF2A010E01E3DB2ADAD7020EA2
:1018F000E15C02E2E16AE552E16EE552E7CFD9FF31
:101900001200D9CFE6FFE1CFD9FFFE0EDBCFE6FF15
:1019100004DFE552E552E7CFD9FF1200D9CFE6FF49
:10192000E1CFD9FF080EE126DE681F0EDE6EDE6A0B
:10193000DD6ADD52DD52FE0EDBCF14F014C015F06F
:10194000146AFD0EDB5000011410106E15C011F06A
:10195000126A136A11AE02D012681368040E10C026
:10196000DBFF050E11C0DBFF060E12C0DBFF070E0A
:1019700013C0DBFF040EDBCF14F0050EDBCF15F038
:10198000060EDBCF16F0070EDBCF17F0D9CFE9FF3D
:10199000DACFEAFF1450EE5C106E1550EE58116E5F
:1019A0001650EE58126E1750EE58136E100E096E48
:1019B000020E0A6E0B6A0C6A10C004F011C005F02A
:1019C00012C006F013C007F0D6EC18F000C010F0FB
:1019D00001C011F002C012F003C013F010C004F0F7
:1019E00011C005F012C006F013C007F0080EE15C4C
:1019F00003E200D0E16AE552E16EE552E7CFD9FF9C
:101A00001200D9CFE6FFE1CFD9FF0C0EE126DE6A46
:101A1000DE6ADE6ADD6ADD52DD52040EDB6A050E27
:101A2000DB6A060EDB6A070EDB6A080EDB6A090E4C
:101A3000DB6A0A0EDB6A0B0EDB6A0000020EE76E41
:101A4000FD0EDBCFE9FFFE0EDBCFEAFFE750E92614
:101A5000000EEA22A60EE926060EEA22EFCF14F0C7
:101A600014C015F0146A030EE76EFD0EDBCFE9FF1C
:101A7000FE0EDBCFEAFFE750E926000EEA22A60EB3
:101A8000E926060EEA22EF5000011410106E15C070
:101A900011F0126A136A11AE02D01268136810C0F6
:101AA000DFFF010E11C0DBFF020E12C0DBFF030ED1
:101AB00013C0DBFF040EE76EFD0EDBCFE9FFFE0E69
:101AC000DBCFEAFFE750E926000EEA22A60EE92660
:101AD000060EEA22EFCF14F014C015F0146A050EBA
:101AE000E76EFD0EDBCFE9FFFE0EDBCFEAFFE7502E
:101AF000E926000EEA22A60EE926060EEA22EF509B
:101B000000011410106E15C011F0126A136A11AEA4
:101B100002D012681368040E10C0DBFF050E11C05E
:101B2000DBFF060E12C0DBFF070E13C0DBFF040E47
:101B3000DBCF10F0050EDBCF11F0060EDBCF12F07D
:101B4000070EDBCF13F0D9CFE9FFDACFEAFFEE5073
:101B5000105C046EEE501158056EEE501258066E71
:101B6000EE501358076E042A000E0522000E0622BE
:101B7000000E0722100E096E020E0A6E0B6A0C6A26
:101B8000D6EC18F0080E00C0DBFF090E01C0DBFF29
:101B90000A0E02C0DBFF0B0E03C0DBFF080EDBCF1B
:101BA00010F0090EDBCF11F00A0EDBCF12F00B0E96
:101BB000DBCF13F010C004F011C005F012C006F026
:101BC00013C007F000D00C0EE15C02E2E16AE552BE
:101BD000E16EE552E7CFD9FF1200D9CFE6FFE1CFA2
:101BE000D9FFE6528B94D70EC96EC7A0FED7C96A3B
:101BF000C7A0FED7C950DF6E8B84DF50106E116A0C
:101C0000070ED89011321032E804FBE11050DF6E5D
:101C1000DF5000D0E552E552E7CFD9FF12000D01A9
:101C200001510601A65D0FE10D0102510601A75DFC
:101C30000AE10D0103510601A85D05E10D01045102
:101C40000601A95D03E00D01010E416F16CD10F0F4
:101C5000116A10C07FFD15CD80FD19CD09FD1ACD8B
:101C60000AFDA60E0D011925E96E060E1A21EA6E6F
:101C70007DCDEFFF010EEA6A1925E96E1A51EA22BD
:101C8000A60EE926060EEA227ECDEFFF020EEA6AD4
:101C90001925E96E1A51EA22A60EE926060EEA2255
:101CA0007FCDEFFF030EEA6A1925E96E1A51EA2289
:101CB000A60EE926060EEA2280CDEFFF0D010151A6
:101CC0000601A65D0FE10D0102510601A75D0AE1C3
:101CD0000D0103510601A85D05E10D010451060146
:101CE000A95D06E00D01415103E10D01010E406FB8
:101CF0000D013E6B0D013C6B0D01010E236F050EB6
:101D0000E66EE66A890EE66E0D0EE66E68EC17F07A
:101D1000E552E552E552E552E80EE66E030EE66E38
:101D2000E66AE66A9DEC18F0E552E552E552E552A6
:101D30000D01010E276F1200D9CFE6FFE1CFD9FFC9
:101D4000020EE1260D01276B0D01236B19CD0BFD52
:101D50001ACD0CFD0D013C5153E18B94840EC96EDC
:101D6000C7A0FED7C96AC7A0FED718CD10F0116A68
:101D70001050C96EC7A0FED717CDC9FFC7A0FED7A8
:101D800017CDDEFF18CDDDFFDECF10F0DDCF11F077
:101D9000D890115004E6100E105C020E115806E2A5
:101DA000C96ADF2A010E01E3DB2AEED7C7A0FED7FE
:101DB0008B8400008B94830EC96EC7A0FED715CD0F
:101DC00010F016CD11F0060ED89011321032E80442
:101DD000FBE11050C96EC7A0FED715CD10F016CD8F
:101DE00011F0D89010361136D890103611361050A8
:101DF000C96EC7A0FED7C96AC7A0FED78B8452D0D0
:101E00008B94870EC96EC7A0FED7C96AC7A0FED73C
:101E100018CD10F0116A1050C96EC7A0FED717CDAB
:101E2000C9FFC7A0FED717CDDEFF18CDDDFFDECF7F
:101E300010F0DDCF11F0D890115004E6100E105CB8
:101E4000020E115806E2C96ADF2A010E01E3DB2AFD
:101E5000EED7C7A0FED78B8400008B94860EC96E88
:101E6000C7A0FED715CD10F016CD11F0060ED890F4
:101E700011321032E804FBE11050C96EC7A0FED742
:101E800015CD10F016CD11F0D89010361136D8902F
:101E9000103611361050C96EC7A0FED7C96AC7A048
:101EA000FED78B849ADE000901E1FCD716CD10F035
:101EB000116A10C081FD15CD82FD040E0D01EA6A84
:101EC0001925E96E1A51EA22A60EE926060EEA2223
:101ED00081CDEFFF050E0D01EA6A1925E96E1A5151
:101EE000EA22A60EE926060EEA2282CDEFFFDE6A7E
:101EF000DD6ADECF10F0DDCF11F0D890115004E68E
:101F0000880E105C130E115806E20000DF2A010E45
:101F100001E3DB2AEED70D013C5105E1010EE66E2F
:101F2000F0DCE55203D0E66AECDCE552060E0D016A
:101F30001927000E0D011A2319CD0DFD1ACD0EFD26
:101F40000D01152B000E1623020EE15C02E2E16A80
:101F5000E552E16EE552E7CFD9FF1200EDDEE80E63
:101F6000E66E030EE66EE66AE66A9DEC18F0E55250
:101F7000E552E552E5520FEF0EF0D9CFE6FFE1CF83
:101F8000D9FF020EE1268B94C70EC96EC7A0FED7FB
:101F9000940EC96EC7A0FED7800EC96EC7A0FED72B
:101FA0009A0EC96EC7A0FED78B840D012D6B0D0153
:101FB0002C6BDE6ADD6ADECF10F0DDCF11F0D89039
:101FC000115004E6100E105C020E11580EE2DECF26
:101FD000E9FFDDCFEAFFA60EE926060EEA22EF6A48
:101FE000DF2A010E01E3DB2AE6D7020EE15C02E202
:101FF000E16AE552E16EE552E7CFD9FF1200D9CF91
:10200000E6FFE1CFD9FF020EE126DE6ADD6ADECF10
:1020100010F0DDCF11F0D890115004E6100E105CD6
:10202000020E11580EE2DECFE9FFDDCFEAFFA60E69
:10203000E926060EEA22EF68DF2A010E01E3DB2A19
:10204000E6D7DE6ADD6ADECF10F0DDCF11F0D89082
:10205000115004E6040E105C000E11581AE2DECF97
:10206000E9FFDDCFEAFF010EE9260D0EEA22EF506F
:10207000E66EDECFE9FFDDCFEAFFA60EE926060E0B
:10208000EA22E552E750EF6EDF2A010E01E3DB2A78
:10209000DAD708CD10F0116A10C0AAF607CDABF65A
:1020A000060EDE6EDD6ADECF10F0DDCF11F0D890C7
:1020B000115004E60B0E105C020E11581BE2DECF2D
:1020C000E9FFDDCFEAFFA60EE926060EEA22EF6A57
:1020D000DECFE9FFDDCFEAFF010EE926000EEA229E
:1020E000A60EE926060EEA22EF6A060EDE26000E8E
:1020F000DD22D9D7E66A81EC0CF0E552060E0D011F
:10210000196F1A6B010E0D01156F166B0D01176B10
:10211000186B0D013C6F0D013E6B0D012C6B0D0119
:102120002D6F020EE15C02E2E16AE552E16EE552DA
:10213000E7CFD9FF1200D9CFE6FFE1CFD9FF030ED9
:10214000E126010EDB6A020EDB6A010EDBCF10F026
:10215000020EDBCF11F0FD0EDBCF12F0FE0EDBCF57
:1021600013F011501318E8AE02D0133404D01250FB
:10217000105C135011580BE2C96AC7A0FED7C950B2
:10218000DF6E010EDB2A020E01E3DB2ADED7030E2F
:10219000E15C02E2E16AE552E16EE552E7CFD9FF88
:1021A0001200D9CFE6FFE1CFD9FF020EE126060EDD
:1021B000DE6EDD6ADECF10F0DDCF11F0D890115069
:1021C00004E60B0E105C020E115850E2DECFE9FF60
:1021D000DDCFEAFFA60EE926060EEA22EF5041E126
:1021E000DECFE9FFDDCFEAFF010EE926000EEA228D
:1021F000A60EE926060EEA22EF5033E1DECF19FDE6
:10220000DDCF1AFDDECF10F0DDCF11F0113404E286
:1022100010500608000E115423E219CDE9FF1ACD23
:10222000EAFF020EE95E000EEA5AA60EE926060E45
:10223000EA22EF50000EF3CF10F019CDE9FF1ACDCE
:10224000EAFFE906EA5AA60EE926060EEA22EF5050
:1022500010100D01156F166B010E1527000E1623B9
:1022600005D0060EDE26000EDD22A4D7020EE15CAC
:1022700002E2E16AE552E16EE552E7CFD9FF1200D2
:10228000D9CFE6FFE1CFD9FF040EE126DE6ADD6A91
:10229000DECF10F0DDCF11F0D890115004E6140E0F
:1022A000105C000E11580EE2DECFE9FFDDCFEAFF31
:1022B000000EE926010EEA22EF6ADF2A010E01E391
:1022C000DB2AE6D7DE6ADD6ADECF10F0DDCF11F063
:1022D000D890115004E6480E105C000E115817E219
:1022E000DECFE9FFDDCFEAFF6E0EE926010EEA221E
:1022F000EF6ADECFE9FFDDCFEAFFC80EE926010E67
:10230000EA22EF6ADF2A010E01E3DB2ADDD7DE6A6B
:10231000DD6ADECF10F0DDCF11F0D890115004E669
:10232000100E105C020E115817E2DECFE9FFDDCF70
:10233000EAFF860EE926020EEA22EF6ADECFE9FF07
:10234000DDCFEAFF960EE926040EEA22EF6ADF2AC5
:10235000010E01E3DB2ADDD70F0EC16E8B68949C62
:10236000948E8F6898929884010E896E926A2A0ED4
:10237000AF6E7F6A080E7E6E640EAC6ED00EAB6ED2
:10238000030E6F6E7D6A080E7C6E640E6C6ED00E4E
:102390006B6ED08EF28EF28C9D8A9F9AA38AA58A4C
:1023A000F28AF194949494969488949AC8EC0AF0E2
:1023B000040EE66EE66A8E0EE66E0D0EE66E68ECB4
:1023C00017F0E552E552E552E5520D01010E3C6F62
:1023D0000D013E6B43EC0CF00D0101510601A65DB1
:1023E00013E10D0102510601A75D0EE10D0103513C
:1023F0000601A85D09E10D0104510601A95D04E192
:102400000D01010E2D6F02D00D012D6B010E0D017E
:10241000156F166B0D012D5101E1C3D0060EDE6E56
:10242000DD6ADECF10F0DDCF11F0D890115004E658
:102430000B0E105C020E115801E3B3D0DECFE9FFA2
:10244000DDCFEAFFA60EE926060EEA22EF5001E0F4
:10245000A3D0DECFE9FFDDCFEAFF010EE926000EB3
:10246000EA22A60EE926060EEA22EF5001E094D0F9
:10247000D9CFE9FFDACFEAFF0C0EEE1801E1ED50FB
:1024800018E1DECFE9FFDDCFEAFF020EE95E000EC4
:10249000EA5AA60EE926060EEA22EF50FF0808E1E6
:1024A000060E0D01196F1A6B010E0D01156F166BDB
:1024B00072D0DECF10F0DDCF11F0113404E21050F5
:1024C0000608000E115467E2DECF10F0DDCF11F0E8
:1024D000020E105E000E115A020E10C0DBFF030E3A
:1024E00011C0DBFF020EDBCF10F0030EDBCF11F0CB
:1024F000113404E210500908000E11544CE2020E8F
:10250000DBCFE9FF030EDBCFEAFFA60EE926060EBE
:10251000EA22EF50FF0835E0020EDBCF19FD030E73
:10252000DBCF1AFD020E0D011927000E0D011A2333
:1025300019CDE9FF1ACDEAFF020EE95E000EEA5A54
:10254000A60EE926060EEA22EFCF10F010C011F019
:10255000106A19CDE9FF1ACDEAFFE906000EEA5A22
:10256000A60EE926060EEA22EF500D011010156F97
:1025700011C016FD010E0D011527000E0D011623C9
:102580000AD0D950020FE96EDACFEAFF060EEE5EEE
:10259000000EED5AA7D705D0060EDE26000EDD226E
:1025A00040D7000085960D01406B0D01416B0D0178
:1025B000400503E00D01410502E1000000000D01AE
:1025C0003D5167E00D01255164E10D013C5126E1CB
:1025D0008B94860EC96EC7A0FED715CD10F016CD10
:1025E00011F0060ED89011321032E804FBE11050C1
:1025F000C96EC7A0FED715CD10F016CD11F0D8903A
:1026000010361136D890103611361050C96EC7A04A
:10261000FED7C96AC7A0FED78B8425D08B94830EC2
:10262000C96EC7A0FED715CD10F016CD11F0060E5D
:10263000D89011321032E804FBE11050C96EC7A0E7
:10264000FED715CD10F016CD11F0D89010361136FA
:10265000D890103611361050C96EC7A0FED7C96A7F
:10266000C7A0FED78B840D01152B000E16230D017C
:10267000176B186BE80E0D01151902E11C0E1619E7
:1026800003E10D01010E2C6F0D013D6B0D01010EDB
:10269000116F0D01295104E00D01296BBDEC0FF004
:1026A0000D013F5104E00D013F6BFFEC0FF00D01F8
:1026B000245104E00D01246B0FEC0EF00D012551A7
:1026C00004E00D01256B9CEC0EF00D01265104E099
:1026D0000D01266BAEEC0FF00D01315115E00D012F
:1026E000205112E10D0100510D01315D06E10D0196
:1026F000010E206F00CD00F107D007EC0AF00D01AC
:10270000316B0D01326B336B0D0122510CE00D0169
:10271000226B07EC0AF00D01206B0D01316B0D01EE
:10272000216B6B986B880D013251331101E159D146
:10273000020E0D0133AF02D0D89003D0325D000EEF
:10274000335901E22CD10D01205101E128D10D01B5
:10275000215101E024D1010101510E0A01E106D10C
:102760000C0A01E1F7D0130A01E1E8D01C0A01E1EB
:10277000D9D09D0A01E1CAD01C0A01E1BBD0070AE9
:1027800001E1ACD0010A01E19DD00F0A01E18ED038
:10279000010A01E17FD0900A71E01B0A63E0870A19
:1027A00055E0DD0A47E0520A39E0010A2BE00F0A42
:1027B0001DE00A0A0FE0020A01E0E4D0030E0D0159
:1027C000346F356B040E0D01386F396B0D01366BAC
:1027D000376BDFD0050E0D01346F356B1C0E0D010C
:1027E000386F396B0D01366B376BD3D0030E0D018B
:1027F000346F356B4B0E0D01386F396B0D01366B35
:10280000376BC7D0030E0D01346F356B060E0D010B
:10281000386F396B0D01366B376BBBD0030E0D0172
:10282000346F356B040E0D01386F396B0D01366B4B
:10283000376BAFD0030E0D01346F356B080E0D01F1
:10284000386F396B0D01366B376BA3D0040E0D0159
:10285000346F356B010E0D01386F396B0D01366B1E
:10286000376B97D0030E0D01346F356B060E0D01DB
:10287000386F396B0D01366B376B8BD0030E0D0142
:10288000346F356B030E0D01386F396B0D01366BEC
:10289000376B7FD0030E0D01346F356B010E0D01C8
:1028A000386F396B0D01366B376B73D0030E0D012A
:1028B000346F356B010E0D01386F396B0D01366BBE
:1028C000376B67D0050E0D01346F356B010E0D01AE
:1028D000386F396B0D01366B376B5BD0030E0D0112
:1028E000346F356B010E0D01386F396B0D01366B8E
:1028F000376B4FD0030E0D01346F356B010E0D0198
:10290000386F396B0D01366B376B43D0030E0D01F9
:10291000346F356B010E0D01386F396B0D01366B5D
:10292000376B37D0050E0D01346F356B060E0D0178
:10293000386F396B0D01366B376B2BD0090E0D01DB
:10294000346F356B1E0E0D01386F396B0D01366B10
:10295000376B1FD0060E0D01346F356B1B0E0D014A
:10296000386F396B0D01366B376B13D0070E0D01C5
:10297000346F356B1E0E0D01386F396B0D01366BE0
:10298000376B07D007EC0AF00D01206B0D01316B9E
:1029900000D00D01205103E00D01010E216F0D014A
:1029A00021511FE00D0134510D01321904E10D01D7
:1029B00035510D01331915E10D013251331111E07B
:1029C0000EEC0AF0000908E107EC0AF00D01206B9B
:1029D0000D01316B0D01216B0D01215102E02EEC37
:1029E00000F00D011D5107E00D011D6B0D01010EE1
:1029F0002B6FA5EC17F00D011C5111E00D011C6BA4
:102A00000D012B6B040EE66EE66A8E0EE66E0D0E61
:102A1000E66E68EC17F0E552E552E552E5520D011D
:102A20001B5123E00D011B510D0A1AE0030A15E0AA
:102A30001E0A10E0010A0BE0060A06E00E0A01E099
:102A400012D0030E6F6E0FD0040E6F6E0CD02A0ED4
:102A50006F6E09D0560E6F6E06D0030E6F6E03D0E8
:102A6000080E6F6E00D00D011B6BA1D5040EE15C4A
:102A700002E2E16AE552E16EE552E7CFD9FF1200CA
:102A8000DACFE4FFE2CFDAFFE9CFE4FFEACFE4FFF9
:102A9000E652D9CFE6FFE1CFD9FF040EE126F2A43A
:102AA00006D0F294D59E0D012A6B0D012E6B9EAAC5
:102AB000AED19E9AAE50DF6EABA257D00D011F5122
:102AC0004FE01F51880A01E04BD00D013E5124E137
:102AD000010EDB6A020EDB6A010EDBCF20F0020E74
:102AE000DBCF21F0D890215004E65A0E205C000E76
:102AF000215811E2010EDBCFE9FF020EDBCFEAFF26
:102B00006E0EE926010EEA22EF6A010EDB2A020EA2
:102B100001E3DB2AE1D723D0010EDB6A020EDB6A78
:102B2000010EDBCF20F0020EDBCF21F0D890215038
:102B300004E65A0E205C000E215811E2010EDBCF94
:102B4000E9FF020EDBCFEAFFC80EE926010EEA22FA
:102B5000EF6A010EDB2A020E01E3DB2AE1D700D087
:102B60000D011F6BAB98AB8852D10D01852B000E68
:102B700086230D01235101E1B6D00D013D5101E045
:102B8000A6D00D01115157E0116B010EDB6A020E48
:102B9000DB6A010EDBCF20F0020EDBCF21F00D014E
:102BA00021501319E8AE02D0133504D01251205C25
:102BB000135121583EE20D013C5119E18B94840ED2
:102BC000C96EC7A0FED7C96AC7A0FED718CD20F02E
:102BD000216A2050C96EC7A0FED717CDC9FFC7A074
:102BE000FED7DF50C96EC7A0FED78B8418D08B9458
:102BF000870EC96EC7A0FED7C96AC7A0FED718CD79
:102C000020F0216A2050C96EC7A0FED717CDC9FF9A
:102C1000C7A0FED7DF50C96EC7A0FED78B840D01B9
:102C2000172B000E1823010EDB2A020E01E3DB2A0C
:102C3000B0D7126B136B0D013C5119E18B94840ECC
:102C4000C96EC7A0FED7C96AC7A0FED718CD20F0AD
:102C5000216A2050C96EC7A0FED717CDC9FFC7A0F3
:102C6000FED7DF50C96EC7A0FED78B8418D08B94D7
:102C7000870EC96EC7A0FED7C96AC7A0FED718CDF8
:102C800020F0216A2050C96EC7A0FED717CDC9FF1A
:102C9000C7A0FED7DF50C96EC7A0FED78B840D0139
:102CA000172B000E1823100E171902E1020E181927
:102CB0000DE10D01010E3D6F0D013C5102E03C6B39
:102CC00002D0010E3C6F0D01176B186B0CD0220E59
:102CD0000D011225E96E020E1321EA6EDFCFEFFF20
:102CE000122B000E13230D01835101E188D0880EB1
:102CF0000D011F5D0CE1100E0D01845D08E1100E49
:102D0000DF5C05E18507000E865B846B80D00D01DA
:102D1000020E851901E1865102E1DFCF30FD30CD91
:102D20001FFD0D013051880A01E029D00D018635C3
:102D300004E285510208000E865520E20D013E5145
:102D40000FE185CDE9FF86CDEAFF030EE95E000EB7
:102D5000EA5A6E0EE926010EEA22DFCFEFFF0ED00F
:102D600085CDE9FF86CDEAFF030EE95E000EEA5A43
:102D7000C80EE926010EEA22DFCFEFFF00D0030ED6
:102D8000DF5C3AE1100E0D01845D36E10D012E513C
:102D900009E00D018751D66E88CD20F0216A2050C0
:102DA000D76E14D0010E2E6F0D012A6FD58ED59CD3
:102DB000D59AD588D596D584D582D5800D018751F1
:102DC000D66E88CD20F0216A2050D76E880E0D0176
:102DD000305D07E10D013E5102E03E6B02D0010E75
:102DE0003E6F0D01836B856B866B0D01306B0D01A2
:102DF000846B0D011F6B8070DFCF84FD08D0100E37
:102E0000DF5C03E1010E836F02D0856B866B040EDD
:102E1000E15C02E2E16AE552E16EE552E7CFD9FFFB
:102E2000E552E5CFEAFFE5CFE9FFE5CFDAFF110094
:102E3000D9CFE6FFE1CFD9FFFE0EDBCFE6FFDB38CF
:102E4000F00B106EFE0EDB380F0B1010E552E7187A
:102E5000E76EFE0EE7CFDBFFDBCFE6FFFE0EDB40CB
:102E6000E8403F0BE552E718E76EFE0EE7CFDBFFC9
:102E7000DBCFE6FFDB407F0BE552E718E76EFE0E87
:102E8000E7CFDBFFDB50010B02E0000E01D0010EAB
:102E900000D0E552E7CFD9FF1200D9CFE6FFE1CF4E
:102EA000D9FFACAA11D09EA8FED7FE0EDBCFE6FF5D
:102EB000BFDFE552E8B0AC80E8A0AC90FE0EDB507E
:102EC000AD6E0000ACA2FED7E552E7CFD9FF1200ED
:102ED000D9CFE6FFE1CFD9FF020EE126DE6ADD6A37
:102EE000DECF10F0DDCF11F0FB0EDBCF12F0FC0EC9
:102EF000DBCF13F011501318E8AE02D0133404D016
:102F00001250105C1350115815E2FD0EDBCF10F07B
:102F1000FE0EDBCF11F0DE501024E96EDD501120E3
:102F2000EA6EEF50E66EB9DFE552DF2A010E01E3EB
:102F3000DB2AD6D70000020EE15C02E2E16AE5522C
:102F4000E16EE552E7CFD9FF1200040EE66EE66AA5
:102F5000490EE66E0D0EE66EBBDFE552E552E55218
:102F6000E552E80EE66E030EE66EE66AE66A9DEC52
:102F700018F0E552E552E552E552060EE66EE66AB5
:102F8000560EE66E0D0EE66EA3DFE552E552E552F3
:102F9000E552E80EE66E030EE66EE66AE66A9DEC22
:102FA00018F0E552E552E552E552070EE66EE66A84
:102FB0005C0EE66E0D0EE66E8BDFE552E552E552D5
:102FC000E552E80EE66E030EE66EE66AE66A9DECF2
:102FD00018F0E552E552E552E552060EE66EE66A55
:102FE000630EE66E0D0EE66E73DFE552E552E552B6
:102FF000E552E80EE66E030EE66EE66AE66A9DECC2
:1030000018F0E552E552E552E552050EE66EE66A25
:10301000690EE66E0D0EE66E5BDFE552E552E55297
:10302000E552E80EE66E030EE66EE66AE66A9DEC91
:1030300018F0E552E552E552E552050EE66EE66AF5
:103040006E0EE66E0D0EE66E43DFE552E552E5527A
:10305000E552E80EE66E030EE66EE66AE66A9DEC61
:1030600018F0E552E552E552E552050EE66EE66AC5
:10307000440EE66E0D0EE66E2BDFE552E552E5528C
:10308000E552E80EE66E030EE66EE66AE66A9DEC31
:0C30900018F0E552E552E552E55212003E
:04309C001E0EF66EA0
:1030A000000EF76E000EF86E0D010900F550786FF6
:1030B0000900F550796F03E1786701D03DD0090030
:1030C000F550736F0900F550746F0900F550756F76
:1030D00009000900F550E96E0900F550EA6E090093
:1030E00009000900F550766F0900F550776F090067
:1030F0000900F6CF7AFDF7CF7BFDF8CF7CFD73CDCD
:10310000F6FF74CDF7FF75CDF8FF0D01765302E1A0
:10311000775307E00900F550EE6E7607F8E277077F
:10312000F9D77ACDF6FF7BCDF7FF7CCDF8FF0D0107
:0A3130007807000E795BBFD712008C
:06313A00D9CFE6FFE1CF52
:10314000D9FF040EE126DE6ADE6ADE6ADD6ADD5240
:10315000DD52FB0EDBCF10F0FC0EDBCF11F0FD0ECD
:10316000DBCF12F0FE0EDBCF13F0D9CFE9FFDACFC1
:10317000EAFF1050EE5C1150EE581250EE5813500A
:10318000EE580AE2D9CFE9FFDACFEAFFEE2A000EC5
:10319000EE22EE22EE22DDD7040EE15C02E2E16ACD
:0C31A000E552E16EE552E7CFD9FF1200C6
:0431AC0004500902C0
:1031B000F3CF00F0F4CF01F00A02F3500126000E25
:1031C000F420026E04500B02F3500226000EF4208D
:1031D000036E04500C02F350032605500902F3500D
:1031E0000126F4500222000E032205500A02F35079
:1031F0000226F450032205500B02F350032606501A
:103200000902F3500226F450032206500A02F3503A
:0C321000032607500902F35003261200A9
:04321C00DACFE4FF22
:10322000E2CFDAFFE9CFE4FFEACFE4FFE652A4AA57
:103230001CD06BA008D06B906ECF31FD010E0D013C
:10324000326F336B12D06BA204D00D01010E226FCE
:103250000CD0000E0D013225E96E010E3321EA6E0D
:103260006ECFEFFF322B000E3323E552E5CFEAFF9E
:0A327000E5CFE9FFE5CFDAFF11001A
:06327A00036A026A016A0A
:10328000006A200EE76ED8900436053606360736FB
:1032900000360136023603360950005C0A500158E8
:1032A0000B5002580C50035809E30950005E0A50B5
:1032B000015A0B50025A0C50035A042AE72EE4D745
:0232C0001200FA
:0E32C200000EF36E00EE00F0020E0DD8000EAE
:1032D000F36E0AEE00F00F0E07D8000EF36E02EE4A
:1032E00000F00A0E01D81200EA6002D0EE6AFCD7A4
:0A32F000F350E9601200EE6AFCD70B
:0632FA001EEE00F02EEEB6
:1033000000F0F86A0F9C4EEC18F003EC00F040EC73
:0633100011F0FBD71200D2
:0A331600FE0EE3CFE9FFFF0EE3CF48
:10332000EAFFF36AF46AEE5203E0F34AF42AFBD7A9
:02333000120089
:0E333200034D47505381010E000000000000C3
:103340000000000000000001000000060000000076
:10335000000000000000000000000000000000006D
:10336000000000000000000000000000000000005D
:0633700000000000000057
:06337600000000003075AC
:04337C001027011005
:1033800003100E100310210110031018100310D7A2
:103390000201100310D7030100100310A003011055
:0B33A0000310D501100310F4141003FB
:020000040030CA
:0100010022DC
:010002000FEE
:010003001EDE
:010005008377
:010006008178
:010008000FE8
:01000900C036
:01000A000FE6
:01000B00E014
:01000C000FE4
:01000D0040B2
:00000001FF
