:020000040800F2
:100000005004002049310008F1300008F3300008A6
:10001000F5300008F7300008F93000080000000053
:10002000000000000000000000000000FB3000089D
:10003000FD30000800000000FF300008013100081A
:1000400085310008893100088D31000891310008A0
:1000500095310008993100089D310008A131000850
:10006000A5310008A9310008AD310008B131000800
:10007000B5310008B9310008BD310008C1310008B0
:10008000C5310008C9310008CD310008D131000860
:10009000D5310008D9310008DD310008E131000810
:1000A000E5310008E9310008ED310008F1310008C0
:1000B000F5310008F9310008FD310008013200086F
:1000C00005320008093200080D320008113200081C
:1000D0001532000809310008193200081D320008E5
:1000E0002132000825320008293200082D3200088C
:1000F000313200082DE9F04FA1B0804600201746AC
:100100001D4602910B900DF1440A6FF000490AE080
:1001100017F8011B0298C0470028029000F0A78240
:100120000B98401C0B90387808B90B98A1E2252851
:10013000EED10020059006900790089009900A9053
:1001400001E040F0010017F8011F2029F9D0232910
:100150000DD02B2904D02D2906D030290AD00CE04F
:1001600040F0020080B2EEE740F00400FAE740F011
:100170000800F7E740F01000F4E72A290ED12968BB
:10018000296051F8042B2960002A0D9204D55142B0
:1001900040F004000D9180B27F1C11E000210D9110
:1001A00009E00D99494505D001EB810302EB4301BC
:1001B00030390D917F1C3A78A2F130010A29F0D331
:1001C00039782E2903D04FF0FF310C911DE017F83C
:1001D000011F2A2907D1296829607F1C51F8042BA7
:1001E00029600C9211E000210C9109E00C9949451D
:1001F00005D001EB810302EB430130390C917F1CE8
:100200003A78A2F130010A29F0D3ADF838000FF6A0
:100210007040397800F042FE08B117F8010B8DF8F4
:100220003A009DF83A00682802BF397868296220B0
:1002300005D06C2804BF38786C2803D171208DF864
:100240003A007F1C11A8049017F8014BB4F1250067
:1002500029D01C3800F0C280001F022840F2BE8066
:10026000133800F0E380093800F0B880801E00F0F9
:100270004A81401E00F02381401E022840F2AE80D9
:10028000001F00F01C81401F79D0401E00F0CE807E
:10029000401E24D0C01E0BD0801E00F0C780C01EA0
:1002A00000F0C48039E125208DF8440001203DE1B3
:1002B0002868286050F8046B286003960C9C002C7A
:1002C00004D5304600F0F6FD044606E02246002143
:1002D000304600F00BFE00B1841B069427E129682C
:1002E00029603C2451F8040B29600021CDE900016C
:1002F00011A80390DDE90001049E11B908B90C9A18
:10030000B2B10206120FA0EB02123032D2B2631E5B
:100310003A2AA8BF273200099A5540EA0170090914
:1003200008BF00281C4603D0039AA3199A42E8D3B9
:10033000A0190390C4F13C010C980691814209DA9E
:10034000401A08904FF6EF71BDF838000840ADF83C
:100350003800ECE0002840F1EA809DF8380000F019
:100360001400102840F0E3800D98059A801A089A2E
:10037000801A441A012CC0F2DA800894D7E09DF864
:100380003A0062281AD0682806D06A280CD06C2857
:100390001CD0712808D019E02868286050F8041B88
:1003A00028600B980880C2E02868286050F8042B69
:1003B00028600B98C117C2E90001B8E028682860DE
:1003C00050F8041B28600B980870B0E0286828607B
:1003D00050F8041B28600B980860A8E02868C01D2E
:1003E00020F007022A60D2E9000108322A60CDE934
:1003F0000001002902D505982D210AE0BDF838003A
:10040000810702D505982B2103E0C00705D5059883
:10041000202100F80A10401C059011A80599081821
:1004200003902146684600F0E1F980E09DF83A002B
:100430006C280DD0712818BF6A2809D12868C01D02
:1004400020F007022A60D2E9000108322A6005E0A4
:100450002968296051F8040B29600021CDE90001C9
:100460009DF83A00682803D1DDE9000180B20BE075
:10047000622803D1DDE90001C0B205E0742818BF8D
:100480007A2804D1DDE900010021CDE900019DF8C1
:10049000380000072ED5DDE90001002908BF00283B
:1004A00028D044F02000782824D10598302100F885
:1004B0000A10401C411C059100F80A401AE09DF802
:1004C0003A00294600F0D8F8CDE90001002902DA07
:1004D00005982D210AE0BDF83800810702D505985E
:1004E0002B2103E0C00705D50598202100F80A104C
:1004F000401C059011A805990818039021466846EC
:1005000000F0F1F813E0012005902868286050F809
:10051000041B28608DF8441009E025208DF8440064
:10052000012005901CB18AF80140022005900D9829
:100530000599401A0899401A0699401A0999401AD3
:100540000799401A0A99441A9DF83800400710D4B8
:100550002020012C8DF840000BDB2646012310AA39
:100560006946404600F074FC002840F08080761E0A
:10057000F4D1DDF814B0BBF1000F11AE0CD016F8B9
:10058000011B0298C0470028029070D00B98401CB5
:10059000BBF1010B0B90F2D130208DF84000089E8A
:1005A000012E09DB012310AA6946404600F050FCE9
:1005B00000285CD1761EF5D1DDF818B0039EBBF1A2
:1005C000000F0CD016F8011B0298C04700280290BB
:1005D0004DD00B98401CBBF1010B0B90F2D1302099
:1005E0008DF84000099E012E09DB012310AA6946FF
:1005F000404600F02DFC002839D1761EF5D1039835
:100600000699DDF81CB00E18BBF1000F0BD016F8E0
:10061000011B0298C047029048B30B98401CBBF1E5
:10062000010B0B90F3D130208DF840000A9E012E73
:1006300008DB012310AA6946404600F009FCB0B966
:10064000761EF6D19DF8380040077FF56CAD20206E
:10065000012C8DF84000FFF666AD012310AA694613
:10066000404600F0F5FB10B9641EF6D15BE54FF093
:10067000FF3021B0BDE8F08F622826D068281DD059
:100680006A2808D06C2827D0712804D0742823D079
:100690007A280CD020E00868C01D20F00700086010
:1006A000D0E90023083008601946104670470A68F0
:1006B0000A6052F8040B0A60002170470A680A6059
:1006C00052F8040B0A6000B20BE00A680A6052F8A4
:1006D000040B0A6040B204E00A680A6052F8040B96
:1006E0000A60C11770472DE9FA4E05460A462F6980
:1006F0006F2A08BF082405D041F02000782814BFD5
:100700000A2410243C26D5E90001642A18BF692A6E
:1007100081468A4605D1002903DAD9F100096AEB3E
:100720004A0ABAF1000F08BFB9F1000F0CD1286BCB
:1007300050B9082C36D195F83800000732D5302052
:100740003B2687F83B002DE0E317484651462246FA
:1007500000F0F8FBA4FB0023A9EB02023032D2B276
:10076000A6F1010B3A2A5E4603DB9DF80030513BAF
:100770009A180BF8072081465FEA010A08BFB9F111
:10078000000F03D0E868F1198842DDD3082C09D1A5
:1007900095F83800000705D5F05D302802D0761EA8
:1007A0003020F055C6F13C00A861F119E960296BD1
:1007B000884208DA081A28624FF6EF71288F08403D
:1007C0002887BDE8F38E00290ED595F8381001F082
:1007D0001401102908D1696B6A69891A2A6A891A71
:1007E0000E1A012EA8BF2E62BDE8F38E2DE9F24F3E
:1007F00004468EB0D4E90001CDE9020104AF9DF8B2
:10080000380040F0200BBBF1610F0AD0206B0028AC
:1008100048BF062004D408BFBBF1670F01D10120F7
:1008200020636168C1F30A5040F2FF7290421CD10C
:10083000080304BF2068002809D10320A0619DF8A7
:10084000380061381A2836D30FF2486108E00320D7
:10085000A0619DF8380061381A2829D30FF22C6165
:10086000E068032200F0E6FBBEE1012816DA20462C
:1008700000F01BFC012811DB00250020BBF1610FFB
:1008800020D1E168302201F8012B4A1CE2609DF87A
:100890003820612A0CBF782258220FE0626840F2AB
:1008A000FE3161F31E52451A62604FF0FF30E5E7FA
:1008B0000FF2D451D4E70FF2D851D1E70A70616931
:1008C000891C616110B90026002584E1BBF1610F2C
:1008D00040F09880206B00284CBF2126461CD4E9AC
:1008E00000ABDDE902010022002300F0FFFB36B27D
:1008F0003ABF8BF00040CDE902A0CDE902AB06F192
:1009000001082D1FB8F1010F8DF810200DF111070E
:1009100036DBDDE902010022002300F0FFFB2FD2CD
:100920001C2102A800F012FCDDE9020100F094FC99
:10093000A8F10708B8F1010F814609DB00F0B8FC07
:1009400002460B46DDE9020100F0CAFCCDE90201D6
:10095000F81D072105E009F00F0200F8012D4FEA0C
:100960002919B9F1010F01DB491EF4D5491E5CBFFD
:10097000002200F8012DF9D5C71DB8F1010FC8DA22
:100980000DF11100391AB142B8BF0E4636B230002F
:100990000DF111072FD4884206DA04A941184978CD
:1009A0000829A8BF0F2100DA002104AA821800E05C
:1009B000761E12F80139401E8B42F9D00F2904D15E
:1009C00004A941184A78521C4A70002802D504AF85
:1009D000761C2D1D36B2701E0DD4C1190A78303226
:1009E000D2B23A2A03DB9DF838303A3B9A18401EBF
:1009F00001F80129F2D5206B002840F1EC80701E2F
:100A00002063E8E0DDE902010022002300F06EFB34
:100A10003CBF81F00041CDE902012DB247F2975071
:100A200068434B49DFF82C9190FBF1F52DB2C5F1ED
:100A3000070ABAF1010F90461CDBDDE902675FEAA5
:100A4000CA7007D542464B463046394600F008FD8D
:100A500006460F464046494642464B464FEA6A0A1A
:100A600000F0FEFCBAF1000F80468946E7D1CDE9DF
:100A7000026724E0CAF1000A0026374F14E05FEA5B
:100A8000CA7007D542464B463046394600F0E8FC6E
:100A900006460F464046494642464B4600F0E0FCBB
:100AA0004FEA6A0A80468946BAF1000FE7D1DDE9CC
:100AB000020132463B4600F0A5FDCDE90201BBF143
:100AC000660F0CBF05F10A000620216BDFF88C9041
:100AD0004618142EA8BF132630208DF810000DF1F3
:100AE0001107012E3CDBDDE9020100F0CBFB07F131
:100AF000080104220A23B0FBF3F303EB8307A0EB06
:100B00004700303001F8010C0A20B3FBF0F000EB95
:100B10008007A3EB47033033521E01F8023DE9D1B1
:100B2000083E012E01F10807DBDBDDE9020100F0E0
:100B3000A9FB00F0C7FB02460B46DDE9020100F00D
:100B4000CFFB00224B4600F08BFCCDE90201CAE747
:100B5000A0860100000024400000F03F84D79741A8
:100B60000DF11100381A0DF1110702E0401E6D1E43
:100B70007F1C39783029F9D0BBF1660F02D12DB234
:100B8000691C04E0BBF1650F0CBF01210021226B41
:100B90008E1836B2B042B8BF064636B231001AD40B
:100BA000814204DAC85D3528A8BF392000DA302038
:100BB000CA19521E00E0761E12F80139491E8342FE
:100BC000F9D0392802D1C85D401CC855002902D58A
:100BD0007F1E761C6D1C2DB29DF83810009533B227
:100BE0003A46204600F003F80FB0BDE8F08F2DE93B
:100BF000F043054685B01E46D5F83080012E894663
:100C0000174602DA01260FF2902749F02000BDF9BD
:100C10003040662808BF641C17D0672840F08280E7
:100C200014F1040FC0F28480444580F2818095F86D
:100C30003800641C000702D44645B8BFB04624B251
:100C4000B8EB040848BF4FF0000824B2E868A9696F
:100C5000012C25DA4A1C30230B54B8F1010F03DABA
:100C600095F83810090702D52E211154521CAA619B
:100C700018EB040FB8BFC8F1000424B26142A044CD
:100C80006962B045B8BF4646AB6936B2EE613246DE
:100C90003946181800F0CEF9A8EB0600A862C0E0AB
:100CA0000818A64218DA3246394600F0C3F9A96995
:100CB0007118A01BB8F1010FA961686203DA95F8F9
:100CC0003800000705D5EA682E208854E869401CE2
:100CD000E861C5F82880A4E02246394600F0AAF968
:100CE000A8692018361BB8F1010F03DA95F83810FF
:100CF000090703D5EA682E218154401C36B2A86149
:100D0000B045B8BF4646E868AB6936B23246E1192D
:100D1000181800F08FF9A8693018A861A8EB060030
:100D200068627EE0B9F1610F16D14FF0700918E0EA
:100D3000464504DA95F83810090758BFB046B8F1AF
:100D4000010848BF4FF00008B9F1670F14BF4FF01A
:100D500045094FF0650904E0B9F1410F08BF4FF0B4
:100D60005009A969E8684A1CAA61B8F1010F17F88F
:100D7000013B0B5403DA95F83810090717D5531CBB
:100D8000AB612E211154B8F1010F10DB761E36B283
:100D9000B045B8BF464636B232463946181800F05C
:100DA00049F9A8693018A861A8EB06006862E868EC
:100DB000A9690918200081F8009003D42B204870FD
:100DC0008F1C03E02D224A708F1C644200260DF117
:100DD000080808E00A22684600F03FFD019808F87C
:100DE000010B761C009C21B20129F3DA022E06DAEF
:100DF00049F02000652804BF302007F8010B4EB9E8
:100E0000302007F8010B07E0761E02A8305C303076
:100E100007F8010B012EF7DAE868A9690818381AF3
:100E2000E86195F8380000F0140010280DD16869C9
:100E3000A9690818696A0818E9690818A96A0818E8
:100E4000696B8842BCBF081A286205B0BDE8F08310
:100E5000F8B504460D4616461F46002077B116F831
:100E6000011BA868A047A86030B1E86A401CE8628E
:100E700000207F1EF3D1F2BD4FF0FF30F2BD000025
:100E8000686A6C747A4C00006E616E004E414E00D0
:100E9000696E6600494E4600300000000278C9B213
:100EA0008A421AB11CBF10F8012FF9E718BF0020C1
:100EB0007047000000F10103810704D010F8011B06
:100EC00089B18107FAD10268B2F10131914311F081
:100ED000803F04BF50F8042FF6E710F8011B11B152
:100EE00010F8011BFBE7C01A70470000C9B2830766
:100EF00006D0521E22D310F8013B9942F7D11FE0D1
:100F0000083A13D302F1040241EA012141EA014106
:100F100050F8043B121F21BF4B40A3F1013C2CEAC7
:100F2000030C1CF0803FF3D0C9B2001F083210F848
:100F3000013B521E28BF91EA030FF8D818BF0120C9
:100F4000401E70471B4213D1094236D12AB1844654
:100F5000B0FBF2F002FB10C2704700F085BCFCD37E
:100F60000022002370470B00020000210020704780
:100F7000904271EB030CF6D370B5B1FA81F4B3FA79
:100F800083F52C1BA340C4F1200532FA05F6334348
:100F9000A2405FF00046E64002E05B085FEA3202F2
:100FA000841A71EB030524BF204629467641F4D309
:100FB00002000B003000002170BD012ACFD970B5AE
:100FC000140C20D0B1FA81F4B2FA82F5C4F12004F5
:100FD0006419B4F12006D6D3B2405FF00044F44067
:100FE000002502E052085FEA3303C61A71EB020ED5
:100FF00024BF3046714664416D41F3D302000B00BB
:101000002000290070BD0C46B1FBF2F102FB114536
:101010002D0445EA1045B5FBF2F402FB145580B2ED
:1010200040EA0545B5FBF2F002FB105240EA0440ED
:1010300070BD000062B38B0708D0521E11F8013B4F
:1010400000F8013B00F024808B07F6D1830740F0C5
:10105000208000BF103A07D330B4B1E83810103AFE
:10106000A0E83810F9D230BC530724BFB1E808100B
:10107000A0E8081044BF51F8043B40F8043BD207F5
:1010800024BF31F8022B20F8022B44BF0B780370E9
:101090007047083A07D3B1E80810083A40F8043B13
:1010A00040F804CBF7D25307E4E730B4436803F0C9
:1010B000004201211B031B0B436004BF0368002B8C
:1010C00008D10DE00368DD0F45EA440444605B008D
:1010D0000360491E4468E302F4D523031B0B4360FD
:1010E00043681A434260084630BC70474FF4001C06
:1010F0001CEB410F94BF1CEB430F09E041EA030CCA
:1011000050EA4C0C52EA0C0C03D2994208BF9042B0
:10111000704714BF8B428242704700004FF4001C9E
:101120001CEB410F94BF1CEB430F09E041EA030C99
:1011300050EA4C0C52EA0C0C03D28B4208BF82429C
:10114000704714BF994290427047000070B5044642
:101150000D466068C0F30A5040F2FF71884207D123
:101160006068000304BF2068002817D0022070BD0B
:1011700020B92046FFF799FF012866DA012D0FDB21
:1011800040F2FF71091A8D420AD36068002847BFF8
:1011900000202F4900202F49C4E90001012070BD23
:1011A0004142A942616806DA6FF31E51401941EAD3
:1011B0000050606040E0401E63684519012205F15F
:1011C000350062F31F53352801F00041636003D3FB
:1011D00061600020206070BD002015F11F0F04DA4F
:1011E000206823600022203562606A4212D0401ECF
:1011F00025688041C2F12003C0439D4045EAD0707C
:1012000025686668D54006FA03F32B4323606368BC
:10121000D340636062680A43B0F1004F626003D854
:101220000DD12078C0070AD52068401C20602068B6
:1012300028B96068401C60604FF0FF3070BD606886
:10124000884204BF20680028F6D1002070BD00BF8E
:101250000000F0FF0000F07FF446400D40EAC1209E
:10126000490006D200F014F8004248BF6FF0004079
:10127000604700F00DF84FF0004188428CBF0846EF
:1012800040426047400D40EAC120490080F00D8097
:1012900040F00040490DA1F58061491C05D4D1F111
:1012A0001F0154BFC840C01770474FF0000070477F
:1012B000010040F10980F446404200F005F851F089
:1012C00000416047010000BF09D0B0FA80F18840BA
:1012D000C91CC1F58461090501EBD02140057047A7
:1012E000F0B44FF0004591EA030F44BF6B4000F0AB
:1012F000BDBA00BF841A71EB030604D26E40001B16
:10130000B141121973414FF4001C1CEB410F34BF63
:101310007CEB430684E00C0DA4EB1356362E7DDCEB
:10132000012E43DC45EAC32343EA525312BFD202E3
:1013300092025B08240545EAC12141EA5051D2EBF3
:10134000C020994125D407D1B0FA80F610FA06F1F1
:1013500064D00020203608E0B1FA81F6B140C6F131
:10136000200220FA02F21143B0404FEAF474B4EBC9
:10137000465434F001064FEA74040AD8D6F5001634
:10138000760D04F00044F04061FA06F25040F1405E
:101390004840C00A40EA415021F0004128BF5FEABE
:1013A000500550F1000044EBD12137E045EAC3235A
:1013B000DB0A45EAC121C90AB6F120050EDD42EA81
:1013C0000242120CC5F1200603FA06F6EB4042EA8F
:1013D00006056D42984161F100010DE062FA06F5E3
:1013E000F240554063FA06FC82EA0C02F3405A4090
:1013F0006D42904161EB030111F4801F05D1641E21
:10140000620502D06D004041494121F4801143083A
:1014100075F1004350F1000041EB0451F0BC7047FE
:101420001CEB410F15D223F0004352EA43060BD0C8
:101430004FEA4C0CBCEB410F04D80C0D661E342E49
:10144000B7DDEBE7801A994150EA410608BF002159
:10145000E4E708BF1CEB430F28BF6FF00001DDE796
:10146000B0B581EA030C0CF0004C40F2FF7515EAB0
:1014700011541DBF15EA1357AC42AF4239E0E419CD
:1014800023EA455343F48013C90241F0004141EA85
:10149000505EC7021100A7FB020200284FF00000B7
:1014A000EEFB01204FF00001E3FB072118BF42F0E3
:1014B0000102401800214941E3FB0E01A4F58064BC
:1014C0000F0302D252004041494154F101046CDD46
:1014D000470872F1004250F1000051EB0451A1F5B0
:1014E00080115CBF41EA0C01B0BD4CEA05510020FF
:1014F000B0BD05EA1357AC4214BFAF4241E050EA19
:10150000410E1CBF52EA430E02E061460020B0BD0E
:1015100024423C441BD15FEA070EF6D0090302BF08
:1015200001460020AEF1140EB1FA81F7AEEB0704CC
:1015300001FA07FE0C37C7F1200100FA07F7C8408F
:101540004EEA000E23EA455343F48013A2E733F03A
:101550000043B3FA83F704BFB2FA82FE77440B3F2D
:10156000E41BB7F1200E2FBF02FA0EF3BB40C7F108
:10157000200E22FA0EFE38BF43EA0E03BA40641C66
:1015800082E750EA410E14BF52EA430E6FF00001A9
:101590004FF4001717EB430F8ABF194617EB410FA3
:1015A000B5E74CEA05510020B0BDD4F10104B4F117
:1015B00020070FDAC4F12007520828BF42F00102C9
:1015C00010FA07F501FA07F7E1BF2A43E040384374
:1015D000E1400FE0352C98DCC7F1200452EA4002CC
:1015E00020FA07F218BF42F0010231FA07F0A140D9
:1015F0000A43002172F1004250F1000051EB0C014E
:10160000B0BD00002DE9F04140F2FF7581EA030C06
:101610000CF0004C15EA11541DBF15EA1357AC42EB
:10162000AF42E9E0BC41C1F31301C3F31303801AD5
:10163000994143F4801304D2641E4000494180184C
:101640005941C90241EA5051B1FBF3F603FB1611AF
:10165000A2FB0675D7EBC020A94102D2761E8018E6
:101660005941C90241EA5051B1FBF3FE03FB1E117F
:10167000A2FB0E75D7EBC020A94103D2AEF1010E3B
:1016800080185941890241EA9051760546EA8E2E2A
:10169000B1FBF3F603FB1611A2FB0675D7EB802016
:1016A000A94102D2761E80185941C90241EA50511F
:1016B0004EEA060EB1FBF3F603FB1611A2FB06750C
:1016C000D7EBC020A94102D2761E80185941C90229
:1016D00041EA5051B1FBF3F703FB1711A2FB0735A9
:1016E000D3EBC020A94167F100070CBF004247F0CF
:1016F000010766F3D5274FEA1E31B80814F5806458
:1017000014DDBD0775F1004250EB0E5051EB045152
:1017100011F5801F5CBF41EA0C01BDE8F0814CF07F
:101720007F6141F0E0410020BDE8F081BD076D0818
:1017300040EA0E5041F48011D4F10104B4F12006C6
:101740000ADAC4F120060200E04001FA06F3E140A3
:101750001843B24015430EE0342C14DCC6F12004CB
:1017600045EA40056D0820FA06F2154321FA06F015
:10177000A1400D43002175F1004250F1000051EBF2
:101780000C01BDE8F08100205FEA0C01BDE8F081AA
:10179000CFB992185B41B3FA83F704BFB2FA82F66D
:1017A000BF190B3FB7F120062FBF02FA06F3BB406B
:1017B000C7F1200622FA06F638BF3343BA401CB1FF
:1017C000E419641E2FE77F4231F00041B1FA81F441
:1017D00004BFB0FA80F6A4190B3CB4F120062FBF69
:1017E00000FA06F1A140C4F1200620FA06F638BF3F
:1017F0003143A0403C1B16E7AC421ABF05EA135721
:10180000AF4214E050EA41061CBF52EA4306BFE76C
:1018100050EA4107304661461CBF41EA0551BDE828
:10182000F08152EA430C08BFC143BDE8F0810020BB
:101830004FF4001616EB410F98BF16EB430F08BF8D
:1018400016EB410F24BFC14305E016EB430F0CBF5D
:1018500061464CEA0551BDE8F08191FBF2F303FBD0
:101860001211C0E90031704770470000841A71EB13
:10187000030603D2001BB141121973414FF4001C3F
:101880001CEB410F34BF7CEB430443E00C0DA4EB95
:101890001356352E50DC45EAC323DB0A45EAC12145
:1018A000C912B6F120050DDD63FA05F6EB4086EAB4
:1018B0000305124218BF45F00105C01851F100019F
:1018C0000CD213E062FA06F5F2405540F3415A405B
:1018D000B340F3405A408018594107D349085FEAA2
:1018E00030005FEA350528BF45F0010501F580119C
:1018F000420875F1004250F1000041EB0451F0BC88
:101900004FF4001C1CEB410F38BF70470020090D3D
:10191000090570471CEB410F10D252EA43060BD069
:10192000BCEB410F05D80C0DAB43661E342EB5DD64
:1019300002E0AB4380185941F0BC7047F0BC7047DF
:1019400038B5040000252078C00740F1C680DFF8D4
:10195000A00B006810F00C0008280BD0DFF8900BEB
:10196000006810F00C000C2826D1DFF8840B00680A
:10197000C00321D54FF48040B0FA80F050F0200031
:10198000C0B24009C0B2012803D1DFF8600B006883
:1019900002E0DFF8680B00684FF48041B1FA81F192
:1019A00011F01F01C840C00740F19780606800280F
:1019B00040F093800120CEE36068012808D1DFF871
:1019C0002C0B006850F48030DFF8201B086037E0F3
:1019D0006068002810D1DFF8140B006830F4803004
:1019E000DFF8081B0860DFF8040B006830F4802083
:1019F000DFF8F81A086023E06068052810D1DFF8E6
:101A0000EC0A006850F48020DFF8E01A0860DFF884
:101A1000DC0A006850F48030DFF8D01A08600FE06C
:101A2000DFF8C80A006830F48030DFF8C01A0860B8
:101A3000DFF8B80A006830F48020DFF8B01A0860D8
:101A40006068002824D000F0EEFD05004FF48040CF
:101A5000B0FA80F050F02000C0B24009C0B20128B6
:101A600003D1DFF8880A006802E0DFF8900A006816
:101A70004FF48041B1FA81F111F01F01C840C00755
:101A80002BD400F0D0FD401B6528DFD3032062E398
:101A900000F0C9FD05004FF48040B0FA80F050F02E
:101AA0002000C0B24009C0B2012803D1DFF83C0ACF
:101AB000006802E0DFF8440A00684FF48041B1FAA0
:101AC00081F111F01F01C840C00706D500F0ABFD41
:101AD000401B6528DFD303203DE32078800740F1D9
:101AE000B480DFF80C0A006810F00C0004280BD05A
:101AF000DFF8FC09006810F00C000C2835D1DFF885
:101B0000F0090068C00330D45FF08040B0FA80F084
:101B100050F02000C0B24009C0B2012803D1DFF864
:101B2000CC09006802E0DFF8D40900685FF080416A
:101B3000B1FA81F111F01F01C840C00704D5E06877
:101B4000012801D0012006E3DFF8A80900685FF44E
:101B50007801B1FA81F130F4F850226912FA01F1FA
:101B60000843DFF8901908606FE0E06800283ED075
:101B700001205FF00041B1FA81F1DFF8182A42F844
:101B8000210000F050FD05005FF08040B0FA80F0C9
:101B900050F02000C0B24009C0B2012803D1DFF8E4
:101BA0004C09006802E0DFF8540900685FF08041EA
:101BB000B1FA81F111F01F01C840C00706D400F04E
:101BC00032FD401B0328DFD30320C4E2DFF82409E1
:101BD00000685FF47801B1FA81F130F4F8502269BD
:101BE00012FA01F10843DFF80C1908602DE000201B
:101BF0005FF00041B1FA81F1DFF8982942F8210045
:101C000000F011FD05005FF08040B0FA80F050F068
:101C10002000C0B24009C0B2012803D1DFF8CC08CF
:101C2000006802E0DFF8D40800685FF08041B1FA94
:101C300081F111F01F01C840C00706D500F0F3FC88
:101C4000401B0328DFD3032085E22078C00640F143
:101C5000EC80DFF89C08006810F00C0F6CD15FF48A
:101C60008000B0FA80F050F02000C0B24009C0B24D
:101C7000012803D1DFF87408006802E0DFF87C086F
:101C800000685FF48001B1FA81F111F01F01C840D2
:101C9000C00704D5A069002801D101205BE2DFF86C
:101CA0005408006810F46040216A884220D2206AFB
:101CB00000F026FC002801D001204CE2DFF83408B7
:101CC000006830F46040216A0843DFF82818086093
:101CD000DFF820080068FF21B1FA81F10002000A54
:101CE000E26912FA01F10843DFF8081808601FE002
:101CF000DFF80008006830F46040216A0843DFF82C
:101D0000F4170860DFF8EC070068FF21B1FA81F1F1
:101D10000002000AE26912FA01F10843DFF8D41761
:101D20000860206A00F0ECFB002801D0012012E2DC
:101D30000F2000F060FC78E0A069002847D0012067
:101D40005FF40001B1FA81F1DFF8482842F8210080
:101D500000F069FC05005FF48000B0FA80F050F0FC
:101D60002000C0B24009C0B2012803D1DFF87C07CF
:101D7000006802E0DFF8840700685FF48001B1FAD0
:101D800081F111F01F01C840C00706D400F04BFCE0
:101D9000401B0328DFD30320DDE1DFF8580700688C
:101DA00030F46040216A0843DFF848170860DFF824
:101DB00044070068FF21B1FA81F10002000AE269DC
:101DC00012FA01F10843DFF82C1708602DE000201B
:101DD0005FF40001B1FA81F1DFF8B82742F8210081
:101DE00000F021FC05005FF48000B0FA80F050F0B4
:101DF0002000C0B24009C0B2012803D1DFF8EC06D0
:101E0000006802E0DFF8F40600685FF48001B1FAD0
:101E100081F111F01F01C840C00706D500F003FC96
:101E2000401B0328DFD3032095E12078000748D525
:101E30006069002822D001205FF00041B1FA81F1F1
:101E4000DFF8542742F8210000F0EDFB05005FF0B9
:101E50008040B0FA80F0DFF8A40600685FF08041AF
:101E6000B1FA81F111F01F01C840C00729D400F078
:101E7000DAFB401B0328EAD303206CE100205FF06B
:101E80000041B1FA81F1DFF8102742F8210000F09B
:101E9000CAFB05005FF08040B0FA80F0DFF85C0616
:101EA00000685FF08041B1FA81F111F01F01C84074
:101EB000C00706D500F0B7FB401B0328EAD3032078
:101EC00049E12078400740F1A580DFF8D00600689E
:101ED00050F08050DFF8C4160860DFF8C0060068D4
:101EE00010F0805000900098DFF8B406006850F4BD
:101EF0008070DFF8AC16086000F095FB0500DFF895
:101F0000A0060068C00506D400F08DFB401B6528C4
:101F1000F5D303201FE1A068012808D1DFF8DC0514
:101F2000006850F48070DFF8D415086037E0A068CE
:101F3000002810D1DFF8C405006830F48070DFF8A5
:101F4000BC150860DFF8B405006830F48060DFF885
:101F5000AC15086023E0A068052810D1DFF89C05C7
:101F6000006850F48060DFF894150860DFF88C0595
:101F7000006850F48070DFF8841508600FE0DFF827
:101F80007C05006830F48070DFF870150860DFF8B9
:101F90006C05006830F48060DFF860150860A068A8
:101FA00000281BD000F03FFB05005FF48000B0FA72
:101FB00080F0DFF8480500685FF48001B1FA81F134
:101FC00011F01F01C840C00724D400F02CFB401BB7
:101FD00041F289318842E8D30320BCE000F023FBC2
:101FE00005005FF48000B0FA80F0DFF810050068AB
:101FF0005FF48001B1FA81F111F01F01C840C00700
:1020000008D500F010FB401B41F289318842E8D32B
:102010000320A0E0606A002800F09C80DFF8D00474
:10202000006810F00C000C2800F09280606A022812
:1020300063D100208021B1FA81F1DFF8582542F800
:10204000210000F0F0FA05004020B0FA80F050F0D6
:102050002000C0B24009C0B2012803D1DFF88C04CF
:10206000006802E0DFF8940400684021B1FA81F1D1
:1020700011F01F01C840C00706D500F0D4FA401B7C
:102080000328E1D3032066E0DFF86404006830F43D
:102090007D00A16A0843E16A0843216B0843DFF829
:1020A0005014086001208021B1FA81F1DFF8E424A6
:1020B00042F8210000F0B7FA05004020B0FA80F0A5
:1020C00050F02000C0B24009C0B2012803D1DFF8AF
:1020D0001C04006802E0DFF8240400684021B1FA23
:1020E00081F111F01F01C840C00733D400F09BFA02
:1020F000401B0328E1D303202DE000208021B1FA0A
:1021000081F1DFF8902442F8210000F08CFA0500FC
:102110004020B0FA80F050F02000C0B24009C0B2B8
:10212000012803D1DFF8C403006802E0DFF8CC0324
:1021300000684021B1FA81F111F01F01C840C007C9
:1021400008D500F070FA401B0328E1D3032002E019
:10215000012000E0002032BD70B504000D00002613
:10216000DFF84004006810F00100A8421BD2012DE6
:1021700007D1DFF83004006850F00400DFF82414C1
:102180000860DFF820040068400840002843DFF8BA
:1021900014140860DFF80C04006810F00100A84275
:1021A00001D0012026E12078800709D5DFF840031F
:1021B000006830F0F000A1680843DFF834130860CD
:1021C0002078C00740F1C780606802281CD14FF416
:1021D0008040B0FA80F050F02000C0B24009C0B298
:1021E000012803D1DFF80403006802E0DFF80C03E4
:1021F00000684FF48041B1FA81F111F01F01C8402D
:10220000C00759D40120F5E06068032819D14020A7
:10221000B0FA80F050F02000C0B24009C0B20128EE
:1022200002D1B248006802E0DFF8D0020068402125
:10223000B1FA81F111F01F01C840C0073CD4012060
:10224000D8E0606801281BD15FF08040B0FA80F0D0
:1022500050F02000C0B24009C0B2012802D1A3480A
:10226000006802E0DFF8940200685FF08041B1FA94
:1022700081F111F01F01C840C0071DD40120B9E051
:102280005FF48000B0FA80F050F02000C0B2400946
:10229000C0B2012802D19548006802E0DFF85C0274
:1022A00000685FF48001B1FA81F111F01F01C840AC
:1022B000C00701D401209DE08D480068800880009F
:1022C000616808438A49086000F0ADF9060060685B
:1022D00002280ED18648006810F00C0008283AD079
:1022E00000F0A1F9801B41F289318842F2D303202A
:1022F00080E0606803280ED17D48006810F00C0073
:102300000C2828D000F08FF9801B41F289318842D7
:10231000F2D303206EE0606801280ED17448006893
:1023200010F00C00042816D000F07DF9801B41F25B
:1023300089318842F2D303205CE06D48006810F0D8
:102340000C0F08D000F06FF9801B41F289318842F0
:10235000F3D303204EE0DFF84C02006810F00100D8
:1023600085421BD2012D07D1DFF83802006850F0FA
:102370000400DFF830120860DFF828020068400827
:1023800040002843DFF81C120860DFF818020068DC
:1023900010F00100A84201D001202BE02078400776
:1023A00007D55348006830F4E060E16808435049BD
:1023B00008602078000708D54D48006830F4605068
:1023C000216950EAC1004A49086000F014F8484900
:1023D00009685FF07062B2FA82F2DFF8CC3111F076
:1023E000F001D140C95CC840434908600F2000F0AB
:1023F00002F9002070BDF0B4002100220023002467
:10240000002500203A4E3668310011F00C06042EEB
:1024100004D0082E05D00C2E06D030E0644E3000DB
:102420003EE0644E30003BE04FF47056B6FA86F65C
:10243000614F11F4701C3CFA06FC1CF80760320076
:102440004FF44076B6FA86F65C4F11F4400C3CFA35
:1024500006FC1CF807603300254E3668F60306D5E7
:10246000544E06FB02F6B6FBF3F6340005E0504E80
:1024700006FB02F6B6FBF3F63400200010E0504EE7
:10248000366816F460465FF4E027B7FA87F7FE4037
:10249000350001266F1CBE404FF400477E433000DC
:1024A000F0BC704714480068704780B5FFF7FAFF2A
:1024B0000F4909685FF46002B2FA82F2414B11F4ED
:1024C000E061D140C95CC84002BD80B5FFF7EAFFBA
:1024D000074909685FF4E012B2FA82F2394B11F44D
:1024E0006051D140C95CC84002BD000000380240C4
:1024F000083802400438024000000020343802400E
:1025000070B582B00400002500262848006810F04D
:10251000F00F24D121480068C00003D500F08CF8EA
:10252000050014E01D48006850F080501B49086009
:102530001A48006810F080500090009800F07CF875
:1025400005001648006830F0805014490860B5F561
:10255000C05F04D1B4F5404F01D101200600012E27
:1025600005D11048006850F004000E4908600D487D
:1025700000684008400030430A4908600948006884
:1025800010F00100B04201D0012000E0002076BD33
:102590000000000000004742800647422438024005
:1025A00000700040003C024038310008083802400A
:1025B0000024F40000127A0058310008803100082D
:1025C000043802407031000880B51848006850F0A7
:1025D0000400164908601548006850F002001349CD
:1025E0000860032000F08EF80F2000F004F800F0DF
:1025F000B7F8002002BD10B504000D4800684FF484
:102600007A71B0FBF1F000F096F8002221005FF043
:10261000FF3000F07DF8002010BD06480068401C27
:10262000044908607047034800687047003C024056
:10263000000000200C0000200248006810F4C05088
:10264000704700000070004010F007023D4B1B680F
:1026500019004FF6FF0319403B4B53EA022319437D
:10266000384B1960704737480068C0F30220704744
:1026700010B440B2002808D50A01344B40B210F023
:102680000F04E31803F8042C03E00A01304B40B2B6
:10269000C25410BC704770B4030013F00704D4F1A7
:1026A0000706052E01D3042001E0D4F10700261D02
:1026B000072E01D2002500E0E51E012616FA00F0E3
:1026C000401E0840A8400121A940491E114008436E
:1026D00070BC704710B50400601EB0F1807F01D35C
:1026E00001200EE0601E1B4908600F215FF0FF30E3
:1026F000FFF7BEFF0020184908600720174908604F
:10270000002010BD10B504002000FFF79DFF10BD94
:10271000F8B504000D0016000027FFF7A4FF07001E
:10272000320029003800FFF7B6FF0100200040B258
:10273000FFF79EFFF1BD10B504002000FFF7CAFFB0
:1027400010BD00000CED00E00000FA0518ED00E0FF
:1027500000E400E014E000E018E000E010E000E039
:102760007047000010B50400002C01D1012030E0BA
:10277000A0690028FFD194F83900002805D1002075
:1027800084F83800200000F025F8022084F8390091
:102790002068C06830F400502168C860200000F054
:1027A00061F92068006930F4904021680861206870
:1027B000406930F02A00216848612068C06850F400
:1027C00000502168C8600020E063012084F83900CF
:1027D000002010BD704770B582B0040000250026AF
:1027E0002068006810F0010005002068C06810F43F
:1027F00080700600002D05D0002E03D0E06B50F055
:102800000100E06320680068400810F00100050046
:102810002068406910F001000600002D05D0002E50
:1028200003D0E06B50F00400E0632068006880088B
:1028300010F001000500002D05D0002E03D0E06B44
:1028400050F00200E06320680068C00810F001004A
:102850000500002D05D0002E03D0E06B50F00800DD
:10286000E06320680068400910F00100050020685E
:10287000C06810F020000600002D04D0002E02D009
:10288000200000F08DF820680068C00910F00100F9
:1028900005002068C06810F080000600002D04D0FC
:1028A000002E02D0200000F026F820680068800981
:1028B00010F0010005002068C06810F0400006001C
:1028C000002D04D0002E02D0200000F051F8E06B63
:1028D00000280CD0206800680090206840680090B4
:1028E0000098012084F83900200000F003F873BD3F
:1028F00070477047704710B40100002391F8390009
:102900000300122B01D0322B2FD18868B0F5805FE5
:1029100011D1086A02001088C005C00D0C68606003
:102920000869002803D1086A801C086209E0086A67
:10293000401C086205E0086A441C0C6200780C68C0
:102940006060C88C401EC884C88C00280BD1086801
:10295000C06830F080000C68E0600868C06850F023
:1029600040000C68E060002000E0022010BC7047CE
:1029700010B504002068C06830F040002168C860CD
:1029800094F83900322803D1222084F8390002E07B
:10299000012084F839002000FFF7AAFF002010BDB5
:1029A00070B50400002694F839000600222E01D0EC
:1029B000322E55D1A068B0F5805F15D1A06A050010
:1029C0002069002808D120684068C005C00D288013
:1029D000A06A801CA06219E020684068C0B228800C
:1029E000A06A401CA06211E02069002806D1A06AFC
:1029F000411CA16221684968017007E0A06A411C7E
:102A0000A1622168496811F07F010170E08D401ECC
:102A1000E085E08D002821D12068C06830F02000DA
:102A20002168C86094F83900322803D1122084F854
:102A300039000EE02068C06830F480702168C860FA
:102A4000206840694008400021684861012084F8FE
:102A500039002000FFF74DFF002002E0002000E0D9
:102A6000022070BD2DE9F8430400002520680069AC
:102A700030F44050E168084321680861A06821698A
:102A8000084361690843E169084305002068C0689C
:102A9000B449084028432168C8602068406930F480
:102AA0004070A169084321684861E069B0F5004FB2
:102AB00040F0AC802068AC49884253D1FFF705FD57
:102AC0008146FFF702FD8046FFF7FFFC0700FFF796
:102AD000FCFC0600FFF7F9FC192101FB09F1626813
:102AE0005200B1FBF2F16422B1FBF2F1192202FBB8
:102AF00008F263685B00B2FBF3F2192303FB07F3F0
:102B000067687F00B3FBF7F36427B3FBF7F3642731
:102B100007FB1322D20032326423B2FBF3F212F02D
:102B2000F802520012EB0111192202FB06F263684F
:102B30005B00B2FBF3F21923584363685B00B0FB00
:102B4000F3F06423B0FBF3F0642303FB1020C00018
:102B500032306422B0FBF2F010F007004018216818
:102B60008860FCE0FFF7A1FC8146FFF79EFC8046F1
:102B7000FFF79BFC0700FFF798FC0600FFF795FCAA
:102B8000192101FB09F162685200B1FBF2F16422E4
:102B9000B1FBF2F1192202FB08F263685B00B2FBA1
:102BA000F3F2192303FB07F367687F00B3FBF7F326
:102BB0006427B3FBF7F3642707FB1322D2003232FA
:102BC0006423B2FBF3F212F0F802520012EB01118F
:102BD000192202FB06F263685B00B2FBF3F21923D1
:102BE000584363685B00B0FBF3F06423B0FBF3F081
:102BF000642303FB1020C00032306422B0FBF2F0EB
:102C000010F00700401821688860A8E02068564945
:102C1000884252D1FFF759FC8146FFF756FC8046A7
:102C2000FFF753FC0700FFF750FC0600FFF74DFCD1
:102C3000192101FB09F162689200B1FBF2F16422F3
:102C4000B1FBF2F1192202FB08F263689B00B2FBB0
:102C5000F3F2192303FB07F36768BF00B3FBF7F335
:102C60006427B3FBF7F3642707FB13221201323208
:102C70006423B2FBF3F212F0F00212EB01111922FD
:102C800002FB06F263689B00B2FBF3F21923584380
:102C900063689B00B0FBF3F06423B0FBF3F06423A4
:102CA00003FB1020000132306422B0FBF2F010F080
:102CB0000F0040182168886051E0FFF7F6FB81465D
:102CC000FFF7F3FB8046FFF7F0FB0700FFF7EDFB94
:102CD0000600FFF7EAFB192101FB09F16268920087
:102CE000B1FBF2F16422B1FBF2F1192202FB08F20E
:102CF00063689B00B2FBF3F2192303FB07F36768D9
:102D0000BF00B3FBF7F36427B3FBF7F3642707FBBC
:102D10001322120132326423B2FBF3F212F0F002FA
:102D200012EB0111192202FB06F263689B00B2FB51
:102D3000F3F21923584363689B00B0FBF3F064235C
:102D4000B0FBF3F0642303FB102000013230642257
:102D5000B0FBF2F010F00F00401821688860BDE869
:102D6000F1830000F369FFFF0038014080B5FFF7F1
:102D70002BFC00F020F83648364908605FF4E1305B
:102D80003449486000203349886000203149C860D8
:102D900000203049086100202E4988610C202D490F
:102DA00048612C48FFF7DEFC002801D000F05AF8FB
:102DB00000F05AF8FEE700B593B001A8142100F026
:102DC00055F806A8342100F051F8022006900120A1
:102DD000099010200A9002200F90002010905FF4BC
:102DE000002011905FF40000129006A8FEF7A8FDE5
:102DF000002801D000F036F81748006850F08050E5
:102E0000154908601448006810F080500090009840
:102E10001248006830F4C05050F400600F49086058
:102E20000F480068C006FBD40F20019003200290D9
:102E3000002003900020049000200590012101A8AB
:102E4000FFF78AF9002801D000F00CF813B000BD9C
:102E5000003801401000002024380240007000407B
:102E600004700040FEE7000070470000002200F000
:102E700001B8000000B500BF130096469446103913
:102E800028BFA0E80C50FAD85FEA417C28BF0CC0EC
:102E900048BF40F8042BC90728BF20F8022B48BFC1
:102EA00000F8012B00BD000080B500F033F80200EF
:102EB0000023DB431068984204D011000220ABBE0F
:102EC000002010605068984204D0111D0220ABBE53
:102ED0000020506001BD000010B584B0040000F077
:102EE00019F8A100421810680021C94388420DD189
:102EF00007A00090002C01D1002000E004200190E8
:102F00000320029069460120ABBE106004B010BDE2
:102F10003A747400004870470400002012480068AA
:102F200050F480701049086010480068104908404B
:102F30000E4908600C4800680E4908400A490860BC
:102F40000948006830F48020074908600748006895
:102F500030F47D00054908600020074908605FF0F3
:102F60000060064908607047003802400838024097
:102F70000CC0FF88FEFFFEEE0C38024008ED00E0BA
:102F800030B5016842688468091801EB5203D20722
:102F900048BF4C440C30994200D130BD11F9012B8F
:102FA00011F8015B002A04F8015B02D5521CF9D12B
:102FB000F1E7521EF4D5EEE710B5044614F1010F07
:102FC00082B00AD08DF8000001226946012000F08D
:102FD00007F8012801D1204616BD4FF0FF3016BD7D
:102FE00080B5002802D400F003F802BD002002BD25
:102FF00080B5002901D1002002BD012801D002289E
:1030000002D100F004F802BD00F011F802BD30B5A5
:1030100083B00C0015000120FFF75EFF00900194C3
:10302000029569460520ABBE281A03B030BD10B525
:1030300084B00300140000930191029469460520B6
:10304000ABBE01221900201AC046C04604B010BD14
:1030500010B5074979441831064C7C44163404E015
:103060000A68081D511888470146A142F8D110BDD1
:103070002C000000380000000EB400B582B003A997
:10308000009102466B460121034878440A30FDF75F
:1030900031F806BC5DF810FB89000000E5FEFFFF7B
:1030A00094010000120000000000002000F00BF866
:1030B000002801D0FFF7CCFF0020C046C046FFF734
:1030C00055FE00F002F80120704700F001B8000042
:1030D0000746384600F002F8FBE7000080B5FFF72E
:1030E000E3FE024A11001820ABBEFBE726000200F7
:1030F0007047FEE7FEE7FEE7FEE770477047704760
:1031000080B5FFF78AFA01BD80B50348FFF7B4FF29
:103110000248FFF760FB01BD783100081000002075
:1031200038B504460D462846FFF746FFA84218BFAB
:103130000024204632BD0000000000000000000016
:1031400001020304060708090148804701480047B7
:103150001D2F000865310008030406080C10182014
:1031600030000000C046C046C046C046FFF79EFF84
:10317000000000000102030468656C6C6F0D0A001A
:1031800001020304FFF7FEBFFFF7FEBFFFF7FEBF1C
:10319000FFF7FEBFFFF7FEBFFFF7FEBFFFF7FEBF63
:1031A000FFF7FEBFFFF7FEBFFFF7FEBFFFF7FEBF53
:1031B000FFF7FEBFFFF7FEBFFFF7FEBFFFF7FEBF43
:1031C000FFF7FEBFFFF7FEBFFFF7FEBFFFF7FEBF33
:1031D000FFF7FEBFFFF7FEBFFFF7FEBFFFF7FEBF23
:1031E000FFF7FEBFFFF7FEBFFFF7FEBFFFF7FEBF13
:1031F000FFF7FEBFFFF7FEBFFFF7FEBFFFF7FEBF03
:10320000FFF7FEBFFFF7FEBFFFF7FEBFFFF7FEBFF2
:10321000FFF7FEBFFFF7FEBFFFF7FEBFFFF7FEBFE2
:10322000FFF7FEBFFFF7FEBFFFF7FEBFFFF7FEBFD2
:0D323000FFF7FEBF030048E801F8FFBC00F7
:040000050800316559
:00000001FF
