:020000040800F2
:100000000807002091010008990100089B010008E1
:100010009D0100089F010008A101000800000000E8
:10002000000000000000000000000000A301000824
:10003000A501000800000000A7010008A9010008B0
:10004000AB010008AB010008AB010008AB010008E0
:10005000AB010008AB010008AB010008AB010008D0
:10006000AB010008AB010008AB010008AB010008C0
:10007000AB010008AB010008AB010008AB010008B0
:10008000AB010008AB010008AB010008AB010008A0
:10009000AB010008AB010008AB010008AB01000890
:1000A000AB010008AB010008AB010008AB01000880
:1000B000AB010008AB010008AB010008AB01000870
:1000C000AB010008AB010008AB010008AB01000860
:1000D000AB0100081D070008AB010008AB010008D8
:1000E000AB010008AB010008AB010008AB01000840
:1000F000AB01000800F002F800F03AF80AA090E81E
:10010000000C82448344AAF10107DA4501D100F0D2
:100110002FF8AFF2090EBAE80F0013F0010F18BF65
:10012000FB1A43F0010318471409000034090000CA
:10013000103A24BF78C878C1FAD8520724BF30C813
:1001400030C144BF04680C607047000000230024E5
:1001500000250026103A28BF78C1FBD8520728BFD7
:1001600030C148BF0B6070471FB51FBD10B510BD33
:1001700000F031F81146FFF7F7FF00F027FC00F020
:100180004FF803B4FFF7F2FF03BC00F057F800008C
:100190000948804709480047FEE7FEE7FEE7FEE71B
:1001A000FEE7FEE7FEE7FEE7FEE7FEE70448054957
:1001B000054A064B70470000B5060008F500000828
:1001C0000801002008070020080300200803002081
:1001D000704770477047754600F02CF8AE46050032
:1001E0006946534620F00700854618B020B5FFF752
:1001F000DDFFBDE820404FF000064FF000074FF054
:1002000000084FF0000B21F00701AC46ACE8C00934
:10021000ACE8C009ACE8C009ACE8C0098D4670473D
:1002200010B50446AFF300802046BDE81040FFF74C
:10023000A8BF000000487047A40000200149182012
:10024000ABBEFEE7260002007047F0B502460B4643
:10025000002100240025002000BF35E0012606FA19
:1002600001F41E6806EA0405A5422CD110684F006F
:100270000326BE40B0431E794F00BE40304310609D
:100280001E79012E02D01E79022E12D190684F00E5
:100290000326BE40B0435E794F00BE4030439060BD
:1002A000908801268E40B0439E798E40B6B230438E
:1002B0009080D0684F000326BE40B043DE794F00E7
:1002C000BE403043D060491C1029C7D3F0BDF0B503
:1002D000002300244D07ED0E02FA05F3CE1000F1C5
:1002E000200555F826504E07F70E0F26BE40B543A1
:1002F000CF1000F1200646F82750CE1000F120055F
:1003000055F8265045EA0304CE1000F1200545F8C3
:100310002640F0BD02460020138A0B400BB101209D
:1003200000E0002070474183704701837047000060
:1003300010B50121022000F09DF80121084600F0CF
:1003400099F80121880300F0A5F8012025490871DA
:10035000C0200860022048712348FFF776FF002084
:100360002049087101200860022048711F48FFF7EA
:100370006CFF072209211D48FFF7A9FF07220A2168
:100380001A48FFF7A4FF0220164908710120C8711E
:1003900040020860022048711448FFF756FF02200F
:1003A000104908710020C8714FF480600860022075
:1003B00048710E48FFF749FF0D4800F0D6FA4FF498
:1003C000E1300B4908600B4800F060FA25200A492B
:1003D00008700020487088700120C870084600F03E
:1003E0000DF810BD1C000020000402400000024077
:1003F00030000020003801402400002070B50021AA
:1004000000230F22C4781CB3174C246804F4E06462
:10041000C4F5E064C4F30721C1F10404E3B20A4166
:1004200044789C40E1B28478144021430C07210EAB
:100430000E4C05786155047804F01F050124AC408A
:1004400005786D11AD0005F1E025C5F8004109E022
:10045000047804F01F050124AC40054D06787611A0
:1004600045F8264070BD00000CED00E000E400E01F
:1004700080E100E029B1064A12680243044B1A6089
:1004800004E0034A12688243014B1A60704700007F
:100490001C38024029B1064A12680243044B1A6014
:1004A00004E0034A12688243014B1A60704700005F
:1004B00020380240F0B5002100220023002600244D
:1004C0000025374F3F6807F00C0131B1042912D0E5
:1004D000082913D00C2934D113E0314F3F1F3F6856
:1004E000C7F342356F1C4FF0010C0CFA07FC4FEAC2
:1004F000CC37076033E02B4F076030E02A4F0760AE
:100500002DE0274F3F6807F47012254F3F6807F42E
:100510004003264F07EB92473A78012707EB9353A6
:100520001F4F3F6807F480362EB91E4F5743B7FB65
:10053000F3F7076004E01C4F5743B7FBF3F707607E
:100540000DE0174F3F1F3F68C7F342356F1C4FF058
:10055000010C0CFA07FC4FEACC37076000BF00BF64
:100560000F4F3F6807F0F0010909114F7C5C0768E5
:10057000E74047600A4F3F6807F4E061090A0C4F03
:100580007C5C4768E7408760054F3F6807F460512F
:10059000C90A074F7C5C4768E740C760F0BD0000B0
:1005A000083802400024F40000127A000000002005
:1005B0000900002070B505460E4600240BE0295DB9
:1005C000064800F0CEF9002001E000BF401CB0F565
:1005D000FA7FFADB641CB442F1DB70BD00380140E5
:1005E0000CB50020019000902F48006840F00100F9
:1005F0002D49086000BF2C48006800F00200009000
:10060000009818B90198B0F5A04FF4D126480068B9
:1006100000F0020010B10120009001E000200090E5
:10062000009801283FD12148006820F001001F49AF
:1006300008600846006820F002000860084600686C
:1006400020F00400086018482430006840F0805012
:10065000154924310860C8141549086000BF1448C2
:10066000406800F010000028F9D10F4808300068F9
:100670000D490831086008460068086008460068AF
:1006800008600846006820F003000860084600681B
:1006900040F00100086000BF03480830006800F027
:1006A0000C000428F8D10CBD00380240003C024088
:1006B0000070004010B51548006840F48070134980
:1006C0000860124808300068114908400F49083195
:1006D00008600E4800680F4908400C490860084649
:1006E000006820F48020086008480830006820F482
:1006F0007D000649083108600020091D0860FFF7E9
:100700006FFF4FF000600449086010BD00380240E0
:100710000CC0FF88FEFFFEEE08ED00E010B540F2D1
:100720002551204800F063F8002839D040F22551C7
:100730001C4800F041F81B4800F00EF9FF2823D1B7
:1007400019480078FF281CD1002004E01749095CF3
:10075000174A1154401C174909688842F6DB1448AF
:1007600000F00FF9044621461148FFF723FF00F07F
:1007700015F900F01FF900200B4908700D490860B9
:1007800010BDFF2008490870064800F0E5F8074949
:10079000084A1268885407480068401C05490860E8
:1007A00000BFEDE7003801402C0000204000002091
:1007B000720000202800002010B50022002340F61F
:1007C0006A14A14200D100BF0A1201249440A3B2CE
:1007D000DC43048010BD21B1828942F40052828141
:1007E00004E082894DF6FF731A408281704770B52C
:1007F0000246002400230025002040F66A16B1427C
:1008000000D100BFC1F3421501F01F03012606FA13
:1008100003F3012D02D19689334006E0022D02D167
:10082000168A334001E0968A33400C12012606FAFC
:1008300004F41688344013B10CB1012000E000200C
:1008400070BDF0B50346002400260025002040F6C8
:100850006A17B94200D100BF1846C1F3421401F033
:100860001F06012707FA06F5012C01D10C3004E020
:10087000022C01D1103000E014301AB107682F4368
:10088000076002E00768AF430760F0BD2DE9FF474E
:1008900005460E460024A14600BFA046B08900B11F
:1008A00000BF2C8A24F44054F08804432C82AC8985
:1008B00041F20C608443B088318908437189084350
:1008C0000443AC81AC8A24F44074B0890443AC8204
:1008D0006846FFF7EFFD1F48854202D1DDF80C9016
:1008E00001E0DDF80890A88900F4004040B109EB70
:1008F000C90000EB091031684900B0FBF1F707E0CF
:1009000009EBC90000EB091031688900B0FBF1F771
:100910006420B7FBF0F004012009642101FB10788A
:10092000A88900F4004040B1322000EBC800B0FBC1
:10093000F1F000F00700044308E0322000EB08105B
:100940006421B0FBF1F000F00F0004432C81BDE8FE
:10095000FF8700000038014001468888C0F3080086
:100960007047C1F30802828070474FF4165101604E
:1009700000218180C18001810C2141810021818180
:10098000704701460022002000BF0B5C0BB90246F5
:1009900001E0401CF9E700BF10467047002003E06B
:1009A0000021034A1154401C3228F9DB7047000033
:1009B00040000020002003E00021034A1154401CA5
:1009C0003228F9DB7047000072000020FFF7E6FFD5
:1009D000FFF7AEFC012240F225511548FFF731FF29
:1009E00001211348FFF7F7FE80211248FFF79DFC15
:1009F00001251BE001211048FFF78CFC0446012C67
:100A00000AD140210B48FFF790FC80210948FFF7ED
:100A10008AFC5DB1002509E080210648FFF785FCCE
:100A200040210448FFF77FFC05B90125E2E70000FB
:100A30000038014000040240000002405C0A000847
:100A40000000002030000000300100088C0A00087F
:100A500030000020D80600004C01000803040608FE
:100A60000C101820300000000001020304010203F2
:100A70000406070809000000000000000000000054
:0C0A80000000000000000000000000006A
:04000005080000F5FA
:00000001FF
