:020000040000FA
:0600000043EF19F01200AD
:020006001200E6
:06000800D4EF18F0120015
:02000E0010F4EC
:03001000141003C6
:04001300100E1003B8
:0600180006EF15F01200D6
:02001E000500DB
:10002000F7320000330D00002F000000F132000015
:10003000720D000006000000BE320000000D00003E
:1000400033000000130000007D0D000004000000DC
:0C0050000E000000780D0000050000000C
:04005C00D9CFE6FF13
:10006000E1CFD9FF240EE126090EDB6A0A0EDB6A16
:100070000B0EDB6A0C0EDB6A0D0EDB6A0E0EDB6A02
:100080000F0EDB6A100EDB6A110EDB6A120EDB6AE2
:10009000130EDB6A140EDB6A150EDB6A160EDB6AC2
:1000A000170EDB6A180EDB6A190EDB6A1A0EDB6AA2
:1000B0001B0EDB6A010E01C1DBFF010EDBCFE6FF89
:1000C000010EDB40E840E8401F0BE552E7240F0B30
:1000D000DF6E030EDB6A040EDB6A030EDBCF10F06B
:1000E000040EDBCF11F0D890115004E6200E105C06
:1000F000000E115811E2030EDBCFE9FF040EDBCF37
:10010000EAFF140EE926010EEA22EF6A030EDB2A4B
:10011000040E01E3DB2AE1D7010EDB040CE1000E43
:10012000DB88DB8ADFCF14F11CCD15F11DCD10F07B
:10013000116A10C016F1010EDB5007080CE1000E29
:10014000DB88DB8ADFCF14F11ACD15F11BCD10F05F
:10015000116A10C016F1010EDB50060842E1000ED4
:10016000DB88DB8ADFCF14F119CD15F118CD16F13C
:1001700017CD17F116CD18F1160EE66E0D0EE66EC0
:1001800051EC19F0E552E552F3CF10F0F4CF11F035
:10019000010E1026000E1122030E10C0DBFF040E0C
:1001A00011C0DBFF030EDBCF10F0040EDBCF11F02C
:1001B000D890115004E6060E105C000E115811E2A2
:1001C000030EDBCFE9FF040EDBCFEAFF140EE926B6
:1001D000010EEA22EF6A030EDB2A040E01E3DB2A9A
:1001E000E1D7010EDB50880805E1000EDFCF14F1E6
:1001F00002C101FD010EDB508A0865E1060EF36EB7
:10020000220EF3CFDBFF230EDB6A220EDBCF10F0D2
:10021000230EDBCF11F0D890115004E60B0E105CCA
:10022000020E115832E2220EDBCFE9FF230EDBCFA4
:10023000EAFF960EE926040EEA22EF500101025D64
:100240001AE1010EE76E220EDBCFE9FF230EDBCFB2
:10025000EAFFE750E926000EEA22960EE926040E90
:10026000EA22EF500101035D06E1010EF36E090E73
:10027000F3CFDBFF0AD0D950220FE96EDACFEAFFC5
:10028000060EEE26000EED22C0D7090EDB5013E15C
:100290000D010F5110E1000E02C16CFD03C16DFD97
:1002A0000D01075104E00D01010E0A6F03D00D018D
:1002B000010E086F06D0000EDB8ADB8CDB8E090E88
:1002C000DB6ADFCF14F1010EDB508B0809E1000E71
:1002D000DFCF14F10D01075103E00D01010E096F8D
:1002E000010EDB50550806E1000EDFCF14F10D01C1
:1002F000010E0F6F010EDB50140801E0B0D0000EAC
:10030000DB88DB8ADFCF14F1020EDB6A0D010D51B1
:1003100002E0020EDB800D010B510FE167EC0EF0E5
:10032000106E116AD89010361136020EDBCFE7FF3F
:100330001050E712020EE7CFDBFF0D01165104014A
:10034000965D11E10D0117510401975D0CE10D015E
:1003500018510401985D07E10D0119510401995DDF
:1003600002E1020EDB840D01105102E1020EDB8678
:100370000D010B5163E1030EDB6A040EDB6A030E11
:10038000DBCF10F0040EDBCF11F0D890115004E653
:10039000040E105C000E115814E2D9501E0F106E9E
:1003A000DACF11F0030EDB501024E96E040EDB509F
:1003B0001120EA6EEF6A030EDB2A040E01E3DB2A4A
:1003C000DED78B949F0EC96EC7A0FED7030EDB6AE3
:1003D000040EDB6A030EDBCF10F0040EDBCF11F04E
:1003E000D890115004E6040E105C000E115818E26B
:1003F000C96AC7A0FED7D9501E0F106EDACF11F010
:10040000030EDB501024E96E040EDB501120EA6E5F
:10041000C9CFEFFF030EDB2A040E01E3DB2ADAD794
:100420008B841E0EDB501F0809E11F0EDB502708CE
:1004300005E1200EDB0402E1020EDB880D010E5106
:1004400003E0020EDB8A01D0020E0D010B5103E026
:10045000020EDB8C01D0020E020EDBCF15F1010E75
:10046000DB508C0806E1000EDFCF14F10D01010E08
:100470000C6F010EDB50900806E1000EDFCF14F187
:100480000D01010E136F010EDB500D0801E0BAD013
:1004900002C16CFD03C16DFD030EDB6A040EDB6A55
:1004A000030EDBCF10F0040EDBCF11F0D89011500B
:1004B00004E60B0E105C020E115848E2030EDBCF6F
:1004C000E9FF040EDBCFEAFF960EE926040EEA22CE
:1004D000EF500D016C5D30E1010EE76E030EDBCFD6
:1004E000E9FF040EDBCFEAFFE750E926000EEA221F
:1004F000960EE926040EEA22EF500D016D5D1CE117
:10050000010EF36E0C0EF3CFDBFF030EDBCFE6FF25
:10051000040EDBCFE6FF7BEC0DF0E552E5520D0E4D
:1005200004C0DBFF0E0E05C0DBFF0F0E06C0DBFFB5
:10053000100E07C0DBFF0AD0D950030FE96EDACFE7
:10054000EAFF060EEE26000EED22AAD70C0EDB50B7
:1005500049E0000EDB88DB8A0D0EDBCF10F00E0EBB
:10056000DBCF11F00F0EDBCF12F0100EDBCF13F04C
:10057000180ED8901332123211321032E806F9E117
:1005800010C018F10D0EDBCF10F00E0EDBCF11F006
:100590000F0EDBCF12F0100EDBCF13F0100ED89041
:1005A0001332123211321032E806F9E110C017F19D
:1005B0000D0EDBCF10F00E0EDBCF11F00F0EDBCFE8
:1005C00012F0100EDBCF13F0080ED8901332123257
:1005D00011321032E806F9E110C016F10D0EDBCF32
:1005E00015F10CD0000EDB8ADB8CDB8E0101156B64
:1005F0000101166B0101176B0101186BDFCF14F1BC
:100600000C0EDB6A010EDB50110801E06BD200001A
:1006100002C16CFD03C16DFD000007C110F0116A3D
:10062000126A136A180E1F0B07E0D89010361136A5
:1006300012361336E806F9E106C114F0156A166A97
:10064000176A100E1F0B07E0D890143615361636B1
:100650001736E806F9E11450101215501112165011
:1006600012121750131205C118F0196A1A6A1B6A80
:10067000080E1F0B07E0D890183619361A361B36AD
:10068000E806F9E118501012195011121A501212FE
:100690001B50131204C11CF01D6A1E6A1F6A1C50F5
:1006A00010121D5011121E5012121F501312120E52
:1006B00010C0DBFF130E11C0DBFF140E12C0DBFFF6
:1006C000150E13C0DBFF00000000060EF36E030ED4
:1006D000F3CFDBFF040EDB6A030EDBCF10F0040E5A
:1006E000DBCF11F0D890115004E60B0E105C020E17
:1006F000115801E3BFD00000030EDBCFE9FF040E69
:10070000DBCFEAFF960EE926040EEA22EF500D0138
:100710006C5D01E0A5D0010EE76E030EDBCFE9FFB3
:10072000040EDBCFEAFFE750E926000EEA22960E20
:10073000E926040EEA22EF500D016D5D01E090D034
:100740000000030EDBCFE6FF040EDBCFE6FF7BEC01
:100750000DF0E552E5520D0E04C0DBFF0E0E05C094
:10076000DBFF0F0E06C0DBFF100E07C0DBFF0D0E18
:10077000DBCF10F00E0EDBCF11F00F0EDBCF12F03F
:10078000100EDBCF13F0180E096E0A6A0B6A0C6AA2
:1007900010C004F011C005F012C006F013C007F03D
:1007A00003EC19F004C010F005C011F006C012F0FF
:1007B00007C013F0D950120FE96EDACFEAFFEE50FE
:1007C000105CEE501158EE501258EE50135847E39B
:1007D000D950120FE96EDACFEAFFD880000EEE543E
:1007E000000EEE54000EEE54000EEE5438E20000FF
:1007F000010EF36E110EF3CFDBFF020EE76E030E58
:10080000DBCFE9FF040EDBCFEAFFE750E926000E5D
:10081000EA22960EE926040EEA22EFCF12F012C069
:1008200013F0126A030EE76E030EDBCFE9FF040E2E
:10083000DBCFEAFFE750E926000EEA22960EE92612
:10084000040EEA22EF5000011210106E13C011F0D6
:100850000A0E10C0DBFF0B0E11C0DBFF00000AD038
:10086000D950030FE96EDACFEAFF060EEE26000E2E
:10087000ED2232D7110EDB5001E104D10000000E51
:10088000DB88DB8AD950120FE96EDACFEAFFD88015
:10089000160EEE54000EEE54000EEE54000EEE5402
:1008A0006EE20000120EDBCF10F0130EDBCF11F062
:1008B000140EDBCF12F0150EDBCF13F01006000E76
:1008C000115A000E125A000E135A160E096E0A6AB9
:1008D0000B6A0C6A10C004F011C005F012C006F0DB
:1008E00013C007F003EC19F004C010F005C011F0BC
:1008F00006C012F007C013F0D9500A0FE96EDACF24
:10090000EAFF1050EE261150ED220000120EDBCF50
:1009100010F0130EDBCF11F0140EDBCF12F0150E1A
:10092000DBCF13F01006000E115A000E125A000E03
:10093000135A160E096E0A6A0B6A0C6A10C004F08C
:1009400011C005F012C006F013C007F003EC19F057
:1009500000C010F001C011F002C012F003C013F08B
:10096000102A000E1122000E1222000E1322160E63
:1009700010C0DBFF170E11C0DBFF00000DD0120E00
:10098000DBCF06F0130EDBCF07F0160E06C0DBFF41
:10099000170E07C0DBFF000004C115F105C116F1F9
:1009A00006C117F107C118F100000A0EDBCFE6FF00
:1009B0000B0EDBCFE6FF49EC0CF0E552E5520000F0
:1009C000160EDBCF10F0170EDBCF11F01006000E65
:1009D000115A180E1102F3CF11F0180E1002F3CFB6
:1009E00010F0F4501126020E105E000E115A070E80
:1009F00010C0DBFF080E11C0DBFF0000020EF36E1B
:100A0000030EF3CFDBFF040EDB6A030EDBCF10F027
:100A1000040EDBCF11F0D890115004E61B0E105CD1
:100A2000000E11582DE2030EDBCF10F0040EDBCFC9
:100A300011F0070EDB501024E96E080EDB50112078
:100A4000EA6E860EE926020EEA22EF50E66E030EEB
:100A5000E76E030EDBCFE9FF040EDBCFEAFFE750C2
:100A6000E926000EEA22140EE926010EEA22E552DA
:100A7000E750EF6E030EDB2A040E01E3DB2AC5D735
:100A800000002CD0000EDB8ADB8CDB8EDFCF14F174
:100A9000010EF36E030EF3CFDBFF040EDB6A030ED1
:100AA000DBCF10F0040EDBCF11F0D890115004E62C
:100AB0001A0E105C000E115811E2030EDBCFE9FF95
:100AC000040EDBCFEAFF140EE926010EEA22EF6ADC
:100AD000030EDB2A040E01E3DB2AE1D7DFCF14F19A
:100AE000110EDB6A010EDB500E0801E05ED1000E34
:100AF000DB88DB8A05C110F0116A126A136A180ECE
:100B00001F0B07E0D8901036113612361336E80660
:100B1000F9E104C114F0156A166A176A100E1F0B6A
:100B200007E0D8901436153616361736E806F9E180
:100B30001450101215501112165012121750131291
:100B400003C118F0196A1A6A1B6A080E1F0B07E026
:100B5000D890183619361A361B36E806F9E11850BF
:100B60001012195011121A5012121B50131202C1F6
:100B70001CF01D6A1E6A1F6A1C5010121D501112B3
:100B80001E5012121F501312120E10C0DBFF130E54
:100B900011C0DBFF140E12C0DBFF150E13C0DBFF0C
:100BA000120EDBCF10F0130EDBCF11F0140EDBCFE3
:100BB00012F0150EDBCF13F0160E096E0A6A0B6ADF
:100BC0000C6A10C004F011C005F012C006F013C08A
:100BD00007F003EC19F000C010F001C011F002C0E2
:100BE00012F003C013F0105011101210131021E175
:100BF000120EDBCF04F0130EDBCF05F0140EDBCFAB
:100C000006F0150EDBCF07F0160E096E0A6A0B6AA6
:100C10000C6A03EC19F00A0E04C0DBFF0B0E05C0D2
:100C2000DBFF160EF36E160EF3CFDBFF170EDB6A3B
:100C300049D0120EDBCF10F0130EDBCF11F0140EE3
:100C4000DBCF12F0150EDBCF13F0160E096E0A6A19
:100C50000B6A0C6A10C004F011C005F012C006F057
:100C600013C007F003EC19F004C010F005C011F038
:100C700006C012F007C013F0102A000E1122000E59
:100C80001222000E13220A0E10C0DBFF0B0E11C041
:100C9000DBFF120EDBCF04F0130EDBCF05F0140EDA
:100CA000DBCF06F0150EDBCF07F0160E096E0A6AD1
:100CB0000B6A0C6A03EC19F0160E00C0DBFF170E6E
:100CC00001C0DBFF0A0EDB060B0E01E2DB06DFCF05
:100CD00014F102C115F103C116F104C117F105C1E8
:100CE00018F10A0EDBCFE6FF0B0EDBCFE6FF49EC77
:100CF0000CF0E552E552160EDBCF10F0170EDBCFED
:100D000011F01006000E115A180E1102F3CF11F057
:100D1000180E1002F3CF10F0F4501126050E105EDD
:100D2000000E115A070E10C0DBFF080E11C0DBFFCA
:100D3000050EF36E030EF3CFDBFF040EDB6A030E2A
:100D4000DBCF10F0040EDBCF11F0D890115004E689
:100D50001E0E105C000E115827E2030EDBCF10F0C0
:100D6000040EDBCF11F0070EDB501024E96E080EE5
:100D7000DB501120EA6E860EE926020EEA22EF50C1
:100D8000E66E030EDBCFE9FF040EDBCFEAFF140EA5
:100D9000E926010EEA22E552E750EF6E030EDB2A48
:100DA000040E01E3DB2ACBD70000010EDB500F0855
:100DB00001E01ED1000EDB88DB8ADFCF14F1060EC6
:100DC000F36E030EF3CFDBFF040EDB6A030EDBCF03
:100DD00010F0040EDBCF11F0D890115004E60B0E8A
:100DE000105C020E115801E3AFD0030EDBCFE9FF18
:100DF000040EDBCFEAFF960EE926040EEA22EF503E
:100E000001E098D0010EE76E030EDBCFE9FF040E80
:100E1000DBCFEAFFE750E926000EEA22960EE9262C
:100E2000040EEA22EF5001E085D0E66AE66A08EC9B
:100E30000DF0E552E552180E04C0DBFF190E05C097
:100E4000DBFF1A0E06C0DBFF1B0E07C0DBFF030E25
:100E5000DBCF10F0040EDBCF11F0113404E21050A0
:100E60000608000E115465E2030EDBCF10F0040EED
:100E7000DBCF11F0020E105E000E115A050E10C0ED
:100E8000DBFF060E11C0DBFF050EDBCF10F0060EF8
:100E9000DBCF11F0113404E210500908000E115498
:100EA00048E2050EDBCFE9FF060EDBCFEAFF960E28
:100EB000E926040EEA22EF50FF0831E00000010E9F
:100EC000E76E050EDBCFE9FF060EDBCFEAFFE7504A
:100ED000E926000EEA22960EE926040EEA22EF50D9
:100EE000E66E050EDBCFE9FF060EDBCFEAFF960EBE
:100EF000E926040EEA22EF50E66E08EC0DF0E5520A
:100F0000E552180E04C0DBFF190E05C0DBFF1A0EF8
:100F100006C0DBFF1B0E07C0DBFF00000AD0D95064
:100F2000050FE96EDACFEAFF060EEE5E000EED5A0F
:100F3000ABD70AD0D950030FE96EDACFEAFF060E1D
:100F4000EE26000EED2242D7180EDBCF10F0190E60
:100F5000DBCF11F01A0EDBCF12F01B0EDBCF13F03C
:100F6000180ED8901332123211321032E806F9E11D
:100F700010500101186F180EDBCF10F0190EDBCFE7
:100F800011F01A0EDBCF12F01B0EDBCF13F0100E98
:100F9000D8901332123211321032E806F9E11050B3
:100FA0000101176F180EDBCF10F0190EDBCF11F017
:100FB0001A0EDBCF12F01B0EDBCF13F0080ED89009
:100FC0001332123211321032E806F9E110500101E9
:100FD000166F180EDBCF10F0190EDBCF11F01A0EC2
:100FE000DBCF12F01B0EDBCF13F010500101156F99
:100FF000010EDB50020801E0A4D002C112F012C0C1
:1010000013F0126A0101035100011210106E13C097
:1010100011F00A0E10C0DBFF0B0E11C0DBFF010147
:101020000451E66ED950160FE96EDACFEAFFE552A9
:10103000E750EE6EED6A160EDBCF10F0170EDBCF29
:1010400011F0010E105C000E11580BE3D950160F71
:10105000E96EDACFEAFF160ED880EE54000EED549A
:1010600005E2000EDB8ADB8CDB8E69D0000EDB88AC
:10107000DB8A160EDBCF15F10A0EDBCFE6FF0B0E77
:10108000DBCFE6FF49EC0CF0E552E552160EDBCF64
:1010900010F0170EDBCF11F01006000E115A180ECB
:1010A0001102F3CF11F0180E1002F3CF10F0F4502C
:1010B0001126020E105E000E115A070E10C0DBFF43
:1010C000080E11C0DBFF020EF36E030EF3CFDBFF41
:1010D000040EDB6A030EDBCF10F0040EDBCF11F041
:1010E000D890115004E61B0E105C000E115827E238
:1010F000030EDBCF10F0040EDBCF11F0070EDB5038
:101100001024E96E080EDB501120EA6E860EE926E7
:10111000020EEA22EF50E66E030EDBCFE9FF040E6B
:10112000DBCFEAFF140EE926010EEA22E552E75072
:10113000EF6E030EDB2A040E01E3DB2ACBD7DFCFF1
:1011400014F1010EDB50840806E1000EDFCF14F12C
:101150000D01010E036F010EDB50850806E1000E44
:10116000DFCF14F10D01010E026F010EDB500308F9
:1011700001E0D3D003C112F012C013F0126A0101D2
:10118000025100011210106E13C011F01C0E10C09D
:10119000DBFF1D0E11C0DBFF1C0EDBCF10F01D0EA0
:1011A000DBCF11F0040E105C000E115801E3AFD03C
:1011B000D9501C0FE96EDACFEAFF000ED880EE544A
:1011C000000EED5401E3A3D0000EDB88DB8A02C1E0
:1011D00015F103C116F11C0EDBCF10F01D0EDBCF95
:1011E00011F01006000E115A180E1102F3CF11F073
:1011F000180E1002F3CF10F0F4501126070E10C095
:10120000DBFF080E11C0DBFF0D01325140E1030E80
:10121000DB6A040EDB6A030EDBCF10F0040EDBCFBB
:1012200011F0D890115004E61A0E105C000E1158FF
:101230002DE2030EDBCF10F0040EDBCF11F0070E12
:10124000DB501024E96E080EDB501120EA6EC80E48
:10125000E926010EEA22EF50E66E030EE76E030E5A
:10126000DBCFE9FF040EDBCFEAFFE750E926000EF3
:10127000EA22140EE926010EEA22E552E750EF6E4B
:10128000030EDB2A040E01E3DB2AC5D73FD0030E91
:10129000DB6A040EDB6A030EDBCF10F0040EDBCF3B
:1012A00011F0D890115004E61A0E105C000E11587F
:1012B0002DE2030EDBCF10F0040EDBCF11F0070E92
:1012C000DB501024E96E080EDB501120EA6E6E0E22
:1012D000E926010EEA22EF50E66E030EE76E030EDA
:1012E000DBCFE9FF040EDBCFEAFFE750E926000E73
:1012F000EA22140EE926010EEA22E552E750EF6ECB
:10130000030EDB2A040E01E3DB2AC5D704D0000E4E
:10131000DB88DB8CDB8EDFCF14F1010EDB5009089C
:1013200001E077D0000EDB88DB8A0D01325138E115
:10133000030EDB6A040EDB6A030EDBCF10F0040E33
:10134000DBCF11F0D890115004E6480E105C000E6F
:10135000115825E2030EDBCFE9FF040EDBCFEAFFD5
:10136000C80EE926010EEA22EF50E66E010EE76E86
:10137000030EDBCFE9FF040EDBCFEAFFE750E926DF
:10138000000EEA22140EE926010EEA22E552E75089
:10139000EF6E030EDB2A040E01E3DB2ACDD737D034
:1013A000030EDB6A040EDB6A030EDBCF10F0040EC3
:1013B000DBCF11F0D890115004E6480E105C000EFF
:1013C000115825E2030EDBCFE9FF040EDBCFEAFF65
:1013D0006E0EE926010EEA22EF50E66E010EE76E70
:1013E000030EDBCFE9FF040EDBCFEAFFE750E9266F
:1013F000000EEA22140EE926010EEA22E552E75019
:10140000EF6E030EDB2A040E01E3DB2ACDD7DFCF1C
:1014100014F1C8D86B988986030EDB6A040EDB6A68
:10142000030EDBCF10F0040EDBCF11F00D011150D5
:101430003019E8AE02D0303504D02F51105C305155
:10144000115815E2030EDBCFE9FF040EDBCFEAFFF4
:10145000140EE926010EEA22EF506D6E00006CA218
:10146000FED7030EDB2A040E01E3DB2AD9D78996C7
:101470006B880D01046B0D01056B0D01286B030ECC
:10148000DB6A040EDB6A030EDBCF10F0040EDBCF49
:1014900011F0D890115004E65A0E105C000E11584D
:1014A00011E2030EDBCFE9FF040EDBCFEAFF140EDF
:1014B000E926010EEA22EF6A030EDB2A040E01E39D
:1014C000DB2AE1D7240EE15C02E2E16AE552E16E3B
:1014D000E552E7CFD9FF12000D012B6B2C6B0D01EC
:1014E000296B2A6B1200D9CFE6FFE1CFD9FF040E9A
:1014F000E126020E00C1DBFF010EDE6EDD6ADECFEB
:1015000010F0DDCF11F02BCD12F02CCD13F0120620
:10151000000E135A11501318E8AE02D0133404D041
:101520001250105C1350115817E2020EDBCFE6FF89
:10153000DECFE9FFDDCFEAFF000EE926010EEA2249
:10154000EF50E552E718E76E020EE7CFDBFFDF2A28
:10155000010E01E3DB2AD3D72BCDE9FF2CCDEAFF27
:10156000E906000EEA5A000EE926010EEA22030EF1
:10157000EFCFDBFF020EDB50F36E030EDB50F35CAC
:1015800003E1010E03D002D0000E00D0106E040E55
:10159000E15C02E2E16AE552E16E1050E552E7CF0C
:1015A000D9FF1200D9CFE6FFE1CFD9FF030EE12624
:1015B0000D0130AF02D0D89003D02F5D000E30590E
:1015C00001E241D0020E14C1DBFF010EDE6EDD6AC6
:1015D000DECF10F0DDCF11F02FCD12F030CD13F0B3
:1015E0001206000E135A11501318E8AE02D013342D
:1015F00004D01250105C1350115817E2020EDBCFCA
:10160000E6FFDECFE9FFDDCFEAFF140EE926010E8B
:10161000EA22EF50E552E718E76E020EE7CFDBFF54
:10162000DF2A010E01E3DB2AD3D72FCDE9FF30CD2E
:10163000EAFFE906000EEA5A140EE926010EEA2234
:10164000020EDBCFEFFF030EE15C02E2E16AE5523E
:0A165000E16EE552E7CFD9FF12006A
:06165A00C79EC78CC69874
:10166000C696C694C692C6908B84C68A1200D9CFFD
:10167000E6FFE1CFD9FF030EE126DF6AFD0EDBCFE7
:1016800010F0FE0EDBCF11F0D89010361136D89046
:1016900010361136FF0E1016000E1116010E10C076
:1016A000DBFFFD0EDBCF10F0FE0EDBCF11F0060EE0
:1016B000D89011321032E804FBE1FF0E1016000E34
:1016C0001116020E10C0DBFF8B94830EC96EC7A0EB
:1016D000FED7020EDB50C96EC7A0FED7010EDB504D
:1016E000C96EC7A0FED7DF50C96EC7A0FED78B84D6
:1016F000EEDA000901E1FCD7030EE15C02E2E16AE7
:10170000E552E16EE552E7CFD9FF1200D9CFE6FFEF
:10171000E1CFD9FF050EE126020EDB6AFD0EDBCF1D
:1017200010F0FE0EDBCF11F0D89010361136D890A5
:1017300010361136FF0E1016000E1116030E10C0D3
:10174000DBFFFD0EDBCF10F0FE0EDBCF11F0060E3F
:10175000D89011321032E804FBE1FF0E1016000E93
:101760001116040E10C0DBFF8B94820EC96EC7A049
:10177000FED7040EDB50C96EC7A0FED7030EDB50A8
:10178000C96EC7A0FED7020EDB50C96EC7A0FED738
:10179000DE6ADD6ADECF10F0DDCF11F0D890115097
:1017A00004E6100E105C020E115811E2DECFE9FFC4
:1017B000DDCFEAFF960EE926040EEA22EF50C96E4D
:1017C000C7A0FED7DF2A010E01E3DB2AE3D78B8413
:1017D0007EDA000901E1FCD7050EE15C02E2E16A74
:1017E000E552E16EE552E7CFD9FF1200D9CFE6FF0F
:1017F000E1CFD9FF050EE126020EDB6A030EDB6A9C
:10180000800EF36E040EF3CFDBFF8B94FE0EDB50E5
:1018100005E1820EC96EC7A0FED704D0850EC96E41
:10182000C7A0FED7C96AC7A0FED7C96AC7A0FED79E
:10183000C96AC7A0FED7DE6ADD6ADECF10F0DDCF51
:1018400011F0D890115004E6100E105C020E1158E1
:1018500011E2DECFE9FFDDCFEAFF960EE926040EA6
:10186000EA22EF50C96EC7A0FED7DF2A010E01E3BE
:10187000DB2AE3D78B842BDA000901E1FCD7050EC4
:10188000E15C02E2E16AE552E16EE552E7CFD9FFA1
:101890001200D9CFE6FFE1CFD9FF050EE126020EF7
:1018A000DB6AFD0EDBCF10F0FE0EDBCF11F0D8901F
:1018B00010361136D89010361136FF0E1016000E65
:1018C0001116030E10C0DBFFFD0EDBCF10F0FE0E75
:1018D000DBCF11F0060ED89011321032E804FBE194
:1018E000FF0E1016000E1116040E10C0DBFF8B94B5
:1018F000D20EC96EC7A0FED7040EDB50C96EC7A0BA
:10190000FED7030EDB50C96EC7A0FED7020EDB5018
:10191000C96EC7A0FED7040EE66EE66AD4EC10F0DE
:10192000E552E552DE6ADD6ADECF10F0DDCF11F060
:10193000D890115004E6100E105C020E115812E2FD
:10194000C96AC7A0FED7DECFE9FFDDCFEAFF860E6A
:10195000E926020EEA22C9CFEFFFDF2A010E01E3DA
:10196000DB2AE2D78B84050EE15C02E2E16AE552F4
:10197000E16EE552E7CFD9FF1200D9CFE6FFE1CF04
:10198000D9FF020EE126000EE66EE66A82DFE5521E
:10199000E552DE6ADD6ADECF10F0DDCF11F0D890BF
:1019A000115004E6100E105C020E11581AE2DECF40
:1019B000E9FFDDCFEAFF860EE926020EEA22EF50AC
:1019C000E66EDECFE9FFDDCFEAFF960EE926040ED4
:1019D000EA22E552E750EF6EDF2A010E01E3DB2A2F
:1019E000DAD7020EE15C02E2E16AE552E16EE5520D
:1019F000E7CFD9FF1200D9CFE6FFE1CFD9FFFE0E26
:101A0000DBCFE6FFF3DEE552E552E7CFD9FF120068
:101A1000D9CFE6FFE1CFD9FF080EE126DE681F0E21
:101A2000DE6EDE6ADD6ADD52DD52FE0EDBCF14F0C3
:101A300014C015F0146AFD0EDB5000011410106E76
:101A400015C011F0126A136A11AE02D01268136841
:101A5000040E10C0DBFF050E11C0DBFF060E12C026
:101A6000DBFF070E13C0DBFF040EDBCF14F0050E07
:101A7000DBCF15F0060EDBCF16F0070EDBCF17F02D
:101A8000D9CFE9FFDACFEAFF1450EE5C106E1550A3
:101A9000EE58116E1650EE58126E1750EE58136E27
:101AA000100E096E020E0A6E0B6A0C6A10C004F06A
:101AB00011C005F012C006F013C007F09CEC18F03E
:101AC00000C010F001C011F002C012F003C013F00A
:101AD00010C004F011C005F012C006F013C007F0EA
:101AE000080EE15C03E200D0E16AE552E16EE552E6
:101AF000E7CFD9FF1200D9CFE6FFE1CFD9FF0C0E17
:101B0000E126DE6ADE6ADE6ADD6ADD52DD52040E3F
:101B1000DB6A050EDB6A060EDB6A070EDB6A080E5F
:101B2000DB6A090EDB6A0A0EDB6A0B0EDB6A000059
:101B3000020EE76EFD0EDBCFE9FFFE0EDBCFEAFF04
:101B4000E750E926000EEA22960EE926040EEA2264
:101B5000EFCF14F014C015F0146A030EE76EFD0EFB
:101B6000DBCFE9FFFE0EDBCFEAFFE750E926000EF0
:101B7000EA22960EE926040EEA22EF500001141024
:101B8000106E15C011F0126A136A11AE02D01268FD
:101B9000136810C0DFFF010E11C0DBFF020E12C080
:101BA000DBFF030E13C0DBFF040EE76EFD0EDBCF81
:101BB000E9FFFE0EDBCFEAFFE750E926000EEA223E
:101BC000960EE926040EEA22EFCF14F014C015F0A9
:101BD000146A050EE76EFD0EDBCFE9FFFE0EDBCFCC
:101BE000EAFFE750E926000EEA22960EE926040EE7
:101BF000EA22EF5000011410106E15C011F0126AA5
:101C0000136A11AE02D012681368040E10C0DBFF15
:101C1000050E11C0DBFF060E12C0DBFF070E13C05E
:101C2000DBFF040EDBCF10F0050EDBCF11F0060E4C
:101C3000DBCF12F0070EDBCF13F0D9CFE9FFDACFFD
:101C4000EAFFEE50105C046EEE501158056EEE5037
:101C50001258066EEE501358076E042A000E052225
:101C6000000E0622000E0722100E096E020E0A6EEA
:101C70000B6A0C6A9CEC18F0080E00C0DBFF090E22
:101C800001C0DBFF0A0E02C0DBFF0B0E03C0DBFF4F
:101C9000080EDBCF10F0090EDBCF11F00A0EDBCF00
:101CA00012F00B0EDBCF13F010C004F011C005F0E2
:101CB00012C006F013C007F000D00C0EE15C02E287
:101CC000E16AE552E16EE552E7CFD9FF1200D9CFC4
:101CD000E6FFE1CFD9FFE6528B94D70EC96EC7A0BD
:101CE000FED7C96AC7A0FED7C950DF6E8B84DF500C
:101CF000106E116A070ED89011321032E804FBE121
:101D00001050DF6EDF5000D0E552E552E7CFD9FF2B
:101D1000120021CD10F0116A10C06EFD20CD6FFDB4
:101D2000960E0D012425E96E040E2521EA6E6CCD78
:101D3000EFFF010EEA6A2425E96E2551EA22960E8C
:101D4000E926040EEA226DCDEFFF020EEA6A242591
:101D5000E96E2551EA22960EE926040EEA226ECD9E
:101D6000EFFF030EEA6A2425E96E2551EA22960E5A
:101D7000E926040EEA226FCDEFFF0D01326B0D0153
:101D8000316B0D01226B236B0D01010E076F050EE8
:101D9000E66EE66A780EE66E0D0EE66E2EEC17F035
:101DA000E552E552E552E552E80EE66E030EE66EA8
:101DB000E66AE66A63EC18F0E552E552E552E55250
:101DC0000D01010E0B6F1200D9CFE6FFE1CFD9FF55
:101DD000020EE1260D010B6B0D01076B0D01315158
:101DE00053E18B94840EC96EC7A0FED7C96AC7A001
:101DF000FED723CD10F0116A1050C96EC7A0FED7D0
:101E000022CDC9FFC7A0FED722CDDEFF23CDDDFF47
:101E1000DECF10F0DDCF11F0D890115004E6100E97
:101E2000105C020E115806E2C96ADF2A010E01E3B6
:101E3000DB2AEED7C7A0FED78B8400008B94830EDD
:101E4000C96EC7A0FED720CD10F021CD11F0060E2F
:101E5000D89011321032E804FBE11050C96EC7A0CF
:101E6000FED720CD10F021CD11F0D89010361136CC
:101E7000D890103611361050C96EC7A0FED7C96A67
:101E8000C7A0FED78B8452D08B94870EC96EC7A093
:101E9000FED7C96AC7A0FED723CD10F0116A105033
:101EA000C96EC7A0FED722CDC9FFC7A0FED722CDDD
:101EB000DEFF23CDDDFFDECF10F0DDCF11F0D890B7
:101EC000115004E6100E105C020E115806E2C96AA9
:101ED000DF2A010E01E3DB2AEED7C7A0FED78B84F1
:101EE00000008B94860EC96EC7A0FED720CD10F0DF
:101EF00021CD11F0060ED89011321032E804FBE12A
:101F00001050C96EC7A0FED720CD10F021CD11F022
:101F1000D89010361136D890103611361050C96E40
:101F2000C7A0FED7C96AC7A0FED78B84D0DE000940
:101F300001E1FCD721CD10F0116A10C070FD20CD59
:101F400071FD040E0D01EA6A2425E96E2551EA228D
:101F5000960EE926040EEA2270CDEFFF050E0D0164
:101F6000EA6A2425E96E2551EA22960EE926040E36
:101F7000EA2271CDEFFFDE6ADD6ADECF10F0DDCF41
:101F800011F0D890115004E6880E105C130E115811
:101F900006E20000DF2A010E01E3DB2AEED7E66A43
:101FA0002ADDE552060E0D012427000E0D01252322
:101FB0000D01202B000E2123020EE15C02E2E16AFA
:101FC000E552E16EE552E7CFD9FF1200FDDEE80EE3
:101FD000E66E030EE66EE66AE66A63EC18F0E5521A
:101FE000E552E552E55289EF0EF0D9CFE6FFE1CF99
:101FF000D9FF020EE1268B94C70EC96EC7A0FED78B
:10200000940EC96EC7A0FED7800EC96EC7A0FED7BA
:102010009A0EC96EC7A0FED78B840D01116B0D01FE
:10202000106BDE6ADD6ADECF10F0DDCF11F0D890E4
:10203000115004E6100E105C020E11580EE2DECFB5
:10204000E9FFDDCFEAFF960EE926040EEA22EF6AE9
:10205000DF2A010E01E3DB2AE6D7020EE15C02E291
:10206000E16AE552E16EE552E7CFD9FF1200D9CF20
:10207000E6FFE1CFD9FF020EE126DE6ADD6ADECFA0
:1020800010F0DDCF11F0D890115004E6100E105C66
:10209000020E11580EE2DECFE9FFDDCFEAFF960E09
:1020A000E926040EEA22EF68DF2A010E01E3DB2AAB
:1020B000E6D7DE6ADD6ADECF10F0DDCF11F0D89012
:1020C000115004E6040E105C000E11581AE2DECF27
:1020D000E9FFDDCFEAFF160EE9260D0EEA22EF50EA
:1020E000E66EDECFE9FFDDCFEAFF960EE926040EAD
:1020F000EA22E552E750EF6EDF2A010E01E3DB2A08
:10210000DAD71DCD10F0116A10C09AF41CCD9BF4E3
:10211000060EDE6EDD6ADECF10F0DDCF11F0D89056
:10212000115004E60B0E105C020E11581BE2DECFBC
:10213000E9FFDDCFEAFF960EE926040EEA22EF6AF8
:10214000DECFE9FFDDCFEAFF010EE926000EEA222D
:10215000960EE926040EEA22EF6A060EDE26000E2F
:10216000DD22D9D7E66A47DCE552060E0D01246F61
:10217000256B010E0D01206F216B0D01226B236B6E
:102180000D01316F0D01326B0D01106B0D010F6BE5
:102190000D01116F020EE15C02E2E16AE552E16EAF
:1021A000E552E7CFD9FF1200D9CFE6FFE1CFD9FF43
:1021B000030EE126010EDB6A020EDB6A010EDBCFA5
:1021C00010F0020EDBCF11F0FD0EDBCF12F0FE0E91
:1021D000DBCF13F011501318E8AE02D0133404D043
:1021E0001250105C135011580BE2C96AC7A0FED7F9
:1021F000C950DF6E010EDB2A020E01E3DB2ADED7B7
:10220000030EE15C02E2E16AE552E16EE552E7CFDE
:04221000D9FF1200E0
:0C221400D9CFE6FFE1CFD9FF040EE12690
:10222000DE6ADD6ADECF10F0DDCF11F0D8901150FC
:1022300004E6140E105C000E11580EE2DECFE9FF2A
:10224000DDCFEAFF000EE926010EEA22EF6ADF2A5F
:10225000010E01E3DB2AE6D7DE6ADD6ADECF10F08D
:10226000DDCF11F0D890115004E65A0E105C000E2C
:10227000115817E2DECFE9FFDDCFEAFF6E0EE92647
:10228000010EEA22EF6ADECFE9FFDDCFEAFFC80EDA
:10229000E926010EEA22EF6ADF2A010E01E3DB2ABA
:1022A000DDD7DE6ADD6ADECF10F0DDCF11F0D89029
:1022B000115004E6100E105C020E11580EE2DECF33
:1022C000E9FFDDCFEAFF860EE926020EEA22EF6A79
:1022D000DF2A010E01E3DB2AE6D70F0EC16E8B6801
:1022E000949C948E8F6898929884010E896E926A5D
:1022F0002A0EAF6E7F6A080E7E6E640EAC6ED00E34
:10230000AB6E030E6F6E7D6A080E7C6E640E6C6E93
:10231000D00E6B6ED08EF28EF28C9D8A9F9AA38A1D
:10232000A58AF28AF194949494969488949A2DECC8
:102330000BF0040EE66EE66A7D0EE66E0D0EE66E9E
:102340002EEC17F0E552E552E552E5520D01010E73
:10235000316F0D01326BBDEC0CF00D011651040113
:10236000965D13E10D0117510401975D0EE10D011A
:1023700018510401985D09E10D0119510401995D9D
:1023800004E10D01010E116F02D00D01116B010E60
:102390000D01206F216B0D01115101E1C3D0060E1B
:1023A000DE6EDD6ADECF10F0DDCF11F0D890115077
:1023B00004E60B0E105C020E115801E3B3D0DECF21
:1023C000E9FFDDCFEAFF960EE926040EEA22EF5080
:1023D00001E0A3D0DECFE9FFDDCFEAFF010EE92661
:1023E000000EEA22960EE926040EEA22EF5001E0E2
:1023F00094D0D9CFE9FFDACFEAFF0C0EEE1801E155
:10240000ED5018E1DECFE9FFDDCFEAFF020EE95E15
:10241000000EEA5A960EE926040EEA22EF50FF0853
:1024200008E1060E0D01246F256B010E0D01206FD2
:10243000216B72D0DECF10F0DDCF11F0113404E249
:1024400010500608000E115467E2DECF10F0DDCF09
:1024500011F0020E105E000E115A020E10C0DBFFCA
:10246000030E11C0DBFF020EDBCF10F0030EDBCF3B
:1024700011F0113404E210500908000E11544CE21E
:10248000020EDBCFE9FF030EDBCFEAFF960EE92653
:10249000040EEA22EF50FF0835E0020EDBCF24FDE8
:1024A000030EDBCF25FD020E0D012427000E0D01CA
:1024B000252324CDE9FF25CDEAFF020EE95E000EBB
:1024C000EA5A960EE926040EEA22EFCF10F010C069
:1024D00011F0106A24CDE9FF25CDEAFFE906000ED0
:1024E000EA5A960EE926040EEA22EF500D0110106A
:1024F000206F11C021FD010E0D012027000E0D01DE
:1025000021230AD0D950020FE96EDACFEAFF060E76
:10251000EE5E000EED5AA7D705D0060EDE26000EA1
:10252000DD2240D7000085960D01145171E00D01A8
:1025300009516EE10D01315126E18B94860EC96E71
:10254000C7A0FED720CD10F021CD11F0060ED890F7
:1025500011321032E804FBE11050C96EC7A0FED75B
:1025600020CD10F021CD11F0D89010361136D89032
:10257000103611361050C96EC7A0FED7C96AC7A061
:10258000FED78B8425D08B94830EC96EC7A0FED74F
:1025900020CD10F021CD11F0060ED890113210325E
:1025A000E804FBE11050C96EC7A0FED720CD10F0A3
:1025B00021CD11F0D89010361136D8901036113642
:1025C0001050C96EC7A0FED7C96AC7A0FED78B84BA
:1025D0000D01202B000E21230D01226B236B7A0E9F
:1025E0000D01201902E11C0E211903E10D01010E5C
:1025F000106FFE0E0D01201902E11F0E211903E1DB
:102600000D01010E0F6F0D01146B0D01010E006F16
:102610000D010C5104E00D010C6BF5EC0FF00D01F8
:10262000135104E00D01136B37EC10F00D0108514C
:1026300004E00D01086B89EC0EF00D010F5106E06E
:102640000D01075103E00D01010E096F0D01095144
:1026500004E00D01096BE4EC0EF00D010A5104E0F9
:102660000D010A6BE6EC0FF00D01285115E00D018C
:10267000045112E10D0115510D01285D06E10D0116
:10268000010E046F15CD00F107D06CEC0AF00D01BE
:10269000286B0D01296B2A6B0D0106510CE00D0111
:1026A000066B6CEC0AF00D01046B0D01286B0D013B
:1026B000056B6B986B880D0129512A1101E157D1E7
:1026C000020E0D012AAF02D0D89003D0295D000E72
:1026D0002A5901E22CD10D01045101E128D10D014B
:1026E000055101E024D1010101510E0A01E106D199
:1026F0000C0A01E1F7D0130A01E1E8D01C0A01E15C
:10270000D9D09D0A01E1CAD01C0A01E1BBD0070A59
:1027100001E1ACD0010A01E19DD00F0A01E18ED0A8
:10272000010A01E17FD0900A71E01B0A63E0870A89
:1027300055E08F0A47E0010A39E00F0A2BE00A0A48
:102740001DE0020A0FE0540A01E0E4D0030E0D017F
:102750002B6F2C6B010E0D012F6F306B0D012D6B4C
:102760002E6BDFD0030E0D012B6F2C6B040E0D01B1
:102770002F6F306B0D012D6B2E6BD3D0050E0D011D
:102780002B6F2C6B1C0E0D012F6F306B0D012D6B01
:102790002E6BC7D0030E0D012B6F2C6B4B0E0D0152
:1027A0002F6F306B0D012D6B2E6BBBD0030E0D0107
:1027B0002B6F2C6B060E0D012F6F306B0D012D6BE7
:1027C0002E6BAFD0030E0D012B6F2C6B040E0D0181
:1027D0002F6F306B0D012D6B2E6BA3D0040E0D01EE
:1027E0002B6F2C6B010E0D012F6F306B0D012D6BBC
:1027F0002E6B97D0030E0D012B6F2C6B060E0D0167
:102800002F6F306B0D012D6B2E6B8BD0030E0D01D6
:102810002B6F2C6B030E0D012F6F306B0D012D6B89
:102820002E6B7FD0030E0D012B6F2C6B010E0D0153
:102830002F6F306B0D012D6B2E6B73D0030E0D01BE
:102840002B6F2C6B010E0D012F6F306B0D012D6B5B
:102850002E6B67D0050E0D012B6F2C6B010E0D0139
:102860002F6F306B0D012D6B2E6B5BD0030E0D01A6
:102870002B6F2C6B010E0D012F6F306B0D012D6B2B
:102880002E6B4FD0030E0D012B6F2C6B010E0D0123
:102890002F6F306B0D012D6B2E6B43D0030E0D018E
:1028A0002B6F2C6B010E0D012F6F306B0D012D6BFB
:1028B0002E6B37D0050E0D012B6F2C6B060E0D0104
:1028C0002F6F306B0D012D6B2E6B2BD0090E0D0170
:1028D0002B6F2C6B1E0E0D012F6F306B0D012D6BAE
:1028E0002E6B1FD0060E0D012B6F2C6B1B0E0D01D6
:1028F0002F6F306B0D012D6B2E6B13D0070E0D015A
:102900002B6F2C6B1E0E0D012F6F306B0D012D6B7D
:102910002E6B07D06CEC0AF00D01046B0D01286BD7
:1029200000D00D01045103E00D01010E056F0D01F2
:1029300005511DE00D012B510D01291904E10D0177
:102940002C510D012A1913E10D0129512A110FE013
:1029500073EC0AF0000909E16CEC0AF00D01046B5C
:102960000D01286B0D01056B02D02EEC00F00D015E
:10297000035107E00D01036B0D01010E0E6F6BECAF
:1029800017F00D01025111E00D01026B0D010E6BEC
:10299000040EE66EE66A7D0EE66E0D0EE66E2EEC19
:1029A00017F0E552E552E552E5520D01015123E0E1
:1029B0000D0101510D0A1AE0030A15E01E0A10E08C
:1029C000010A0BE0060A06E00E0A01E012D0030E2F
:1029D0006F6E0FD0040E6F6E0CD02A0E6F6E09D082
:1029E000560E6F6E06D0030E6F6E03D0080E6F6E1C
:1029F00000D00D01016B98D5040EE15C02E2E16AA2
:0C2A0000E552E16EE552E7CFD9FF12006D
:042A0C00DACFE4FF3A
:102A1000E2CFDAFFE9CFE4FFEACFE4FFE652D9CF15
:102A2000E6FFE1CFD9FF040EE126F2A406D0F2942E
:102A3000D59E0D010D6B0D01126B9EAAAED19E9A13
:102A4000AE50DF6EABA257D00D0126514FE026519C
:102A5000880A01E04BD00D01325124E1010EDB6AFE
:102A6000020EDB6A010EDBCF20F0020EDBCF21F07D
:102A7000D890215004E65A0E205C000E215811E235
:102A8000010EDBCFE9FF020EDBCFEAFF6E0EE92677
:102A9000010EEA22EF6A010EDB2A020E01E3DB2AB5
:102AA000E1D723D0010EDB6A020EDB6A010EDBCF19
:102AB00020F0020EDBCF21F0D890215004E65A0E10
:102AC000205C000E215811E2010EDBCFE9FF020E5F
:102AD000DBCFEAFFC80EE926010EEA22EF6A010EFB
:102AE000DB2A020E01E3DB2AE1D700D00D01266BC1
:102AF000AB98AB8852D10D01742B000E75230D01DC
:102B0000075101E1B6D00D01145101E0A6D00D012D
:102B1000005157E0006B010EDB6A020EDB6A010E0A
:102B2000DBCF20F0020EDBCF21F00D0121501F1969
:102B3000E8AE02D01F3504D01E51205C1F51215831
:102B40003EE20D01315119E18B94840EC96EC7A08C
:102B5000FED7C96AC7A0FED723CD20F0216A205036
:102B6000C96EC7A0FED722CDC9FFC7A0FED7DF50D0
:102B7000C96EC7A0FED78B8418D08B94870EC96E00
:102B8000C7A0FED7C96AC7A0FED723CD20F0216A0F
:102B90002050C96EC7A0FED722CDC9FFC7A0FED75F
:102BA000DF50C96EC7A0FED78B840D01222B000E0B
:102BB0002323010EDB2A020E01E3DB2AB0D71E6BB2
:102BC0001F6B0D01315119E18B94840EC96EC7A0A2
:102BD000FED7C96AC7A0FED723CD20F0216A2050B6
:102BE000C96EC7A0FED722CDC9FFC7A0FED7DF5050
:102BF000C96EC7A0FED78B8418D08B94870EC96E80
:102C0000C7A0FED7C96AC7A0FED723CD20F0216A8E
:102C10002050C96EC7A0FED722CDC9FFC7A0FED7DE
:102C2000DF50C96EC7A0FED78B840D01222B000E8A
:102C30002323100E221902E1020E23190DE10D01CA
:102C4000010E146F0D01315102E0316B02D0010E03
:102C5000316F0D01226B236B0CD0220E0D011E254E
:102C6000E96E020E1F21EA6EDFCFEFFF1E2B000E72
:102C70001F230D01725101E188D0880E0D01265DE0
:102C80000CE1100E0D01735D08E1100EDF5C05E133
:102C90007407000E755B736B80D00D01020E741902
:102CA00001E1755102E1DFCF27FD27CD26FD0D01A2
:102CB0002751880A01E029D00D01753504E27451CD
:102CC0000208000E755520E20D0132510FE174CD5E
:102CD000E9FF75CDEAFF030EE95E000EEA5A6E0EBB
:102CE000E926010EEA22DFCFEFFF0ED074CDE9FF17
:102CF00075CDEAFF030EE95E000EEA5AC80EE9261A
:102D0000010EEA22DFCFEFFF00D0030EDF5C3AE1D5
:102D1000100E0D01735D36E10D01125109E00D0138
:102D20007651D66E77CD20F0216A2050D76E14D020
:102D3000010E126F0D010D6FD58ED59CD59AD588D9
:102D4000D596D584D582D5800D017651D66E77CDB6
:102D500020F0216A2050D76E880E0D01275D07E113
:102D60000D01325102E0326B02D0010E326F0D01C3
:102D7000726B746B756B0D01276B0D01736B0D011D
:102D8000266B8070DFCF73FD08D0100EDF5C03E18F
:102D9000010E726F02D0746B756B040EE15C02E27F
:102DA000E16AE552E16EE552E7CFD9FFE552E5CFA2
:0C2DB000EAFFE5CFE9FFE5CFDAFF1100F4
:042DBC00D9CFE6FF86
:102DC000E1CFD9FFFE0EDBCFE6FFDB38F00B106E54
:102DD000FE0EDB380F0B1010E552E718E76EFE0E03
:102DE000E7CFDBFFDBCFE6FFFE0EDB40E8403F0B2B
:102DF000E552E718E76EFE0EE7CFDBFFDBCFE6FF1D
:102E0000DB407F0BE552E718E76EFE0EE7CFDBFFF6
:102E1000DB50010B02E0000E01D0010E00D0E552A4
:102E2000E7CFD9FF1200D9CFE6FFE1CFD9FFACAA97
:102E300011D09EA8FED7FE0EDBCFE6FFBFDFE55226
:102E4000E8B0AC80E8A0AC90FE0EDB50AD6E0000A8
:102E5000ACA2FED7E552E7CFD9FF1200D9CFE6FFEB
:102E6000E1CFD9FF020EE126DE6ADD6ADECF10F087
:102E7000DDCF11F0FB0EDBCF12F0FC0EDBCF13F039
:102E800011501318E8AE02D0133404D01250105C65
:102E90001350115815E2FD0EDBCF10F0FE0EDBCF04
:102EA00011F0DE501024E96EDD501120EA6EEF5073
:102EB000E66EB9DFE552DF2A010E01E3DB2AD6D741
:102EC0000000020EE15C02E2E16AE552E16EE552C9
:102ED000E7CFD9FF1200040EE66EE66A380EE66E02
:102EE0000D0EE66EBBDFE552E552E552E552E80E07
:102EF000E66E030EE66EE66AE66A63EC18F0E552EB
:102F0000E552E552E552060EE66EE66A450EE66EBD
:102F10000D0EE66EA3DFE552E552E552E552E80EEE
:102F2000E66E030EE66EE66AE66A63EC18F0E552BA
:102F3000E552E552E552070EE66EE66A4B0EE66E86
:102F40000D0EE66E8BDFE552E552E552E552E80ED6
:102F5000E66E030EE66EE66AE66A63EC18F0E5528A
:102F6000E552E552E552060EE66EE66A520EE66E50
:102F70000D0EE66E73DFE552E552E552E552E80EBE
:102F8000E66E030EE66EE66AE66A63EC18F0E5525A
:102F9000E552E552E552050EE66EE66A580EE66E1B
:102FA0000D0EE66E5BDFE552E552E552E552E80EA6
:102FB000E66E030EE66EE66AE66A63EC18F0E5522A
:102FC000E552E552E552050EE66EE66A5D0EE66EE6
:102FD0000D0EE66E43DFE552E552E552E552E80E8E
:102FE000E66E030EE66EE66AE66A63EC18F0E552FA
:102FF000E552E552E552050EE66EE66A330EE66EE0
:103000000D0EE66E2BDFE552E552E552E552E80E75
:10301000E66E030EE66EE66AE66A63EC18F0E552C9
:08302000E552E552E5521200F1
:083028001E0EF66E000EF76E9D
:10303000000EF86E0D010900F550676F0900F5509C
:10304000686F03E1676701D03DD00900F550626FFA
:103050000900F550636F0900F550646F090009001D
:10306000F550E96E0900F550EA6E09000900090003
:10307000F550656F0900F550666F09000900F6CF3D
:1030800069FDF7CF6AFDF8CF6BFD62CDF6FF63CD2A
:10309000F7FF64CDF8FF0D01655302E1665307E0C9
:1030A0000900F550EE6E6507F8E26607F9D769CDBD
:1030B000F6FF6ACDF7FF6BCDF8FF0D016707000E35
:0630C000685BBFD712009F
:0A30C600D9CFE6FFE1CFD9FF040ED9
:1030D000E126DE6ADE6ADE6ADD6ADD52DD52FB0E63
:1030E000DBCF10F0FC0EDBCF11F0FD0EDBCF12F0CA
:1030F000FE0EDBCF13F0D9CFE9FFDACFEAFF105095
:10310000EE5C1150EE581250EE581350EE580AE291
:10311000D9CFE9FFDACFEAFFEE2A000EEE22EE2247
:10312000EE22DDD7040EE15C02E2E16AE552E16ED7
:08313000E552E7CFD9FF1200C0
:0831380004500902F3CF00F07E
:10314000F4CF01F00A02F3500126000EF420026EC3
:1031500004500B02F3500226000EF420036E0450BC
:103160000C02F350032605500902F3500126F450D7
:103170000222000E032205500A02F3500226F450E8
:10318000032205500B02F350032606500902F350A8
:103190000226F450032206500A02F3500326075079
:0831A0000902F350032612009E
:0831A800DACFE4FFE2CFDAFF09
:1031B000E9CFE4FFEACFE4FFE652A4AA1CD06BA05B
:1031C00008D06B906ECF28FD010E0D01296F2A6B80
:1031D00012D06BA204D00D01010E066F0CD0000EB0
:1031E0000D012925E96E010E2A21EA6E6ECFEFFF4F
:1031F000292B000E2A23E552E5CFEAFFE5CFE9FFB0
:06320000E5CFDAFF11002A
:0A320600036A026A016A006A200EE2
:10321000E76ED89004360536063607360036013696
:10322000023603360950005C0A5001580B50025810
:103230000C50035809E30950005E0A50015A0B5024
:0E324000025A0C50035A042AE72EE4D712005B
:02324E00000E70
:10325000F36E00EE00F0020E0DD8000EF36E0AEED3
:1032600000F00F0E07D8000EF36E02EE00F00A0E0B
:1032700001D81200EA6002D0EE6AFCD7F350E96090
:063280001200EE6AFCD70B
:0A3286001EEE00F02EEE00F0F86AD4
:103290000F9C14EC18F003EC00F00AEC11F0FBD7D3
:0232A00012001A
:0E32A200FE0EE3CFE9FFFF0EE3CFEAFFF36A73
:0E32B000F46AEE5203E0F34AF42AFBD7120050
:0232BE0000000E
:1032C00000000000000000000000000000000000FE
:1032D000000000034D475053810110000000010021
:1032E00000000600000000000000000000000000D8
:0132F00000DD
:0632F10000000000307532
:0932F7001027011003100E100352
:1033000010210110031018100310D7020110031030
:10331000D7030100100310A00301100310D5011002
:063320000310F414100379
:020000040030CA
:0100010022DC
:010002000FEE
:010003001EDE
:010005008377
:010006008178
:010008000FE8
:01000900C036
:01000A000FE6
:01000B00E014
:01000C000FE4
:01000D0040B2
:00000001FF
